{
	"mc3coin.sol": {
		"MC3Treasury": {
			"abi": [
				{
					"inputs": [
						{
							"internalType": "address",
							"name": "_tokenAddress",
							"type": "address"
						}
					],
					"stateMutability": "nonpayable",
					"type": "constructor"
				},
				{
					"inputs": [],
					"name": "EthToTokenConversionFactor",
					"outputs": [
						{
							"internalType": "uint256",
							"name": "",
							"type": "uint256"
						}
					],
					"stateMutability": "pure",
					"type": "function"
				},
				{
					"inputs": [
						{
							"internalType": "address",
							"name": "_adminAddress",
							"type": "address"
						}
					],
					"name": "addAdmin",
					"outputs": [],
					"stateMutability": "nonpayable",
					"type": "function"
				},
				{
					"inputs": [
						{
							"internalType": "address",
							"name": "",
							"type": "address"
						}
					],
					"name": "admin",
					"outputs": [
						{
							"internalType": "bool",
							"name": "",
							"type": "bool"
						}
					],
					"stateMutability": "view",
					"type": "function"
				},
				{
					"inputs": [],
					"name": "buyToken",
					"outputs": [
						{
							"internalType": "bool",
							"name": "",
							"type": "bool"
						}
					],
					"stateMutability": "payable",
					"type": "function"
				},
				{
					"inputs": [],
					"name": "getBalance",
					"outputs": [
						{
							"internalType": "uint256",
							"name": "",
							"type": "uint256"
						}
					],
					"stateMutability": "view",
					"type": "function"
				},
				{
					"inputs": [
						{
							"internalType": "address",
							"name": "_adminAddress",
							"type": "address"
						}
					],
					"name": "removeAdmin",
					"outputs": [],
					"stateMutability": "nonpayable",
					"type": "function"
				},
				{
					"inputs": [
						{
							"internalType": "address",
							"name": "_to",
							"type": "address"
						},
						{
							"internalType": "uint256",
							"name": "_amount",
							"type": "uint256"
						}
					],
					"name": "sendToken",
					"outputs": [],
					"stateMutability": "nonpayable",
					"type": "function"
				},
				{
					"inputs": [
						{
							"internalType": "uint256",
							"name": "_amount",
							"type": "uint256"
						}
					],
					"name": "withdrawEth",
					"outputs": [],
					"stateMutability": "payable",
					"type": "function"
				},
				{
					"inputs": [
						{
							"internalType": "uint256",
							"name": "_amount",
							"type": "uint256"
						}
					],
					"name": "withdrawToken",
					"outputs": [],
					"stateMutability": "nonpayable",
					"type": "function"
				}
			],
			"devdoc": {
				"kind": "dev",
				"methods": {},
				"version": 1
			},
			"evm": {
				"assembly": "    /* \"mc3coin.sol\":1235:3263  contract MC3Treasury {... */\n  mstore(0x40, 0x80)\n    /* \"mc3coin.sol\":1822:1933  constructor(address _tokenAddress) {... */\n  callvalue\n  dup1\n  iszero\n  tag_1\n  jumpi\n  revert(0x00, 0x00)\ntag_1:\n  pop\n  mload(0x40)\n  sub(codesize, bytecodeSize)\n  dup1\n  bytecodeSize\n  dup4\n  codecopy\n  dup2\n  dup2\n  add\n  0x40\n  mstore\n  dup2\n  add\n  swap1\n  tag_2\n  swap2\n  swap1\n  tag_3\n  jump\t// in\ntag_2:\n    /* \"mc3coin.sol\":1882:1895  _tokenAddress */\n  dup1\n    /* \"mc3coin.sol\":1867:1872  token */\n  0x00\n  0x00\n    /* \"mc3coin.sol\":1867:1896  token = IERC20(_tokenAddress) */\n  0x0100\n  exp\n  dup2\n  sload\n  dup2\n  0xffffffffffffffffffffffffffffffffffffffff\n  mul\n  not\n  and\n  swap1\n  dup4\n  0xffffffffffffffffffffffffffffffffffffffff\n  and\n  mul\n  or\n  swap1\n  sstore\n  pop\n    /* \"mc3coin.sol\":1906:1926  addAdmin(msg.sender) */\n  tag_6\n    /* \"mc3coin.sol\":1915:1925  msg.sender */\n  caller\n    /* \"mc3coin.sol\":1906:1914  addAdmin */\n  shl(0x20, tag_7)\n    /* \"mc3coin.sol\":1906:1926  addAdmin(msg.sender) */\n  0x20\n  shr\n  jump\t// in\ntag_6:\n    /* \"mc3coin.sol\":1822:1933  constructor(address _tokenAddress) {... */\n  pop\n    /* \"mc3coin.sol\":1235:3263  contract MC3Treasury {... */\n  jump(tag_8)\n    /* \"mc3coin.sol\":1423:1562  function addAdmin(address _adminAddress) public {... */\ntag_7:\n    /* \"mc3coin.sol\":1513:1517  true */\n  0x01\n    /* \"mc3coin.sol\":1489:1517  admin[_adminAddress] != true */\n  iszero\n  iszero\n    /* \"mc3coin.sol\":1489:1494  admin */\n  0x01\n    /* \"mc3coin.sol\":1489:1509  admin[_adminAddress] */\n  0x00\n    /* \"mc3coin.sol\":1495:1508  _adminAddress */\n  dup4\n    /* \"mc3coin.sol\":1489:1509  admin[_adminAddress] */\n  0xffffffffffffffffffffffffffffffffffffffff\n  and\n  0xffffffffffffffffffffffffffffffffffffffff\n  and\n  dup2\n  mstore\n  0x20\n  add\n  swap1\n  dup2\n  mstore\n  0x20\n  add\n  0x00\n  keccak256\n  0x00\n  swap1\n  sload\n  swap1\n  0x0100\n  exp\n  swap1\n  div\n  0xff\n  and\n    /* \"mc3coin.sol\":1489:1517  admin[_adminAddress] != true */\n  iszero\n  iszero\n  sub\n    /* \"mc3coin.sol\":1481:1518  require(admin[_adminAddress] != true) */\n  tag_10\n  jumpi\n  revert(0x00, 0x00)\ntag_10:\n    /* \"mc3coin.sol\":1551:1555  true */\n  0x01\n    /* \"mc3coin.sol\":1528:1533  admin */\n  dup1\n    /* \"mc3coin.sol\":1528:1548  admin[_adminAddress] */\n  0x00\n    /* \"mc3coin.sol\":1534:1547  _adminAddress */\n  dup4\n    /* \"mc3coin.sol\":1528:1548  admin[_adminAddress] */\n  0xffffffffffffffffffffffffffffffffffffffff\n  and\n  0xffffffffffffffffffffffffffffffffffffffff\n  and\n  dup2\n  mstore\n  0x20\n  add\n  swap1\n  dup2\n  mstore\n  0x20\n  add\n  0x00\n  keccak256\n  0x00\n    /* \"mc3coin.sol\":1528:1555  admin[_adminAddress] = true */\n  0x0100\n  exp\n  dup2\n  sload\n  dup2\n  0xff\n  mul\n  not\n  and\n  swap1\n  dup4\n  iszero\n  iszero\n  mul\n  or\n  swap1\n  sstore\n  pop\n    /* \"mc3coin.sol\":1423:1562  function addAdmin(address _adminAddress) public {... */\n  pop\n  jump\t// out\n    /* \"#utility.yul\":88:205   */\ntag_12:\n    /* \"#utility.yul\":197:198   */\n  0x00\n    /* \"#utility.yul\":194:195   */\n  0x00\n    /* \"#utility.yul\":187:199   */\n  revert\n    /* \"#utility.yul\":334:460   */\ntag_14:\n    /* \"#utility.yul\":371:378   */\n  0x00\n    /* \"#utility.yul\":411:453   */\n  0xffffffffffffffffffffffffffffffffffffffff\n    /* \"#utility.yul\":404:409   */\n  dup3\n    /* \"#utility.yul\":400:454   */\n  and\n    /* \"#utility.yul\":389:454   */\n  swap1\n  pop\n    /* \"#utility.yul\":334:460   */\n  swap2\n  swap1\n  pop\n  jump\t// out\n    /* \"#utility.yul\":466:562   */\ntag_15:\n    /* \"#utility.yul\":503:510   */\n  0x00\n    /* \"#utility.yul\":532:556   */\n  tag_24\n    /* \"#utility.yul\":550:555   */\n  dup3\n    /* \"#utility.yul\":532:556   */\n  tag_14\n  jump\t// in\ntag_24:\n    /* \"#utility.yul\":521:556   */\n  swap1\n  pop\n    /* \"#utility.yul\":466:562   */\n  swap2\n  swap1\n  pop\n  jump\t// out\n    /* \"#utility.yul\":568:690   */\ntag_16:\n    /* \"#utility.yul\":641:665   */\n  tag_26\n    /* \"#utility.yul\":659:664   */\n  dup2\n    /* \"#utility.yul\":641:665   */\n  tag_15\n  jump\t// in\ntag_26:\n    /* \"#utility.yul\":634:639   */\n  dup2\n    /* \"#utility.yul\":631:666   */\n  eq\n    /* \"#utility.yul\":621:684   */\n  tag_27\n  jumpi\n    /* \"#utility.yul\":680:681   */\n  0x00\n    /* \"#utility.yul\":677:678   */\n  0x00\n    /* \"#utility.yul\":670:682   */\n  revert\n    /* \"#utility.yul\":621:684   */\ntag_27:\n    /* \"#utility.yul\":568:690   */\n  pop\n  jump\t// out\n    /* \"#utility.yul\":696:839   */\ntag_17:\n    /* \"#utility.yul\":753:758   */\n  0x00\n    /* \"#utility.yul\":784:790   */\n  dup2\n    /* \"#utility.yul\":778:791   */\n  mload\n    /* \"#utility.yul\":769:791   */\n  swap1\n  pop\n    /* \"#utility.yul\":800:833   */\n  tag_29\n    /* \"#utility.yul\":827:832   */\n  dup2\n    /* \"#utility.yul\":800:833   */\n  tag_16\n  jump\t// in\ntag_29:\n    /* \"#utility.yul\":696:839   */\n  swap3\n  swap2\n  pop\n  pop\n  jump\t// out\n    /* \"#utility.yul\":845:1196   */\ntag_3:\n    /* \"#utility.yul\":915:921   */\n  0x00\n    /* \"#utility.yul\":964:966   */\n  0x20\n    /* \"#utility.yul\":952:961   */\n  dup3\n    /* \"#utility.yul\":943:950   */\n  dup5\n    /* \"#utility.yul\":939:962   */\n  sub\n    /* \"#utility.yul\":935:967   */\n  slt\n    /* \"#utility.yul\":932:1051   */\n  iszero\n  tag_31\n  jumpi\n    /* \"#utility.yul\":970:1049   */\n  tag_32\n  tag_12\n  jump\t// in\ntag_32:\n    /* \"#utility.yul\":932:1051   */\ntag_31:\n    /* \"#utility.yul\":1090:1091   */\n  0x00\n    /* \"#utility.yul\":1115:1179   */\n  tag_33\n    /* \"#utility.yul\":1171:1178   */\n  dup5\n    /* \"#utility.yul\":1162:1168   */\n  dup3\n    /* \"#utility.yul\":1151:1160   */\n  dup6\n    /* \"#utility.yul\":1147:1169   */\n  add\n    /* \"#utility.yul\":1115:1179   */\n  tag_17\n  jump\t// in\ntag_33:\n    /* \"#utility.yul\":1105:1179   */\n  swap2\n  pop\n    /* \"#utility.yul\":1061:1189   */\n  pop\n    /* \"#utility.yul\":845:1196   */\n  swap3\n  swap2\n  pop\n  pop\n  jump\t// out\n    /* \"mc3coin.sol\":1235:3263  contract MC3Treasury {... */\ntag_8:\n  dataSize(sub_0)\n  dup1\n  dataOffset(sub_0)\n  0x00\n  codecopy\n  0x00\n  return\nstop\n\nsub_0: assembly {\n        /* \"mc3coin.sol\":1235:3263  contract MC3Treasury {... */\n      mstore(0x40, 0x80)\n      jumpi(tag_1, lt(calldatasize, 0x04))\n      shr(0xe0, calldataload(0x00))\n      dup1\n      0x63a846f8\n      gt\n      tag_11\n      jumpi\n      dup1\n      0x63a846f8\n      eq\n      tag_6\n      jumpi\n      dup1\n      0x70480275\n      eq\n      tag_7\n      jumpi\n      dup1\n      0xa4821719\n      eq\n      tag_8\n      jumpi\n      dup1\n      0xc311d049\n      eq\n      tag_9\n      jumpi\n      dup1\n      0xf862110f\n      eq\n      tag_10\n      jumpi\n      jump(tag_1)\n    tag_11:\n      dup1\n      0x12065fe0\n      eq\n      tag_2\n      jumpi\n      dup1\n      0x1785f53c\n      eq\n      tag_3\n      jumpi\n      dup1\n      0x412664ae\n      eq\n      tag_4\n      jumpi\n      dup1\n      0x50baa622\n      eq\n      tag_5\n      jumpi\n    tag_1:\n      revert(0x00, 0x00)\n        /* \"mc3coin.sol\":2497:2603  function getBalance() external view returns(uint256){... */\n    tag_2:\n      callvalue\n      dup1\n      iszero\n      tag_12\n      jumpi\n      revert(0x00, 0x00)\n    tag_12:\n      pop\n      tag_13\n      tag_14\n      jump\t// in\n    tag_13:\n      mload(0x40)\n      tag_15\n      swap2\n      swap1\n      tag_16\n      jump\t// in\n    tag_15:\n      mload(0x40)\n      dup1\n      swap2\n      sub\n      swap1\n      return\n        /* \"mc3coin.sol\":1567:1672  function removeAdmin(address _adminAddress) public onlyAdmin {... */\n    tag_3:\n      callvalue\n      dup1\n      iszero\n      tag_17\n      jumpi\n      revert(0x00, 0x00)\n    tag_17:\n      pop\n      tag_18\n      0x04\n      dup1\n      calldatasize\n      sub\n      dup2\n      add\n      swap1\n      tag_19\n      swap2\n      swap1\n      tag_20\n      jump\t// in\n    tag_19:\n      tag_21\n      jump\t// in\n    tag_18:\n      stop\n        /* \"mc3coin.sol\":2378:2491  function sendToken(address _to, uint256 _amount) external onlyAdmin {... */\n    tag_4:\n      callvalue\n      dup1\n      iszero\n      tag_22\n      jumpi\n      revert(0x00, 0x00)\n    tag_22:\n      pop\n      tag_23\n      0x04\n      dup1\n      calldatasize\n      sub\n      dup2\n      add\n      swap1\n      tag_24\n      swap2\n      swap1\n      tag_25\n      jump\t// in\n    tag_24:\n      tag_26\n      jump\t// in\n    tag_23:\n      stop\n        /* \"mc3coin.sol\":1939:2105  function withdrawToken(uint256 _amount) external onlyAdmin {... */\n    tag_5:\n      callvalue\n      dup1\n      iszero\n      tag_27\n      jumpi\n      revert(0x00, 0x00)\n    tag_27:\n      pop\n      tag_28\n      0x04\n      dup1\n      calldatasize\n      sub\n      dup2\n      add\n      swap1\n      tag_29\n      swap2\n      swap1\n      tag_30\n      jump\t// in\n    tag_29:\n      tag_31\n      jump\t// in\n    tag_28:\n      stop\n        /* \"mc3coin.sol\":1375:1412  mapping(address => bool) public admin */\n    tag_6:\n      callvalue\n      dup1\n      iszero\n      tag_32\n      jumpi\n      revert(0x00, 0x00)\n    tag_32:\n      pop\n      tag_33\n      0x04\n      dup1\n      calldatasize\n      sub\n      dup2\n      add\n      swap1\n      tag_34\n      swap2\n      swap1\n      tag_20\n      jump\t// in\n    tag_34:\n      tag_35\n      jump\t// in\n    tag_33:\n      mload(0x40)\n      tag_36\n      swap2\n      swap1\n      tag_37\n      jump\t// in\n    tag_36:\n      mload(0x40)\n      dup1\n      swap2\n      sub\n      swap1\n      return\n        /* \"mc3coin.sol\":1423:1562  function addAdmin(address _adminAddress) public {... */\n    tag_7:\n      callvalue\n      dup1\n      iszero\n      tag_38\n      jumpi\n      revert(0x00, 0x00)\n    tag_38:\n      pop\n      tag_39\n      0x04\n      dup1\n      calldatasize\n      sub\n      dup2\n      add\n      swap1\n      tag_40\n      swap2\n      swap1\n      tag_20\n      jump\t// in\n    tag_40:\n      tag_41\n      jump\t// in\n    tag_39:\n      stop\n        /* \"mc3coin.sol\":2948:3260  function buyToken() public payable returns(bool) {... */\n    tag_8:\n      tag_42\n      tag_43\n      jump\t// in\n    tag_42:\n      mload(0x40)\n      tag_44\n      swap2\n      swap1\n      tag_37\n      jump\t// in\n    tag_44:\n      mload(0x40)\n      dup1\n      swap2\n      sub\n      swap1\n      return\n        /* \"mc3coin.sol\":2111:2372  function withdrawEth(uint256 _amount) external payable onlyAdmin {... */\n    tag_9:\n      tag_45\n      0x04\n      dup1\n      calldatasize\n      sub\n      dup2\n      add\n      swap1\n      tag_46\n      swap2\n      swap1\n      tag_30\n      jump\t// in\n    tag_46:\n      tag_47\n      jump\t// in\n    tag_45:\n      stop\n        /* \"mc3coin.sol\":2610:2942  function EthToTokenConversionFactor() external pure returns(uint256){... */\n    tag_10:\n      callvalue\n      dup1\n      iszero\n      tag_48\n      jumpi\n      revert(0x00, 0x00)\n    tag_48:\n      pop\n      tag_49\n      tag_50\n      jump\t// in\n    tag_49:\n      mload(0x40)\n      tag_51\n      swap2\n      swap1\n      tag_16\n      jump\t// in\n    tag_51:\n      mload(0x40)\n      dup1\n      swap2\n      sub\n      swap1\n      return\n        /* \"mc3coin.sol\":2497:2603  function getBalance() external view returns(uint256){... */\n    tag_14:\n        /* \"mc3coin.sol\":2541:2548  uint256 */\n      0x00\n        /* \"mc3coin.sol\":2566:2571  token */\n      0x00\n      0x00\n      swap1\n      sload\n      swap1\n      0x0100\n      exp\n      swap1\n      div\n      0xffffffffffffffffffffffffffffffffffffffff\n      and\n        /* \"mc3coin.sol\":2566:2581  token.balanceOf */\n      0xffffffffffffffffffffffffffffffffffffffff\n      and\n      0x70a08231\n        /* \"mc3coin.sol\":2590:2594  this */\n      address\n        /* \"mc3coin.sol\":2566:2596  token.balanceOf(address(this)) */\n      mload(0x40)\n      dup3\n      0xffffffff\n      and\n      0xe0\n      shl\n      dup2\n      mstore\n      0x04\n      add\n      tag_53\n      swap2\n      swap1\n      tag_54\n      jump\t// in\n    tag_53:\n      0x20\n      mload(0x40)\n      dup1\n      dup4\n      sub\n      dup2\n      dup7\n      gas\n      staticcall\n      iszero\n      dup1\n      iszero\n      tag_56\n      jumpi\n      returndatacopy(0x00, 0x00, returndatasize)\n      revert(0x00, returndatasize)\n    tag_56:\n      pop\n      pop\n      pop\n      pop\n      mload(0x40)\n      returndatasize\n      not(0x1f)\n      0x1f\n      dup3\n      add\n      and\n      dup3\n      add\n      dup1\n      0x40\n      mstore\n      pop\n      dup2\n      add\n      swap1\n      tag_57\n      swap2\n      swap1\n      tag_58\n      jump\t// in\n    tag_57:\n        /* \"mc3coin.sol\":2559:2596  return token.balanceOf(address(this)) */\n      swap1\n      pop\n        /* \"mc3coin.sol\":2497:2603  function getBalance() external view returns(uint256){... */\n      swap1\n      jump\t// out\n        /* \"mc3coin.sol\":1567:1672  function removeAdmin(address _adminAddress) public onlyAdmin {... */\n    tag_21:\n        /* \"mc3coin.sol\":1779:1784  admin */\n      0x01\n        /* \"mc3coin.sol\":1779:1796  admin[msg.sender] */\n      0x00\n        /* \"mc3coin.sol\":1785:1795  msg.sender */\n      caller\n        /* \"mc3coin.sol\":1779:1796  admin[msg.sender] */\n      0xffffffffffffffffffffffffffffffffffffffff\n      and\n      0xffffffffffffffffffffffffffffffffffffffff\n      and\n      dup2\n      mstore\n      0x20\n      add\n      swap1\n      dup2\n      mstore\n      0x20\n      add\n      0x00\n      keccak256\n      0x00\n      swap1\n      sload\n      swap1\n      0x0100\n      exp\n      swap1\n      div\n      0xff\n      and\n        /* \"mc3coin.sol\":1771:1797  require(admin[msg.sender]) */\n      tag_60\n      jumpi\n      revert(0x00, 0x00)\n    tag_60:\n        /* \"mc3coin.sol\":1645:1650  admin */\n      0x01\n        /* \"mc3coin.sol\":1645:1665  admin[_adminAddress] */\n      0x00\n        /* \"mc3coin.sol\":1651:1664  _adminAddress */\n      dup3\n        /* \"mc3coin.sol\":1645:1665  admin[_adminAddress] */\n      0xffffffffffffffffffffffffffffffffffffffff\n      and\n      0xffffffffffffffffffffffffffffffffffffffff\n      and\n      dup2\n      mstore\n      0x20\n      add\n      swap1\n      dup2\n      mstore\n      0x20\n      add\n      0x00\n      keccak256\n      0x00\n        /* \"mc3coin.sol\":1638:1665  delete admin[_adminAddress] */\n      0x0100\n      exp\n      dup2\n      sload\n      swap1\n      0xff\n      mul\n      not\n      and\n      swap1\n      sstore\n        /* \"mc3coin.sol\":1567:1672  function removeAdmin(address _adminAddress) public onlyAdmin {... */\n      pop\n      jump\t// out\n        /* \"mc3coin.sol\":2378:2491  function sendToken(address _to, uint256 _amount) external onlyAdmin {... */\n    tag_26:\n        /* \"mc3coin.sol\":1779:1784  admin */\n      0x01\n        /* \"mc3coin.sol\":1779:1796  admin[msg.sender] */\n      0x00\n        /* \"mc3coin.sol\":1785:1795  msg.sender */\n      caller\n        /* \"mc3coin.sol\":1779:1796  admin[msg.sender] */\n      0xffffffffffffffffffffffffffffffffffffffff\n      and\n      0xffffffffffffffffffffffffffffffffffffffff\n      and\n      dup2\n      mstore\n      0x20\n      add\n      swap1\n      dup2\n      mstore\n      0x20\n      add\n      0x00\n      keccak256\n      0x00\n      swap1\n      sload\n      swap1\n      0x0100\n      exp\n      swap1\n      div\n      0xff\n      and\n        /* \"mc3coin.sol\":1771:1797  require(admin[msg.sender]) */\n      tag_63\n      jumpi\n      revert(0x00, 0x00)\n    tag_63:\n        /* \"mc3coin.sol\":2456:2461  token */\n      0x00\n      0x00\n      swap1\n      sload\n      swap1\n      0x0100\n      exp\n      swap1\n      div\n      0xffffffffffffffffffffffffffffffffffffffff\n      and\n        /* \"mc3coin.sol\":2456:2470  token.transfer */\n      0xffffffffffffffffffffffffffffffffffffffff\n      and\n      0xa9059cbb\n        /* \"mc3coin.sol\":2471:2474  _to */\n      dup4\n        /* \"mc3coin.sol\":2476:2483  _amount */\n      dup4\n        /* \"mc3coin.sol\":2456:2484  token.transfer(_to, _amount) */\n      mload(0x40)\n      dup4\n      0xffffffff\n      and\n      0xe0\n      shl\n      dup2\n      mstore\n      0x04\n      add\n      tag_65\n      swap3\n      swap2\n      swap1\n      tag_66\n      jump\t// in\n    tag_65:\n      0x20\n      mload(0x40)\n      dup1\n      dup4\n      sub\n      dup2\n      0x00\n      dup8\n      gas\n      call\n      iszero\n      dup1\n      iszero\n      tag_68\n      jumpi\n      returndatacopy(0x00, 0x00, returndatasize)\n      revert(0x00, returndatasize)\n    tag_68:\n      pop\n      pop\n      pop\n      pop\n      mload(0x40)\n      returndatasize\n      not(0x1f)\n      0x1f\n      dup3\n      add\n      and\n      dup3\n      add\n      dup1\n      0x40\n      mstore\n      pop\n      dup2\n      add\n      swap1\n      tag_69\n      swap2\n      swap1\n      tag_70\n      jump\t// in\n    tag_69:\n      pop\n        /* \"mc3coin.sol\":2378:2491  function sendToken(address _to, uint256 _amount) external onlyAdmin {... */\n      pop\n      pop\n      jump\t// out\n        /* \"mc3coin.sol\":1939:2105  function withdrawToken(uint256 _amount) external onlyAdmin {... */\n    tag_31:\n        /* \"mc3coin.sol\":1779:1784  admin */\n      0x01\n        /* \"mc3coin.sol\":1779:1796  admin[msg.sender] */\n      0x00\n        /* \"mc3coin.sol\":1785:1795  msg.sender */\n      caller\n        /* \"mc3coin.sol\":1779:1796  admin[msg.sender] */\n      0xffffffffffffffffffffffffffffffffffffffff\n      and\n      0xffffffffffffffffffffffffffffffffffffffff\n      and\n      dup2\n      mstore\n      0x20\n      add\n      swap1\n      dup2\n      mstore\n      0x20\n      add\n      0x00\n      keccak256\n      0x00\n      swap1\n      sload\n      swap1\n      0x0100\n      exp\n      swap1\n      div\n      0xff\n      and\n        /* \"mc3coin.sol\":1771:1797  require(admin[msg.sender]) */\n      tag_72\n      jumpi\n      revert(0x00, 0x00)\n    tag_72:\n        /* \"mc3coin.sol\":2063:2068  token */\n      0x00\n      0x00\n      swap1\n      sload\n      swap1\n      0x0100\n      exp\n      swap1\n      div\n      0xffffffffffffffffffffffffffffffffffffffff\n      and\n        /* \"mc3coin.sol\":2063:2077  token.transfer */\n      0xffffffffffffffffffffffffffffffffffffffff\n      and\n      0xa9059cbb\n        /* \"mc3coin.sol\":2078:2088  msg.sender */\n      caller\n        /* \"mc3coin.sol\":2090:2097  _amount */\n      dup4\n        /* \"mc3coin.sol\":2063:2098  token.transfer(msg.sender, _amount) */\n      mload(0x40)\n      dup4\n      0xffffffff\n      and\n      0xe0\n      shl\n      dup2\n      mstore\n      0x04\n      add\n      tag_74\n      swap3\n      swap2\n      swap1\n      tag_66\n      jump\t// in\n    tag_74:\n      0x20\n      mload(0x40)\n      dup1\n      dup4\n      sub\n      dup2\n      0x00\n      dup8\n      gas\n      call\n      iszero\n      dup1\n      iszero\n      tag_76\n      jumpi\n      returndatacopy(0x00, 0x00, returndatasize)\n      revert(0x00, returndatasize)\n    tag_76:\n      pop\n      pop\n      pop\n      pop\n      mload(0x40)\n      returndatasize\n      not(0x1f)\n      0x1f\n      dup3\n      add\n      and\n      dup3\n      add\n      dup1\n      0x40\n      mstore\n      pop\n      dup2\n      add\n      swap1\n      tag_77\n      swap2\n      swap1\n      tag_70\n      jump\t// in\n    tag_77:\n      pop\n        /* \"mc3coin.sol\":1939:2105  function withdrawToken(uint256 _amount) external onlyAdmin {... */\n      pop\n      jump\t// out\n        /* \"mc3coin.sol\":1375:1412  mapping(address => bool) public admin */\n    tag_35:\n      mstore(0x20, 0x01)\n      dup1\n      0x00\n      mstore\n      keccak256(0x00, 0x40)\n      0x00\n      swap2\n      pop\n      sload\n      swap1\n      0x0100\n      exp\n      swap1\n      div\n      0xff\n      and\n      dup2\n      jump\t// out\n        /* \"mc3coin.sol\":1423:1562  function addAdmin(address _adminAddress) public {... */\n    tag_41:\n        /* \"mc3coin.sol\":1513:1517  true */\n      0x01\n        /* \"mc3coin.sol\":1489:1517  admin[_adminAddress] != true */\n      iszero\n      iszero\n        /* \"mc3coin.sol\":1489:1494  admin */\n      0x01\n        /* \"mc3coin.sol\":1489:1509  admin[_adminAddress] */\n      0x00\n        /* \"mc3coin.sol\":1495:1508  _adminAddress */\n      dup4\n        /* \"mc3coin.sol\":1489:1509  admin[_adminAddress] */\n      0xffffffffffffffffffffffffffffffffffffffff\n      and\n      0xffffffffffffffffffffffffffffffffffffffff\n      and\n      dup2\n      mstore\n      0x20\n      add\n      swap1\n      dup2\n      mstore\n      0x20\n      add\n      0x00\n      keccak256\n      0x00\n      swap1\n      sload\n      swap1\n      0x0100\n      exp\n      swap1\n      div\n      0xff\n      and\n        /* \"mc3coin.sol\":1489:1517  admin[_adminAddress] != true */\n      iszero\n      iszero\n      sub\n        /* \"mc3coin.sol\":1481:1518  require(admin[_adminAddress] != true) */\n      tag_79\n      jumpi\n      revert(0x00, 0x00)\n    tag_79:\n        /* \"mc3coin.sol\":1551:1555  true */\n      0x01\n        /* \"mc3coin.sol\":1528:1533  admin */\n      dup1\n        /* \"mc3coin.sol\":1528:1548  admin[_adminAddress] */\n      0x00\n        /* \"mc3coin.sol\":1534:1547  _adminAddress */\n      dup4\n        /* \"mc3coin.sol\":1528:1548  admin[_adminAddress] */\n      0xffffffffffffffffffffffffffffffffffffffff\n      and\n      0xffffffffffffffffffffffffffffffffffffffff\n      and\n      dup2\n      mstore\n      0x20\n      add\n      swap1\n      dup2\n      mstore\n      0x20\n      add\n      0x00\n      keccak256\n      0x00\n        /* \"mc3coin.sol\":1528:1555  admin[_adminAddress] = true */\n      0x0100\n      exp\n      dup2\n      sload\n      dup2\n      0xff\n      mul\n      not\n      and\n      swap1\n      dup4\n      iszero\n      iszero\n      mul\n      or\n      swap1\n      sstore\n      pop\n        /* \"mc3coin.sol\":1423:1562  function addAdmin(address _adminAddress) public {... */\n      pop\n      jump\t// out\n        /* \"mc3coin.sol\":2948:3260  function buyToken() public payable returns(bool) {... */\n    tag_43:\n        /* \"mc3coin.sol\":2991:2995  bool */\n      0x00\n        /* \"mc3coin.sol\":3069:3088  uint256 token_value */\n      0x00\n        /* \"mc3coin.sol\":3150:3154  this */\n      address\n        /* \"mc3coin.sol\":3150:3181  this.EthToTokenConversionFactor */\n      0xffffffffffffffffffffffffffffffffffffffff\n      and\n      0xf862110f\n        /* \"mc3coin.sol\":3150:3183  this.EthToTokenConversionFactor() */\n      mload(0x40)\n      dup2\n      0xffffffff\n      and\n      0xe0\n      shl\n      dup2\n      mstore\n      0x04\n      add\n      0x20\n      mload(0x40)\n      dup1\n      dup4\n      sub\n      dup2\n      dup7\n      gas\n      staticcall\n      iszero\n      dup1\n      iszero\n      tag_82\n      jumpi\n      returndatacopy(0x00, 0x00, returndatasize)\n      revert(0x00, returndatasize)\n    tag_82:\n      pop\n      pop\n      pop\n      pop\n      mload(0x40)\n      returndatasize\n      not(0x1f)\n      0x1f\n      dup3\n      add\n      and\n      dup3\n      add\n      dup1\n      0x40\n      mstore\n      pop\n      dup2\n      add\n      swap1\n      tag_83\n      swap2\n      swap1\n      tag_58\n      jump\t// in\n    tag_83:\n        /* \"mc3coin.sol\":3091:3147  SafeMath.div(msg.value,  1 ether , \"Conversion error.\" ) */\n      tag_84\n        /* \"mc3coin.sol\":3104:3113  msg.value */\n      callvalue\n        /* \"mc3coin.sol\":3116:3123  1 ether */\n      0x0de0b6b3a7640000\n        /* \"mc3coin.sol\":3091:3147  SafeMath.div(msg.value,  1 ether , \"Conversion error.\" ) */\n      mload(0x40)\n      dup1\n      0x40\n      add\n      0x40\n      mstore\n      dup1\n      0x11\n      dup2\n      mstore\n      0x20\n      add\n      0x436f6e76657273696f6e206572726f722e000000000000000000000000000000\n      dup2\n      mstore\n      pop\n        /* \"mc3coin.sol\":3091:3103  SafeMath.div */\n      tag_85\n        /* \"mc3coin.sol\":3091:3147  SafeMath.div(msg.value,  1 ether , \"Conversion error.\" ) */\n      jump\t// in\n    tag_84:\n        /* \"mc3coin.sol\":3091:3183  SafeMath.div(msg.value,  1 ether , \"Conversion error.\" ) * this.EthToTokenConversionFactor() */\n      tag_86\n      swap2\n      swap1\n      tag_87\n      jump\t// in\n    tag_86:\n        /* \"mc3coin.sol\":3069:3183  uint256 token_value = SafeMath.div(msg.value,  1 ether , \"Conversion error.\" ) * this.EthToTokenConversionFactor() */\n      swap1\n      pop\n        /* \"mc3coin.sol\":3193:3198  token */\n      0x00\n      0x00\n      swap1\n      sload\n      swap1\n      0x0100\n      exp\n      swap1\n      div\n      0xffffffffffffffffffffffffffffffffffffffff\n      and\n        /* \"mc3coin.sol\":3193:3207  token.transfer */\n      0xffffffffffffffffffffffffffffffffffffffff\n      and\n      0xa9059cbb\n        /* \"mc3coin.sol\":3208:3218  msg.sender */\n      caller\n        /* \"mc3coin.sol\":3220:3231  token_value */\n      dup4\n        /* \"mc3coin.sol\":3193:3232  token.transfer(msg.sender, token_value) */\n      mload(0x40)\n      dup4\n      0xffffffff\n      and\n      0xe0\n      shl\n      dup2\n      mstore\n      0x04\n      add\n      tag_88\n      swap3\n      swap2\n      swap1\n      tag_66\n      jump\t// in\n    tag_88:\n      0x20\n      mload(0x40)\n      dup1\n      dup4\n      sub\n      dup2\n      0x00\n      dup8\n      gas\n      call\n      iszero\n      dup1\n      iszero\n      tag_90\n      jumpi\n      returndatacopy(0x00, 0x00, returndatasize)\n      revert(0x00, returndatasize)\n    tag_90:\n      pop\n      pop\n      pop\n      pop\n      mload(0x40)\n      returndatasize\n      not(0x1f)\n      0x1f\n      dup3\n      add\n      and\n      dup3\n      add\n      dup1\n      0x40\n      mstore\n      pop\n      dup2\n      add\n      swap1\n      tag_91\n      swap2\n      swap1\n      tag_70\n      jump\t// in\n    tag_91:\n      pop\n        /* \"mc3coin.sol\":3249:3253  true */\n      0x01\n        /* \"mc3coin.sol\":3242:3253  return true */\n      swap2\n      pop\n      pop\n        /* \"mc3coin.sol\":2948:3260  function buyToken() public payable returns(bool) {... */\n      swap1\n      jump\t// out\n        /* \"mc3coin.sol\":2111:2372  function withdrawEth(uint256 _amount) external payable onlyAdmin {... */\n    tag_47:\n        /* \"mc3coin.sol\":1779:1784  admin */\n      0x01\n        /* \"mc3coin.sol\":1779:1796  admin[msg.sender] */\n      0x00\n        /* \"mc3coin.sol\":1785:1795  msg.sender */\n      caller\n        /* \"mc3coin.sol\":1779:1796  admin[msg.sender] */\n      0xffffffffffffffffffffffffffffffffffffffff\n      and\n      0xffffffffffffffffffffffffffffffffffffffff\n      and\n      dup2\n      mstore\n      0x20\n      add\n      swap1\n      dup2\n      mstore\n      0x20\n      add\n      0x00\n      keccak256\n      0x00\n      swap1\n      sload\n      swap1\n      0x0100\n      exp\n      swap1\n      div\n      0xff\n      and\n        /* \"mc3coin.sol\":1771:1797  require(admin[msg.sender]) */\n      tag_93\n      jumpi\n      revert(0x00, 0x00)\n    tag_93:\n        /* \"mc3coin.sol\":2287:2294  _amount */\n      dup1\n        /* \"mc3coin.sol\":2263:2284  address(this).balance */\n      selfbalance\n        /* \"mc3coin.sol\":2263:2294  address(this).balance > _amount */\n      gt\n        /* \"mc3coin.sol\":2255:2318  require(address(this).balance > _amount, \"Insufficient funds!\") */\n      tag_95\n      jumpi\n      mload(0x40)\n      0x08c379a000000000000000000000000000000000000000000000000000000000\n      dup2\n      mstore\n      0x04\n      add\n      tag_96\n      swap1\n      tag_97\n      jump\t// in\n    tag_96:\n      mload(0x40)\n      dup1\n      swap2\n      sub\n      swap1\n      revert\n    tag_95:\n        /* \"mc3coin.sol\":2336:2346  msg.sender */\n      caller\n        /* \"mc3coin.sol\":2328:2356  payable(msg.sender).transfer */\n      0xffffffffffffffffffffffffffffffffffffffff\n      and\n        /* \"mc3coin.sol\":2328:2365  payable(msg.sender).transfer(_amount) */\n      0x08fc\n        /* \"mc3coin.sol\":2357:2364  _amount */\n      dup3\n        /* \"mc3coin.sol\":2328:2365  payable(msg.sender).transfer(_amount) */\n      swap1\n      dup2\n      iszero\n      mul\n      swap1\n      mload(0x40)\n      0x00\n      mload(0x40)\n      dup1\n      dup4\n      sub\n      dup2\n      dup6\n      dup9\n      dup9\n      call\n      swap4\n      pop\n      pop\n      pop\n      pop\n      iszero\n      dup1\n      iszero\n      tag_99\n      jumpi\n      returndatacopy(0x00, 0x00, returndatasize)\n      revert(0x00, returndatasize)\n    tag_99:\n      pop\n        /* \"mc3coin.sol\":2111:2372  function withdrawEth(uint256 _amount) external payable onlyAdmin {... */\n      pop\n      jump\t// out\n        /* \"mc3coin.sol\":2610:2942  function EthToTokenConversionFactor() external pure returns(uint256){... */\n    tag_50:\n        /* \"mc3coin.sol\":2670:2677  uint256 */\n      0x00\n        /* \"mc3coin.sol\":2934:2935  1 */\n      0x01\n        /* \"mc3coin.sol\":2927:2935  return 1 */\n      swap1\n      pop\n        /* \"mc3coin.sol\":2610:2942  function EthToTokenConversionFactor() external pure returns(uint256){... */\n      swap1\n      jump\t// out\n        /* \"@openzeppelin/contracts/utils/math/SafeMath.sol\":5644:5844  function div(uint256 a, uint256 b, string memory errorMessage) internal pure returns (uint256) {... */\n    tag_85:\n        /* \"@openzeppelin/contracts/utils/math/SafeMath.sol\":5730:5737  uint256 */\n      0x00\n        /* \"@openzeppelin/contracts/utils/math/SafeMath.sol\":5785:5786  0 */\n      0x00\n        /* \"@openzeppelin/contracts/utils/math/SafeMath.sol\":5781:5782  b */\n      dup4\n        /* \"@openzeppelin/contracts/utils/math/SafeMath.sol\":5781:5786  b > 0 */\n      gt\n        /* \"@openzeppelin/contracts/utils/math/SafeMath.sol\":5788:5800  errorMessage */\n      dup3\n        /* \"@openzeppelin/contracts/utils/math/SafeMath.sol\":5773:5801  require(b > 0, errorMessage) */\n      swap1\n      tag_102\n      jumpi\n      mload(0x40)\n      0x08c379a000000000000000000000000000000000000000000000000000000000\n      dup2\n      mstore\n      0x04\n      add\n      tag_103\n      swap2\n      swap1\n      tag_104\n      jump\t// in\n    tag_103:\n      mload(0x40)\n      dup1\n      swap2\n      sub\n      swap1\n      revert\n    tag_102:\n      pop\n        /* \"@openzeppelin/contracts/utils/math/SafeMath.sol\":5826:5827  b */\n      dup3\n        /* \"@openzeppelin/contracts/utils/math/SafeMath.sol\":5822:5823  a */\n      dup5\n        /* \"@openzeppelin/contracts/utils/math/SafeMath.sol\":5822:5827  a / b */\n      dup2\n      tag_105\n      jumpi\n      tag_106\n      tag_107\n      jump\t// in\n    tag_106:\n    tag_105:\n      div\n        /* \"@openzeppelin/contracts/utils/math/SafeMath.sol\":5815:5827  return a / b */\n      swap1\n      pop\n        /* \"@openzeppelin/contracts/utils/math/SafeMath.sol\":5644:5844  function div(uint256 a, uint256 b, string memory errorMessage) internal pure returns (uint256) {... */\n      swap4\n      swap3\n      pop\n      pop\n      pop\n      jump\t// out\n        /* \"#utility.yul\":7:84   */\n    tag_108:\n        /* \"#utility.yul\":44:51   */\n      0x00\n        /* \"#utility.yul\":73:78   */\n      dup2\n        /* \"#utility.yul\":62:78   */\n      swap1\n      pop\n        /* \"#utility.yul\":7:84   */\n      swap2\n      swap1\n      pop\n      jump\t// out\n        /* \"#utility.yul\":90:208   */\n    tag_109:\n        /* \"#utility.yul\":177:201   */\n      tag_136\n        /* \"#utility.yul\":195:200   */\n      dup2\n        /* \"#utility.yul\":177:201   */\n      tag_108\n      jump\t// in\n    tag_136:\n        /* \"#utility.yul\":172:175   */\n      dup3\n        /* \"#utility.yul\":165:202   */\n      mstore\n        /* \"#utility.yul\":90:208   */\n      pop\n      pop\n      jump\t// out\n        /* \"#utility.yul\":214:436   */\n    tag_16:\n        /* \"#utility.yul\":307:311   */\n      0x00\n        /* \"#utility.yul\":345:347   */\n      0x20\n        /* \"#utility.yul\":334:343   */\n      dup3\n        /* \"#utility.yul\":330:348   */\n      add\n        /* \"#utility.yul\":322:348   */\n      swap1\n      pop\n        /* \"#utility.yul\":358:429   */\n      tag_138\n        /* \"#utility.yul\":426:427   */\n      0x00\n        /* \"#utility.yul\":415:424   */\n      dup4\n        /* \"#utility.yul\":411:428   */\n      add\n        /* \"#utility.yul\":402:408   */\n      dup5\n        /* \"#utility.yul\":358:429   */\n      tag_109\n      jump\t// in\n    tag_138:\n        /* \"#utility.yul\":214:436   */\n      swap3\n      swap2\n      pop\n      pop\n      jump\t// out\n        /* \"#utility.yul\":523:640   */\n    tag_111:\n        /* \"#utility.yul\":632:633   */\n      0x00\n        /* \"#utility.yul\":629:630   */\n      0x00\n        /* \"#utility.yul\":622:634   */\n      revert\n        /* \"#utility.yul\":769:895   */\n    tag_113:\n        /* \"#utility.yul\":806:813   */\n      0x00\n        /* \"#utility.yul\":846:888   */\n      0xffffffffffffffffffffffffffffffffffffffff\n        /* \"#utility.yul\":839:844   */\n      dup3\n        /* \"#utility.yul\":835:889   */\n      and\n        /* \"#utility.yul\":824:889   */\n      swap1\n      pop\n        /* \"#utility.yul\":769:895   */\n      swap2\n      swap1\n      pop\n      jump\t// out\n        /* \"#utility.yul\":901:997   */\n    tag_114:\n        /* \"#utility.yul\":938:945   */\n      0x00\n        /* \"#utility.yul\":967:991   */\n      tag_144\n        /* \"#utility.yul\":985:990   */\n      dup3\n        /* \"#utility.yul\":967:991   */\n      tag_113\n      jump\t// in\n    tag_144:\n        /* \"#utility.yul\":956:991   */\n      swap1\n      pop\n        /* \"#utility.yul\":901:997   */\n      swap2\n      swap1\n      pop\n      jump\t// out\n        /* \"#utility.yul\":1003:1125   */\n    tag_115:\n        /* \"#utility.yul\":1076:1100   */\n      tag_146\n        /* \"#utility.yul\":1094:1099   */\n      dup2\n        /* \"#utility.yul\":1076:1100   */\n      tag_114\n      jump\t// in\n    tag_146:\n        /* \"#utility.yul\":1069:1074   */\n      dup2\n        /* \"#utility.yul\":1066:1101   */\n      eq\n        /* \"#utility.yul\":1056:1119   */\n      tag_147\n      jumpi\n        /* \"#utility.yul\":1115:1116   */\n      0x00\n        /* \"#utility.yul\":1112:1113   */\n      0x00\n        /* \"#utility.yul\":1105:1117   */\n      revert\n        /* \"#utility.yul\":1056:1119   */\n    tag_147:\n        /* \"#utility.yul\":1003:1125   */\n      pop\n      jump\t// out\n        /* \"#utility.yul\":1131:1270   */\n    tag_116:\n        /* \"#utility.yul\":1177:1182   */\n      0x00\n        /* \"#utility.yul\":1215:1221   */\n      dup2\n        /* \"#utility.yul\":1202:1222   */\n      calldataload\n        /* \"#utility.yul\":1193:1222   */\n      swap1\n      pop\n        /* \"#utility.yul\":1231:1264   */\n      tag_149\n        /* \"#utility.yul\":1258:1263   */\n      dup2\n        /* \"#utility.yul\":1231:1264   */\n      tag_115\n      jump\t// in\n    tag_149:\n        /* \"#utility.yul\":1131:1270   */\n      swap3\n      swap2\n      pop\n      pop\n      jump\t// out\n        /* \"#utility.yul\":1276:1605   */\n    tag_20:\n        /* \"#utility.yul\":1335:1341   */\n      0x00\n        /* \"#utility.yul\":1384:1386   */\n      0x20\n        /* \"#utility.yul\":1372:1381   */\n      dup3\n        /* \"#utility.yul\":1363:1370   */\n      dup5\n        /* \"#utility.yul\":1359:1382   */\n      sub\n        /* \"#utility.yul\":1355:1387   */\n      slt\n        /* \"#utility.yul\":1352:1471   */\n      iszero\n      tag_151\n      jumpi\n        /* \"#utility.yul\":1390:1469   */\n      tag_152\n      tag_111\n      jump\t// in\n    tag_152:\n        /* \"#utility.yul\":1352:1471   */\n    tag_151:\n        /* \"#utility.yul\":1510:1511   */\n      0x00\n        /* \"#utility.yul\":1535:1588   */\n      tag_153\n        /* \"#utility.yul\":1580:1587   */\n      dup5\n        /* \"#utility.yul\":1571:1577   */\n      dup3\n        /* \"#utility.yul\":1560:1569   */\n      dup6\n        /* \"#utility.yul\":1556:1578   */\n      add\n        /* \"#utility.yul\":1535:1588   */\n      tag_116\n      jump\t// in\n    tag_153:\n        /* \"#utility.yul\":1525:1588   */\n      swap2\n      pop\n        /* \"#utility.yul\":1481:1598   */\n      pop\n        /* \"#utility.yul\":1276:1605   */\n      swap3\n      swap2\n      pop\n      pop\n      jump\t// out\n        /* \"#utility.yul\":1611:1733   */\n    tag_117:\n        /* \"#utility.yul\":1684:1708   */\n      tag_155\n        /* \"#utility.yul\":1702:1707   */\n      dup2\n        /* \"#utility.yul\":1684:1708   */\n      tag_108\n      jump\t// in\n    tag_155:\n        /* \"#utility.yul\":1677:1682   */\n      dup2\n        /* \"#utility.yul\":1674:1709   */\n      eq\n        /* \"#utility.yul\":1664:1727   */\n      tag_156\n      jumpi\n        /* \"#utility.yul\":1723:1724   */\n      0x00\n        /* \"#utility.yul\":1720:1721   */\n      0x00\n        /* \"#utility.yul\":1713:1725   */\n      revert\n        /* \"#utility.yul\":1664:1727   */\n    tag_156:\n        /* \"#utility.yul\":1611:1733   */\n      pop\n      jump\t// out\n        /* \"#utility.yul\":1739:1878   */\n    tag_118:\n        /* \"#utility.yul\":1785:1790   */\n      0x00\n        /* \"#utility.yul\":1823:1829   */\n      dup2\n        /* \"#utility.yul\":1810:1830   */\n      calldataload\n        /* \"#utility.yul\":1801:1830   */\n      swap1\n      pop\n        /* \"#utility.yul\":1839:1872   */\n      tag_158\n        /* \"#utility.yul\":1866:1871   */\n      dup2\n        /* \"#utility.yul\":1839:1872   */\n      tag_117\n      jump\t// in\n    tag_158:\n        /* \"#utility.yul\":1739:1878   */\n      swap3\n      swap2\n      pop\n      pop\n      jump\t// out\n        /* \"#utility.yul\":1884:2358   */\n    tag_25:\n        /* \"#utility.yul\":1952:1958   */\n      0x00\n        /* \"#utility.yul\":1960:1966   */\n      0x00\n        /* \"#utility.yul\":2009:2011   */\n      0x40\n        /* \"#utility.yul\":1997:2006   */\n      dup4\n        /* \"#utility.yul\":1988:1995   */\n      dup6\n        /* \"#utility.yul\":1984:2007   */\n      sub\n        /* \"#utility.yul\":1980:2012   */\n      slt\n        /* \"#utility.yul\":1977:2096   */\n      iszero\n      tag_160\n      jumpi\n        /* \"#utility.yul\":2015:2094   */\n      tag_161\n      tag_111\n      jump\t// in\n    tag_161:\n        /* \"#utility.yul\":1977:2096   */\n    tag_160:\n        /* \"#utility.yul\":2135:2136   */\n      0x00\n        /* \"#utility.yul\":2160:2213   */\n      tag_162\n        /* \"#utility.yul\":2205:2212   */\n      dup6\n        /* \"#utility.yul\":2196:2202   */\n      dup3\n        /* \"#utility.yul\":2185:2194   */\n      dup7\n        /* \"#utility.yul\":2181:2203   */\n      add\n        /* \"#utility.yul\":2160:2213   */\n      tag_116\n      jump\t// in\n    tag_162:\n        /* \"#utility.yul\":2150:2213   */\n      swap3\n      pop\n        /* \"#utility.yul\":2106:2223   */\n      pop\n        /* \"#utility.yul\":2262:2264   */\n      0x20\n        /* \"#utility.yul\":2288:2341   */\n      tag_163\n        /* \"#utility.yul\":2333:2340   */\n      dup6\n        /* \"#utility.yul\":2324:2330   */\n      dup3\n        /* \"#utility.yul\":2313:2322   */\n      dup7\n        /* \"#utility.yul\":2309:2331   */\n      add\n        /* \"#utility.yul\":2288:2341   */\n      tag_118\n      jump\t// in\n    tag_163:\n        /* \"#utility.yul\":2278:2341   */\n      swap2\n      pop\n        /* \"#utility.yul\":2233:2351   */\n      pop\n        /* \"#utility.yul\":1884:2358   */\n      swap3\n      pop\n      swap3\n      swap1\n      pop\n      jump\t// out\n        /* \"#utility.yul\":2364:2693   */\n    tag_30:\n        /* \"#utility.yul\":2423:2429   */\n      0x00\n        /* \"#utility.yul\":2472:2474   */\n      0x20\n        /* \"#utility.yul\":2460:2469   */\n      dup3\n        /* \"#utility.yul\":2451:2458   */\n      dup5\n        /* \"#utility.yul\":2447:2470   */\n      sub\n        /* \"#utility.yul\":2443:2475   */\n      slt\n        /* \"#utility.yul\":2440:2559   */\n      iszero\n      tag_165\n      jumpi\n        /* \"#utility.yul\":2478:2557   */\n      tag_166\n      tag_111\n      jump\t// in\n    tag_166:\n        /* \"#utility.yul\":2440:2559   */\n    tag_165:\n        /* \"#utility.yul\":2598:2599   */\n      0x00\n        /* \"#utility.yul\":2623:2676   */\n      tag_167\n        /* \"#utility.yul\":2668:2675   */\n      dup5\n        /* \"#utility.yul\":2659:2665   */\n      dup3\n        /* \"#utility.yul\":2648:2657   */\n      dup6\n        /* \"#utility.yul\":2644:2666   */\n      add\n        /* \"#utility.yul\":2623:2676   */\n      tag_118\n      jump\t// in\n    tag_167:\n        /* \"#utility.yul\":2613:2676   */\n      swap2\n      pop\n        /* \"#utility.yul\":2569:2686   */\n      pop\n        /* \"#utility.yul\":2364:2693   */\n      swap3\n      swap2\n      pop\n      pop\n      jump\t// out\n        /* \"#utility.yul\":2699:2789   */\n    tag_119:\n        /* \"#utility.yul\":2733:2740   */\n      0x00\n        /* \"#utility.yul\":2776:2781   */\n      dup2\n        /* \"#utility.yul\":2769:2782   */\n      iszero\n        /* \"#utility.yul\":2762:2783   */\n      iszero\n        /* \"#utility.yul\":2751:2783   */\n      swap1\n      pop\n        /* \"#utility.yul\":2699:2789   */\n      swap2\n      swap1\n      pop\n      jump\t// out\n        /* \"#utility.yul\":2795:2904   */\n    tag_120:\n        /* \"#utility.yul\":2876:2897   */\n      tag_170\n        /* \"#utility.yul\":2891:2896   */\n      dup2\n        /* \"#utility.yul\":2876:2897   */\n      tag_119\n      jump\t// in\n    tag_170:\n        /* \"#utility.yul\":2871:2874   */\n      dup3\n        /* \"#utility.yul\":2864:2898   */\n      mstore\n        /* \"#utility.yul\":2795:2904   */\n      pop\n      pop\n      jump\t// out\n        /* \"#utility.yul\":2910:3120   */\n    tag_37:\n        /* \"#utility.yul\":2997:3001   */\n      0x00\n        /* \"#utility.yul\":3035:3037   */\n      0x20\n        /* \"#utility.yul\":3024:3033   */\n      dup3\n        /* \"#utility.yul\":3020:3038   */\n      add\n        /* \"#utility.yul\":3012:3038   */\n      swap1\n      pop\n        /* \"#utility.yul\":3048:3113   */\n      tag_172\n        /* \"#utility.yul\":3110:3111   */\n      0x00\n        /* \"#utility.yul\":3099:3108   */\n      dup4\n        /* \"#utility.yul\":3095:3112   */\n      add\n        /* \"#utility.yul\":3086:3092   */\n      dup5\n        /* \"#utility.yul\":3048:3113   */\n      tag_120\n      jump\t// in\n    tag_172:\n        /* \"#utility.yul\":2910:3120   */\n      swap3\n      swap2\n      pop\n      pop\n      jump\t// out\n        /* \"#utility.yul\":3126:3244   */\n    tag_121:\n        /* \"#utility.yul\":3213:3237   */\n      tag_174\n        /* \"#utility.yul\":3231:3236   */\n      dup2\n        /* \"#utility.yul\":3213:3237   */\n      tag_114\n      jump\t// in\n    tag_174:\n        /* \"#utility.yul\":3208:3211   */\n      dup3\n        /* \"#utility.yul\":3201:3238   */\n      mstore\n        /* \"#utility.yul\":3126:3244   */\n      pop\n      pop\n      jump\t// out\n        /* \"#utility.yul\":3250:3472   */\n    tag_54:\n        /* \"#utility.yul\":3343:3347   */\n      0x00\n        /* \"#utility.yul\":3381:3383   */\n      0x20\n        /* \"#utility.yul\":3370:3379   */\n      dup3\n        /* \"#utility.yul\":3366:3384   */\n      add\n        /* \"#utility.yul\":3358:3384   */\n      swap1\n      pop\n        /* \"#utility.yul\":3394:3465   */\n      tag_176\n        /* \"#utility.yul\":3462:3463   */\n      0x00\n        /* \"#utility.yul\":3451:3460   */\n      dup4\n        /* \"#utility.yul\":3447:3464   */\n      add\n        /* \"#utility.yul\":3438:3444   */\n      dup5\n        /* \"#utility.yul\":3394:3465   */\n      tag_121\n      jump\t// in\n    tag_176:\n        /* \"#utility.yul\":3250:3472   */\n      swap3\n      swap2\n      pop\n      pop\n      jump\t// out\n        /* \"#utility.yul\":3478:3621   */\n    tag_122:\n        /* \"#utility.yul\":3535:3540   */\n      0x00\n        /* \"#utility.yul\":3566:3572   */\n      dup2\n        /* \"#utility.yul\":3560:3573   */\n      mload\n        /* \"#utility.yul\":3551:3573   */\n      swap1\n      pop\n        /* \"#utility.yul\":3582:3615   */\n      tag_178\n        /* \"#utility.yul\":3609:3614   */\n      dup2\n        /* \"#utility.yul\":3582:3615   */\n      tag_117\n      jump\t// in\n    tag_178:\n        /* \"#utility.yul\":3478:3621   */\n      swap3\n      swap2\n      pop\n      pop\n      jump\t// out\n        /* \"#utility.yul\":3627:3978   */\n    tag_58:\n        /* \"#utility.yul\":3697:3703   */\n      0x00\n        /* \"#utility.yul\":3746:3748   */\n      0x20\n        /* \"#utility.yul\":3734:3743   */\n      dup3\n        /* \"#utility.yul\":3725:3732   */\n      dup5\n        /* \"#utility.yul\":3721:3744   */\n      sub\n        /* \"#utility.yul\":3717:3749   */\n      slt\n        /* \"#utility.yul\":3714:3833   */\n      iszero\n      tag_180\n      jumpi\n        /* \"#utility.yul\":3752:3831   */\n      tag_181\n      tag_111\n      jump\t// in\n    tag_181:\n        /* \"#utility.yul\":3714:3833   */\n    tag_180:\n        /* \"#utility.yul\":3872:3873   */\n      0x00\n        /* \"#utility.yul\":3897:3961   */\n      tag_182\n        /* \"#utility.yul\":3953:3960   */\n      dup5\n        /* \"#utility.yul\":3944:3950   */\n      dup3\n        /* \"#utility.yul\":3933:3942   */\n      dup6\n        /* \"#utility.yul\":3929:3951   */\n      add\n        /* \"#utility.yul\":3897:3961   */\n      tag_122\n      jump\t// in\n    tag_182:\n        /* \"#utility.yul\":3887:3961   */\n      swap2\n      pop\n        /* \"#utility.yul\":3843:3971   */\n      pop\n        /* \"#utility.yul\":3627:3978   */\n      swap3\n      swap2\n      pop\n      pop\n      jump\t// out\n        /* \"#utility.yul\":3984:4316   */\n    tag_66:\n        /* \"#utility.yul\":4105:4109   */\n      0x00\n        /* \"#utility.yul\":4143:4145   */\n      0x40\n        /* \"#utility.yul\":4132:4141   */\n      dup3\n        /* \"#utility.yul\":4128:4146   */\n      add\n        /* \"#utility.yul\":4120:4146   */\n      swap1\n      pop\n        /* \"#utility.yul\":4156:4227   */\n      tag_184\n        /* \"#utility.yul\":4224:4225   */\n      0x00\n        /* \"#utility.yul\":4213:4222   */\n      dup4\n        /* \"#utility.yul\":4209:4226   */\n      add\n        /* \"#utility.yul\":4200:4206   */\n      dup6\n        /* \"#utility.yul\":4156:4227   */\n      tag_121\n      jump\t// in\n    tag_184:\n        /* \"#utility.yul\":4237:4309   */\n      tag_185\n        /* \"#utility.yul\":4305:4307   */\n      0x20\n        /* \"#utility.yul\":4294:4303   */\n      dup4\n        /* \"#utility.yul\":4290:4308   */\n      add\n        /* \"#utility.yul\":4281:4287   */\n      dup5\n        /* \"#utility.yul\":4237:4309   */\n      tag_109\n      jump\t// in\n    tag_185:\n        /* \"#utility.yul\":3984:4316   */\n      swap4\n      swap3\n      pop\n      pop\n      pop\n      jump\t// out\n        /* \"#utility.yul\":4322:4438   */\n    tag_123:\n        /* \"#utility.yul\":4392:4413   */\n      tag_187\n        /* \"#utility.yul\":4407:4412   */\n      dup2\n        /* \"#utility.yul\":4392:4413   */\n      tag_119\n      jump\t// in\n    tag_187:\n        /* \"#utility.yul\":4385:4390   */\n      dup2\n        /* \"#utility.yul\":4382:4414   */\n      eq\n        /* \"#utility.yul\":4372:4432   */\n      tag_188\n      jumpi\n        /* \"#utility.yul\":4428:4429   */\n      0x00\n        /* \"#utility.yul\":4425:4426   */\n      0x00\n        /* \"#utility.yul\":4418:4430   */\n      revert\n        /* \"#utility.yul\":4372:4432   */\n    tag_188:\n        /* \"#utility.yul\":4322:4438   */\n      pop\n      jump\t// out\n        /* \"#utility.yul\":4444:4581   */\n    tag_124:\n        /* \"#utility.yul\":4498:4503   */\n      0x00\n        /* \"#utility.yul\":4529:4535   */\n      dup2\n        /* \"#utility.yul\":4523:4536   */\n      mload\n        /* \"#utility.yul\":4514:4536   */\n      swap1\n      pop\n        /* \"#utility.yul\":4545:4575   */\n      tag_190\n        /* \"#utility.yul\":4569:4574   */\n      dup2\n        /* \"#utility.yul\":4545:4575   */\n      tag_123\n      jump\t// in\n    tag_190:\n        /* \"#utility.yul\":4444:4581   */\n      swap3\n      swap2\n      pop\n      pop\n      jump\t// out\n        /* \"#utility.yul\":4587:4932   */\n    tag_70:\n        /* \"#utility.yul\":4654:4660   */\n      0x00\n        /* \"#utility.yul\":4703:4705   */\n      0x20\n        /* \"#utility.yul\":4691:4700   */\n      dup3\n        /* \"#utility.yul\":4682:4689   */\n      dup5\n        /* \"#utility.yul\":4678:4701   */\n      sub\n        /* \"#utility.yul\":4674:4706   */\n      slt\n        /* \"#utility.yul\":4671:4790   */\n      iszero\n      tag_192\n      jumpi\n        /* \"#utility.yul\":4709:4788   */\n      tag_193\n      tag_111\n      jump\t// in\n    tag_193:\n        /* \"#utility.yul\":4671:4790   */\n    tag_192:\n        /* \"#utility.yul\":4829:4830   */\n      0x00\n        /* \"#utility.yul\":4854:4915   */\n      tag_194\n        /* \"#utility.yul\":4907:4914   */\n      dup5\n        /* \"#utility.yul\":4898:4904   */\n      dup3\n        /* \"#utility.yul\":4887:4896   */\n      dup6\n        /* \"#utility.yul\":4883:4905   */\n      add\n        /* \"#utility.yul\":4854:4915   */\n      tag_124\n      jump\t// in\n    tag_194:\n        /* \"#utility.yul\":4844:4915   */\n      swap2\n      pop\n        /* \"#utility.yul\":4800:4925   */\n      pop\n        /* \"#utility.yul\":4587:4932   */\n      swap3\n      swap2\n      pop\n      pop\n      jump\t// out\n        /* \"#utility.yul\":4938:5118   */\n    tag_125:\n        /* \"#utility.yul\":4986:5063   */\n      0x4e487b7100000000000000000000000000000000000000000000000000000000\n        /* \"#utility.yul\":4983:4984   */\n      0x00\n        /* \"#utility.yul\":4976:5064   */\n      mstore\n        /* \"#utility.yul\":5083:5087   */\n      0x11\n        /* \"#utility.yul\":5080:5081   */\n      0x04\n        /* \"#utility.yul\":5073:5088   */\n      mstore\n        /* \"#utility.yul\":5107:5111   */\n      0x24\n        /* \"#utility.yul\":5104:5105   */\n      0x00\n        /* \"#utility.yul\":5097:5112   */\n      revert\n        /* \"#utility.yul\":5124:5534   */\n    tag_87:\n        /* \"#utility.yul\":5164:5171   */\n      0x00\n        /* \"#utility.yul\":5187:5207   */\n      tag_197\n        /* \"#utility.yul\":5205:5206   */\n      dup3\n        /* \"#utility.yul\":5187:5207   */\n      tag_108\n      jump\t// in\n    tag_197:\n        /* \"#utility.yul\":5182:5207   */\n      swap2\n      pop\n        /* \"#utility.yul\":5221:5241   */\n      tag_198\n        /* \"#utility.yul\":5239:5240   */\n      dup4\n        /* \"#utility.yul\":5221:5241   */\n      tag_108\n      jump\t// in\n    tag_198:\n        /* \"#utility.yul\":5216:5241   */\n      swap3\n      pop\n        /* \"#utility.yul\":5276:5277   */\n      dup3\n        /* \"#utility.yul\":5273:5274   */\n      dup3\n        /* \"#utility.yul\":5269:5278   */\n      mul\n        /* \"#utility.yul\":5298:5328   */\n      tag_199\n        /* \"#utility.yul\":5316:5327   */\n      dup2\n        /* \"#utility.yul\":5298:5328   */\n      tag_108\n      jump\t// in\n    tag_199:\n        /* \"#utility.yul\":5287:5328   */\n      swap2\n      pop\n        /* \"#utility.yul\":5477:5478   */\n      dup3\n        /* \"#utility.yul\":5468:5475   */\n      dup3\n        /* \"#utility.yul\":5464:5479   */\n      div\n        /* \"#utility.yul\":5461:5462   */\n      dup5\n        /* \"#utility.yul\":5458:5480   */\n      eq\n        /* \"#utility.yul\":5438:5439   */\n      dup4\n        /* \"#utility.yul\":5431:5440   */\n      iszero\n        /* \"#utility.yul\":5411:5494   */\n      or\n        /* \"#utility.yul\":5388:5527   */\n      tag_200\n      jumpi\n        /* \"#utility.yul\":5507:5525   */\n      tag_201\n      tag_125\n      jump\t// in\n    tag_201:\n        /* \"#utility.yul\":5388:5527   */\n    tag_200:\n        /* \"#utility.yul\":5172:5534   */\n      pop\n        /* \"#utility.yul\":5124:5534   */\n      swap3\n      swap2\n      pop\n      pop\n      jump\t// out\n        /* \"#utility.yul\":5540:5709   */\n    tag_126:\n        /* \"#utility.yul\":5624:5635   */\n      0x00\n        /* \"#utility.yul\":5658:5664   */\n      dup3\n        /* \"#utility.yul\":5653:5656   */\n      dup3\n        /* \"#utility.yul\":5646:5665   */\n      mstore\n        /* \"#utility.yul\":5698:5702   */\n      0x20\n        /* \"#utility.yul\":5693:5696   */\n      dup3\n        /* \"#utility.yul\":5689:5703   */\n      add\n        /* \"#utility.yul\":5674:5703   */\n      swap1\n      pop\n        /* \"#utility.yul\":5540:5709   */\n      swap3\n      swap2\n      pop\n      pop\n      jump\t// out\n        /* \"#utility.yul\":5715:5884   */\n    tag_127:\n        /* \"#utility.yul\":5855:5876   */\n      0x496e73756666696369656e742066756e64732100000000000000000000000000\n        /* \"#utility.yul\":5851:5852   */\n      0x00\n        /* \"#utility.yul\":5843:5849   */\n      dup3\n        /* \"#utility.yul\":5839:5853   */\n      add\n        /* \"#utility.yul\":5832:5877   */\n      mstore\n        /* \"#utility.yul\":5715:5884   */\n      pop\n      jump\t// out\n        /* \"#utility.yul\":5890:6256   */\n    tag_128:\n        /* \"#utility.yul\":6032:6035   */\n      0x00\n        /* \"#utility.yul\":6053:6120   */\n      tag_205\n        /* \"#utility.yul\":6117:6119   */\n      0x13\n        /* \"#utility.yul\":6112:6115   */\n      dup4\n        /* \"#utility.yul\":6053:6120   */\n      tag_126\n      jump\t// in\n    tag_205:\n        /* \"#utility.yul\":6046:6120   */\n      swap2\n      pop\n        /* \"#utility.yul\":6129:6222   */\n      tag_206\n        /* \"#utility.yul\":6218:6221   */\n      dup3\n        /* \"#utility.yul\":6129:6222   */\n      tag_127\n      jump\t// in\n    tag_206:\n        /* \"#utility.yul\":6247:6249   */\n      0x20\n        /* \"#utility.yul\":6242:6245   */\n      dup3\n        /* \"#utility.yul\":6238:6250   */\n      add\n        /* \"#utility.yul\":6231:6250   */\n      swap1\n      pop\n        /* \"#utility.yul\":5890:6256   */\n      swap2\n      swap1\n      pop\n      jump\t// out\n        /* \"#utility.yul\":6262:6681   */\n    tag_97:\n        /* \"#utility.yul\":6428:6432   */\n      0x00\n        /* \"#utility.yul\":6466:6468   */\n      0x20\n        /* \"#utility.yul\":6455:6464   */\n      dup3\n        /* \"#utility.yul\":6451:6469   */\n      add\n        /* \"#utility.yul\":6443:6469   */\n      swap1\n      pop\n        /* \"#utility.yul\":6515:6524   */\n      dup2\n        /* \"#utility.yul\":6509:6513   */\n      dup2\n        /* \"#utility.yul\":6505:6525   */\n      sub\n        /* \"#utility.yul\":6501:6502   */\n      0x00\n        /* \"#utility.yul\":6490:6499   */\n      dup4\n        /* \"#utility.yul\":6486:6503   */\n      add\n        /* \"#utility.yul\":6479:6526   */\n      mstore\n        /* \"#utility.yul\":6543:6674   */\n      tag_208\n        /* \"#utility.yul\":6669:6673   */\n      dup2\n        /* \"#utility.yul\":6543:6674   */\n      tag_128\n      jump\t// in\n    tag_208:\n        /* \"#utility.yul\":6535:6674   */\n      swap1\n      pop\n        /* \"#utility.yul\":6262:6681   */\n      swap2\n      swap1\n      pop\n      jump\t// out\n        /* \"#utility.yul\":6687:6786   */\n    tag_129:\n        /* \"#utility.yul\":6739:6745   */\n      0x00\n        /* \"#utility.yul\":6773:6778   */\n      dup2\n        /* \"#utility.yul\":6767:6779   */\n      mload\n        /* \"#utility.yul\":6757:6779   */\n      swap1\n      pop\n        /* \"#utility.yul\":6687:6786   */\n      swap2\n      swap1\n      pop\n      jump\t// out\n        /* \"#utility.yul\":6792:6931   */\n    tag_130:\n        /* \"#utility.yul\":6881:6887   */\n      dup3\n        /* \"#utility.yul\":6876:6879   */\n      dup2\n        /* \"#utility.yul\":6871:6874   */\n      dup4\n        /* \"#utility.yul\":6865:6888   */\n      mcopy\n        /* \"#utility.yul\":6922:6923   */\n      0x00\n        /* \"#utility.yul\":6913:6919   */\n      dup4\n        /* \"#utility.yul\":6908:6911   */\n      dup4\n        /* \"#utility.yul\":6904:6920   */\n      add\n        /* \"#utility.yul\":6897:6924   */\n      mstore\n        /* \"#utility.yul\":6792:6931   */\n      pop\n      pop\n      pop\n      jump\t// out\n        /* \"#utility.yul\":6937:7039   */\n    tag_131:\n        /* \"#utility.yul\":6978:6984   */\n      0x00\n        /* \"#utility.yul\":7029:7031   */\n      0x1f\n        /* \"#utility.yul\":7025:7032   */\n      not\n        /* \"#utility.yul\":7020:7022   */\n      0x1f\n        /* \"#utility.yul\":7013:7018   */\n      dup4\n        /* \"#utility.yul\":7009:7023   */\n      add\n        /* \"#utility.yul\":7005:7033   */\n      and\n        /* \"#utility.yul\":6995:7033   */\n      swap1\n      pop\n        /* \"#utility.yul\":6937:7039   */\n      swap2\n      swap1\n      pop\n      jump\t// out\n        /* \"#utility.yul\":7045:7422   */\n    tag_132:\n        /* \"#utility.yul\":7133:7136   */\n      0x00\n        /* \"#utility.yul\":7161:7200   */\n      tag_213\n        /* \"#utility.yul\":7194:7199   */\n      dup3\n        /* \"#utility.yul\":7161:7200   */\n      tag_129\n      jump\t// in\n    tag_213:\n        /* \"#utility.yul\":7216:7287   */\n      tag_214\n        /* \"#utility.yul\":7280:7286   */\n      dup2\n        /* \"#utility.yul\":7275:7278   */\n      dup6\n        /* \"#utility.yul\":7216:7287   */\n      tag_126\n      jump\t// in\n    tag_214:\n        /* \"#utility.yul\":7209:7287   */\n      swap4\n      pop\n        /* \"#utility.yul\":7296:7361   */\n      tag_215\n        /* \"#utility.yul\":7354:7360   */\n      dup2\n        /* \"#utility.yul\":7349:7352   */\n      dup6\n        /* \"#utility.yul\":7342:7346   */\n      0x20\n        /* \"#utility.yul\":7335:7340   */\n      dup7\n        /* \"#utility.yul\":7331:7347   */\n      add\n        /* \"#utility.yul\":7296:7361   */\n      tag_130\n      jump\t// in\n    tag_215:\n        /* \"#utility.yul\":7386:7415   */\n      tag_216\n        /* \"#utility.yul\":7408:7414   */\n      dup2\n        /* \"#utility.yul\":7386:7415   */\n      tag_131\n      jump\t// in\n    tag_216:\n        /* \"#utility.yul\":7381:7384   */\n      dup5\n        /* \"#utility.yul\":7377:7416   */\n      add\n        /* \"#utility.yul\":7370:7416   */\n      swap2\n      pop\n        /* \"#utility.yul\":7137:7422   */\n      pop\n        /* \"#utility.yul\":7045:7422   */\n      swap3\n      swap2\n      pop\n      pop\n      jump\t// out\n        /* \"#utility.yul\":7428:7741   */\n    tag_104:\n        /* \"#utility.yul\":7541:7545   */\n      0x00\n        /* \"#utility.yul\":7579:7581   */\n      0x20\n        /* \"#utility.yul\":7568:7577   */\n      dup3\n        /* \"#utility.yul\":7564:7582   */\n      add\n        /* \"#utility.yul\":7556:7582   */\n      swap1\n      pop\n        /* \"#utility.yul\":7628:7637   */\n      dup2\n        /* \"#utility.yul\":7622:7626   */\n      dup2\n        /* \"#utility.yul\":7618:7638   */\n      sub\n        /* \"#utility.yul\":7614:7615   */\n      0x00\n        /* \"#utility.yul\":7603:7612   */\n      dup4\n        /* \"#utility.yul\":7599:7616   */\n      add\n        /* \"#utility.yul\":7592:7639   */\n      mstore\n        /* \"#utility.yul\":7656:7734   */\n      tag_218\n        /* \"#utility.yul\":7729:7733   */\n      dup2\n        /* \"#utility.yul\":7720:7726   */\n      dup5\n        /* \"#utility.yul\":7656:7734   */\n      tag_132\n      jump\t// in\n    tag_218:\n        /* \"#utility.yul\":7648:7734   */\n      swap1\n      pop\n        /* \"#utility.yul\":7428:7741   */\n      swap3\n      swap2\n      pop\n      pop\n      jump\t// out\n        /* \"#utility.yul\":7747:7927   */\n    tag_107:\n        /* \"#utility.yul\":7795:7872   */\n      0x4e487b7100000000000000000000000000000000000000000000000000000000\n        /* \"#utility.yul\":7792:7793   */\n      0x00\n        /* \"#utility.yul\":7785:7873   */\n      mstore\n        /* \"#utility.yul\":7892:7896   */\n      0x12\n        /* \"#utility.yul\":7889:7890   */\n      0x04\n        /* \"#utility.yul\":7882:7897   */\n      mstore\n        /* \"#utility.yul\":7916:7920   */\n      0x24\n        /* \"#utility.yul\":7913:7914   */\n      0x00\n        /* \"#utility.yul\":7906:7921   */\n      revert\n\n    auxdata: 0xa26469706673582212202d871e533d40f9a05bb500fc0cfd01e3429b9c4a51d4347892bf663d4e6739da64736f6c634300081e0033\n}\n",
				"bytecode": {
					"linkReferences": {},
					"object": "608060405234801561000f575f5ffd5b50604051610e84380380610e8483398181016040528101906100319190610193565b805f5f6101000a81548173ffffffffffffffffffffffffffffffffffffffff021916908373ffffffffffffffffffffffffffffffffffffffff16021790555061007f3361008560201b60201c565b506101be565b6001151560015f8373ffffffffffffffffffffffffffffffffffffffff1673ffffffffffffffffffffffffffffffffffffffff1681526020019081526020015f205f9054906101000a900460ff161515036100de575f5ffd5b6001805f8373ffffffffffffffffffffffffffffffffffffffff1673ffffffffffffffffffffffffffffffffffffffff1681526020019081526020015f205f6101000a81548160ff02191690831515021790555050565b5f5ffd5b5f73ffffffffffffffffffffffffffffffffffffffff82169050919050565b5f61016282610139565b9050919050565b61017281610158565b811461017c575f5ffd5b50565b5f8151905061018d81610169565b92915050565b5f602082840312156101a8576101a7610135565b5b5f6101b58482850161017f565b91505092915050565b610cb9806101cb5f395ff3fe608060405260043610610085575f3560e01c806363a846f81161005857806363a846f81461012b5780637048027514610167578063a48217191461018f578063c311d049146101ad578063f862110f146101c957610085565b806312065fe0146100895780631785f53c146100b3578063412664ae146100db57806350baa62214610103575b5f5ffd5b348015610094575f5ffd5b5061009d6101f3565b6040516100aa91906108a5565b60405180910390f35b3480156100be575f5ffd5b506100d960048036038101906100d4919061091c565b610291565b005b3480156100e6575f5ffd5b5061010160048036038101906100fc9190610971565b610332565b005b34801561010e575f5ffd5b50610129600480360381019061012491906109af565b610424565b005b348015610136575f5ffd5b50610151600480360381019061014c919061091c565b610515565b60405161015e91906109f4565b60405180910390f35b348015610172575f5ffd5b5061018d6004803603810190610188919061091c565b610532565b005b6101976105e2565b6040516101a491906109f4565b60405180910390f35b6101c760048036038101906101c291906109af565b610749565b005b3480156101d4575f5ffd5b506101dd610824565b6040516101ea91906108a5565b60405180910390f35b5f5f5f9054906101000a900473ffffffffffffffffffffffffffffffffffffffff1673ffffffffffffffffffffffffffffffffffffffff166370a08231306040518263ffffffff1660e01b815260040161024d9190610a1c565b602060405180830381865afa158015610268573d5f5f3e3d5ffd5b505050506040513d601f19601f8201168201806040525081019061028c9190610a49565b905090565b60015f3373ffffffffffffffffffffffffffffffffffffffff1673ffffffffffffffffffffffffffffffffffffffff1681526020019081526020015f205f9054906101000a900460ff166102e3575f5ffd5b60015f8273ffffffffffffffffffffffffffffffffffffffff1673ffffffffffffffffffffffffffffffffffffffff1681526020019081526020015f205f6101000a81549060ff021916905550565b60015f3373ffffffffffffffffffffffffffffffffffffffff1673ffffffffffffffffffffffffffffffffffffffff1681526020019081526020015f205f9054906101000a900460ff16610384575f5ffd5b5f5f9054906101000a900473ffffffffffffffffffffffffffffffffffffffff1673ffffffffffffffffffffffffffffffffffffffff1663a9059cbb83836040518363ffffffff1660e01b81526004016103df929190610a74565b6020604051808303815f875af11580156103fb573d5f5f3e3d5ffd5b505050506040513d601f19601f8201168201806040525081019061041f9190610ac5565b505050565b60015f3373ffffffffffffffffffffffffffffffffffffffff1673ffffffffffffffffffffffffffffffffffffffff1681526020019081526020015f205f9054906101000a900460ff16610476575f5ffd5b5f5f9054906101000a900473ffffffffffffffffffffffffffffffffffffffff1673ffffffffffffffffffffffffffffffffffffffff1663a9059cbb33836040518363ffffffff1660e01b81526004016104d1929190610a74565b6020604051808303815f875af11580156104ed573d5f5f3e3d5ffd5b505050506040513d601f19601f820116820180604052508101906105119190610ac5565b5050565b6001602052805f5260405f205f915054906101000a900460ff1681565b6001151560015f8373ffffffffffffffffffffffffffffffffffffffff1673ffffffffffffffffffffffffffffffffffffffff1681526020019081526020015f205f9054906101000a900460ff1615150361058b575f5ffd5b6001805f8373ffffffffffffffffffffffffffffffffffffffff1673ffffffffffffffffffffffffffffffffffffffff1681526020019081526020015f205f6101000a81548160ff02191690831515021790555050565b5f5f3073ffffffffffffffffffffffffffffffffffffffff1663f862110f6040518163ffffffff1660e01b8152600401602060405180830381865afa15801561062d573d5f5f3e3d5ffd5b505050506040513d601f19601f820116820180604052508101906106519190610a49565b61069934670de0b6b3a76400006040518060400160405280601181526020017f436f6e76657273696f6e206572726f722e00000000000000000000000000000081525061082c565b6106a39190610b1d565b90505f5f9054906101000a900473ffffffffffffffffffffffffffffffffffffffff1673ffffffffffffffffffffffffffffffffffffffff1663a9059cbb33836040518363ffffffff1660e01b8152600401610700929190610a74565b6020604051808303815f875af115801561071c573d5f5f3e3d5ffd5b505050506040513d601f19601f820116820180604052508101906107409190610ac5565b50600191505090565b60015f3373ffffffffffffffffffffffffffffffffffffffff1673ffffffffffffffffffffffffffffffffffffffff1681526020019081526020015f205f9054906101000a900460ff1661079b575f5ffd5b8047116107dd576040517f08c379a00000000000000000000000000000000000000000000000000000000081526004016107d490610bb8565b60405180910390fd5b3373ffffffffffffffffffffffffffffffffffffffff166108fc8290811502906040515f60405180830381858888f19350505050158015610820573d5f5f3e3d5ffd5b5050565b5f6001905090565b5f5f83118290610872576040517f08c379a00000000000000000000000000000000000000000000000000000000081526004016108699190610c36565b60405180910390fd5b5082848161088357610882610c56565b5b0490509392505050565b5f819050919050565b61089f8161088d565b82525050565b5f6020820190506108b85f830184610896565b92915050565b5f5ffd5b5f73ffffffffffffffffffffffffffffffffffffffff82169050919050565b5f6108eb826108c2565b9050919050565b6108fb816108e1565b8114610905575f5ffd5b50565b5f81359050610916816108f2565b92915050565b5f60208284031215610931576109306108be565b5b5f61093e84828501610908565b91505092915050565b6109508161088d565b811461095a575f5ffd5b50565b5f8135905061096b81610947565b92915050565b5f5f60408385031215610987576109866108be565b5b5f61099485828601610908565b92505060206109a58582860161095d565b9150509250929050565b5f602082840312156109c4576109c36108be565b5b5f6109d18482850161095d565b91505092915050565b5f8115159050919050565b6109ee816109da565b82525050565b5f602082019050610a075f8301846109e5565b92915050565b610a16816108e1565b82525050565b5f602082019050610a2f5f830184610a0d565b92915050565b5f81519050610a4381610947565b92915050565b5f60208284031215610a5e57610a5d6108be565b5b5f610a6b84828501610a35565b91505092915050565b5f604082019050610a875f830185610a0d565b610a946020830184610896565b9392505050565b610aa4816109da565b8114610aae575f5ffd5b50565b5f81519050610abf81610a9b565b92915050565b5f60208284031215610ada57610ad96108be565b5b5f610ae784828501610ab1565b91505092915050565b7f4e487b71000000000000000000000000000000000000000000000000000000005f52601160045260245ffd5b5f610b278261088d565b9150610b328361088d565b9250828202610b408161088d565b91508282048414831517610b5757610b56610af0565b5b5092915050565b5f82825260208201905092915050565b7f496e73756666696369656e742066756e647321000000000000000000000000005f82015250565b5f610ba2601383610b5e565b9150610bad82610b6e565b602082019050919050565b5f6020820190508181035f830152610bcf81610b96565b9050919050565b5f81519050919050565b8281835e5f83830152505050565b5f601f19601f8301169050919050565b5f610c0882610bd6565b610c128185610b5e565b9350610c22818560208601610be0565b610c2b81610bee565b840191505092915050565b5f6020820190508181035f830152610c4e8184610bfe565b905092915050565b7f4e487b71000000000000000000000000000000000000000000000000000000005f52601260045260245ffdfea26469706673582212202d871e533d40f9a05bb500fc0cfd01e3429b9c4a51d4347892bf663d4e6739da64736f6c634300081e0033",
					"opcodes": "PUSH1 0x80 PUSH1 0x40 MSTORE CALLVALUE DUP1 ISZERO PUSH2 0xF JUMPI PUSH0 PUSH0 REVERT JUMPDEST POP PUSH1 0x40 MLOAD PUSH2 0xE84 CODESIZE SUB DUP1 PUSH2 0xE84 DUP4 CODECOPY DUP2 DUP2 ADD PUSH1 0x40 MSTORE DUP2 ADD SWAP1 PUSH2 0x31 SWAP2 SWAP1 PUSH2 0x193 JUMP JUMPDEST DUP1 PUSH0 PUSH0 PUSH2 0x100 EXP DUP2 SLOAD DUP2 PUSH20 0xFFFFFFFFFFFFFFFFFFFFFFFFFFFFFFFFFFFFFFFF MUL NOT AND SWAP1 DUP4 PUSH20 0xFFFFFFFFFFFFFFFFFFFFFFFFFFFFFFFFFFFFFFFF AND MUL OR SWAP1 SSTORE POP PUSH2 0x7F CALLER PUSH2 0x85 PUSH1 0x20 SHL PUSH1 0x20 SHR JUMP JUMPDEST POP PUSH2 0x1BE JUMP JUMPDEST PUSH1 0x1 ISZERO ISZERO PUSH1 0x1 PUSH0 DUP4 PUSH20 0xFFFFFFFFFFFFFFFFFFFFFFFFFFFFFFFFFFFFFFFF AND PUSH20 0xFFFFFFFFFFFFFFFFFFFFFFFFFFFFFFFFFFFFFFFF AND DUP2 MSTORE PUSH1 0x20 ADD SWAP1 DUP2 MSTORE PUSH1 0x20 ADD PUSH0 KECCAK256 PUSH0 SWAP1 SLOAD SWAP1 PUSH2 0x100 EXP SWAP1 DIV PUSH1 0xFF AND ISZERO ISZERO SUB PUSH2 0xDE JUMPI PUSH0 PUSH0 REVERT JUMPDEST PUSH1 0x1 DUP1 PUSH0 DUP4 PUSH20 0xFFFFFFFFFFFFFFFFFFFFFFFFFFFFFFFFFFFFFFFF AND PUSH20 0xFFFFFFFFFFFFFFFFFFFFFFFFFFFFFFFFFFFFFFFF AND DUP2 MSTORE PUSH1 0x20 ADD SWAP1 DUP2 MSTORE PUSH1 0x20 ADD PUSH0 KECCAK256 PUSH0 PUSH2 0x100 EXP DUP2 SLOAD DUP2 PUSH1 0xFF MUL NOT AND SWAP1 DUP4 ISZERO ISZERO MUL OR SWAP1 SSTORE POP POP JUMP JUMPDEST PUSH0 PUSH0 REVERT JUMPDEST PUSH0 PUSH20 0xFFFFFFFFFFFFFFFFFFFFFFFFFFFFFFFFFFFFFFFF DUP3 AND SWAP1 POP SWAP2 SWAP1 POP JUMP JUMPDEST PUSH0 PUSH2 0x162 DUP3 PUSH2 0x139 JUMP JUMPDEST SWAP1 POP SWAP2 SWAP1 POP JUMP JUMPDEST PUSH2 0x172 DUP2 PUSH2 0x158 JUMP JUMPDEST DUP2 EQ PUSH2 0x17C JUMPI PUSH0 PUSH0 REVERT JUMPDEST POP JUMP JUMPDEST PUSH0 DUP2 MLOAD SWAP1 POP PUSH2 0x18D DUP2 PUSH2 0x169 JUMP JUMPDEST SWAP3 SWAP2 POP POP JUMP JUMPDEST PUSH0 PUSH1 0x20 DUP3 DUP5 SUB SLT ISZERO PUSH2 0x1A8 JUMPI PUSH2 0x1A7 PUSH2 0x135 JUMP JUMPDEST JUMPDEST PUSH0 PUSH2 0x1B5 DUP5 DUP3 DUP6 ADD PUSH2 0x17F JUMP JUMPDEST SWAP2 POP POP SWAP3 SWAP2 POP POP JUMP JUMPDEST PUSH2 0xCB9 DUP1 PUSH2 0x1CB PUSH0 CODECOPY PUSH0 RETURN INVALID PUSH1 0x80 PUSH1 0x40 MSTORE PUSH1 0x4 CALLDATASIZE LT PUSH2 0x85 JUMPI PUSH0 CALLDATALOAD PUSH1 0xE0 SHR DUP1 PUSH4 0x63A846F8 GT PUSH2 0x58 JUMPI DUP1 PUSH4 0x63A846F8 EQ PUSH2 0x12B JUMPI DUP1 PUSH4 0x70480275 EQ PUSH2 0x167 JUMPI DUP1 PUSH4 0xA4821719 EQ PUSH2 0x18F JUMPI DUP1 PUSH4 0xC311D049 EQ PUSH2 0x1AD JUMPI DUP1 PUSH4 0xF862110F EQ PUSH2 0x1C9 JUMPI PUSH2 0x85 JUMP JUMPDEST DUP1 PUSH4 0x12065FE0 EQ PUSH2 0x89 JUMPI DUP1 PUSH4 0x1785F53C EQ PUSH2 0xB3 JUMPI DUP1 PUSH4 0x412664AE EQ PUSH2 0xDB JUMPI DUP1 PUSH4 0x50BAA622 EQ PUSH2 0x103 JUMPI JUMPDEST PUSH0 PUSH0 REVERT JUMPDEST CALLVALUE DUP1 ISZERO PUSH2 0x94 JUMPI PUSH0 PUSH0 REVERT JUMPDEST POP PUSH2 0x9D PUSH2 0x1F3 JUMP JUMPDEST PUSH1 0x40 MLOAD PUSH2 0xAA SWAP2 SWAP1 PUSH2 0x8A5 JUMP JUMPDEST PUSH1 0x40 MLOAD DUP1 SWAP2 SUB SWAP1 RETURN JUMPDEST CALLVALUE DUP1 ISZERO PUSH2 0xBE JUMPI PUSH0 PUSH0 REVERT JUMPDEST POP PUSH2 0xD9 PUSH1 0x4 DUP1 CALLDATASIZE SUB DUP2 ADD SWAP1 PUSH2 0xD4 SWAP2 SWAP1 PUSH2 0x91C JUMP JUMPDEST PUSH2 0x291 JUMP JUMPDEST STOP JUMPDEST CALLVALUE DUP1 ISZERO PUSH2 0xE6 JUMPI PUSH0 PUSH0 REVERT JUMPDEST POP PUSH2 0x101 PUSH1 0x4 DUP1 CALLDATASIZE SUB DUP2 ADD SWAP1 PUSH2 0xFC SWAP2 SWAP1 PUSH2 0x971 JUMP JUMPDEST PUSH2 0x332 JUMP JUMPDEST STOP JUMPDEST CALLVALUE DUP1 ISZERO PUSH2 0x10E JUMPI PUSH0 PUSH0 REVERT JUMPDEST POP PUSH2 0x129 PUSH1 0x4 DUP1 CALLDATASIZE SUB DUP2 ADD SWAP1 PUSH2 0x124 SWAP2 SWAP1 PUSH2 0x9AF JUMP JUMPDEST PUSH2 0x424 JUMP JUMPDEST STOP JUMPDEST CALLVALUE DUP1 ISZERO PUSH2 0x136 JUMPI PUSH0 PUSH0 REVERT JUMPDEST POP PUSH2 0x151 PUSH1 0x4 DUP1 CALLDATASIZE SUB DUP2 ADD SWAP1 PUSH2 0x14C SWAP2 SWAP1 PUSH2 0x91C JUMP JUMPDEST PUSH2 0x515 JUMP JUMPDEST PUSH1 0x40 MLOAD PUSH2 0x15E SWAP2 SWAP1 PUSH2 0x9F4 JUMP JUMPDEST PUSH1 0x40 MLOAD DUP1 SWAP2 SUB SWAP1 RETURN JUMPDEST CALLVALUE DUP1 ISZERO PUSH2 0x172 JUMPI PUSH0 PUSH0 REVERT JUMPDEST POP PUSH2 0x18D PUSH1 0x4 DUP1 CALLDATASIZE SUB DUP2 ADD SWAP1 PUSH2 0x188 SWAP2 SWAP1 PUSH2 0x91C JUMP JUMPDEST PUSH2 0x532 JUMP JUMPDEST STOP JUMPDEST PUSH2 0x197 PUSH2 0x5E2 JUMP JUMPDEST PUSH1 0x40 MLOAD PUSH2 0x1A4 SWAP2 SWAP1 PUSH2 0x9F4 JUMP JUMPDEST PUSH1 0x40 MLOAD DUP1 SWAP2 SUB SWAP1 RETURN JUMPDEST PUSH2 0x1C7 PUSH1 0x4 DUP1 CALLDATASIZE SUB DUP2 ADD SWAP1 PUSH2 0x1C2 SWAP2 SWAP1 PUSH2 0x9AF JUMP JUMPDEST PUSH2 0x749 JUMP JUMPDEST STOP JUMPDEST CALLVALUE DUP1 ISZERO PUSH2 0x1D4 JUMPI PUSH0 PUSH0 REVERT JUMPDEST POP PUSH2 0x1DD PUSH2 0x824 JUMP JUMPDEST PUSH1 0x40 MLOAD PUSH2 0x1EA SWAP2 SWAP1 PUSH2 0x8A5 JUMP JUMPDEST PUSH1 0x40 MLOAD DUP1 SWAP2 SUB SWAP1 RETURN JUMPDEST PUSH0 PUSH0 PUSH0 SWAP1 SLOAD SWAP1 PUSH2 0x100 EXP SWAP1 DIV PUSH20 0xFFFFFFFFFFFFFFFFFFFFFFFFFFFFFFFFFFFFFFFF AND PUSH20 0xFFFFFFFFFFFFFFFFFFFFFFFFFFFFFFFFFFFFFFFF AND PUSH4 0x70A08231 ADDRESS PUSH1 0x40 MLOAD DUP3 PUSH4 0xFFFFFFFF AND PUSH1 0xE0 SHL DUP2 MSTORE PUSH1 0x4 ADD PUSH2 0x24D SWAP2 SWAP1 PUSH2 0xA1C JUMP JUMPDEST PUSH1 0x20 PUSH1 0x40 MLOAD DUP1 DUP4 SUB DUP2 DUP7 GAS STATICCALL ISZERO DUP1 ISZERO PUSH2 0x268 JUMPI RETURNDATASIZE PUSH0 PUSH0 RETURNDATACOPY RETURNDATASIZE PUSH0 REVERT JUMPDEST POP POP POP POP PUSH1 0x40 MLOAD RETURNDATASIZE PUSH1 0x1F NOT PUSH1 0x1F DUP3 ADD AND DUP3 ADD DUP1 PUSH1 0x40 MSTORE POP DUP2 ADD SWAP1 PUSH2 0x28C SWAP2 SWAP1 PUSH2 0xA49 JUMP JUMPDEST SWAP1 POP SWAP1 JUMP JUMPDEST PUSH1 0x1 PUSH0 CALLER PUSH20 0xFFFFFFFFFFFFFFFFFFFFFFFFFFFFFFFFFFFFFFFF AND PUSH20 0xFFFFFFFFFFFFFFFFFFFFFFFFFFFFFFFFFFFFFFFF AND DUP2 MSTORE PUSH1 0x20 ADD SWAP1 DUP2 MSTORE PUSH1 0x20 ADD PUSH0 KECCAK256 PUSH0 SWAP1 SLOAD SWAP1 PUSH2 0x100 EXP SWAP1 DIV PUSH1 0xFF AND PUSH2 0x2E3 JUMPI PUSH0 PUSH0 REVERT JUMPDEST PUSH1 0x1 PUSH0 DUP3 PUSH20 0xFFFFFFFFFFFFFFFFFFFFFFFFFFFFFFFFFFFFFFFF AND PUSH20 0xFFFFFFFFFFFFFFFFFFFFFFFFFFFFFFFFFFFFFFFF AND DUP2 MSTORE PUSH1 0x20 ADD SWAP1 DUP2 MSTORE PUSH1 0x20 ADD PUSH0 KECCAK256 PUSH0 PUSH2 0x100 EXP DUP2 SLOAD SWAP1 PUSH1 0xFF MUL NOT AND SWAP1 SSTORE POP JUMP JUMPDEST PUSH1 0x1 PUSH0 CALLER PUSH20 0xFFFFFFFFFFFFFFFFFFFFFFFFFFFFFFFFFFFFFFFF AND PUSH20 0xFFFFFFFFFFFFFFFFFFFFFFFFFFFFFFFFFFFFFFFF AND DUP2 MSTORE PUSH1 0x20 ADD SWAP1 DUP2 MSTORE PUSH1 0x20 ADD PUSH0 KECCAK256 PUSH0 SWAP1 SLOAD SWAP1 PUSH2 0x100 EXP SWAP1 DIV PUSH1 0xFF AND PUSH2 0x384 JUMPI PUSH0 PUSH0 REVERT JUMPDEST PUSH0 PUSH0 SWAP1 SLOAD SWAP1 PUSH2 0x100 EXP SWAP1 DIV PUSH20 0xFFFFFFFFFFFFFFFFFFFFFFFFFFFFFFFFFFFFFFFF AND PUSH20 0xFFFFFFFFFFFFFFFFFFFFFFFFFFFFFFFFFFFFFFFF AND PUSH4 0xA9059CBB DUP4 DUP4 PUSH1 0x40 MLOAD DUP4 PUSH4 0xFFFFFFFF AND PUSH1 0xE0 SHL DUP2 MSTORE PUSH1 0x4 ADD PUSH2 0x3DF SWAP3 SWAP2 SWAP1 PUSH2 0xA74 JUMP JUMPDEST PUSH1 0x20 PUSH1 0x40 MLOAD DUP1 DUP4 SUB DUP2 PUSH0 DUP8 GAS CALL ISZERO DUP1 ISZERO PUSH2 0x3FB JUMPI RETURNDATASIZE PUSH0 PUSH0 RETURNDATACOPY RETURNDATASIZE PUSH0 REVERT JUMPDEST POP POP POP POP PUSH1 0x40 MLOAD RETURNDATASIZE PUSH1 0x1F NOT PUSH1 0x1F DUP3 ADD AND DUP3 ADD DUP1 PUSH1 0x40 MSTORE POP DUP2 ADD SWAP1 PUSH2 0x41F SWAP2 SWAP1 PUSH2 0xAC5 JUMP JUMPDEST POP POP POP JUMP JUMPDEST PUSH1 0x1 PUSH0 CALLER PUSH20 0xFFFFFFFFFFFFFFFFFFFFFFFFFFFFFFFFFFFFFFFF AND PUSH20 0xFFFFFFFFFFFFFFFFFFFFFFFFFFFFFFFFFFFFFFFF AND DUP2 MSTORE PUSH1 0x20 ADD SWAP1 DUP2 MSTORE PUSH1 0x20 ADD PUSH0 KECCAK256 PUSH0 SWAP1 SLOAD SWAP1 PUSH2 0x100 EXP SWAP1 DIV PUSH1 0xFF AND PUSH2 0x476 JUMPI PUSH0 PUSH0 REVERT JUMPDEST PUSH0 PUSH0 SWAP1 SLOAD SWAP1 PUSH2 0x100 EXP SWAP1 DIV PUSH20 0xFFFFFFFFFFFFFFFFFFFFFFFFFFFFFFFFFFFFFFFF AND PUSH20 0xFFFFFFFFFFFFFFFFFFFFFFFFFFFFFFFFFFFFFFFF AND PUSH4 0xA9059CBB CALLER DUP4 PUSH1 0x40 MLOAD DUP4 PUSH4 0xFFFFFFFF AND PUSH1 0xE0 SHL DUP2 MSTORE PUSH1 0x4 ADD PUSH2 0x4D1 SWAP3 SWAP2 SWAP1 PUSH2 0xA74 JUMP JUMPDEST PUSH1 0x20 PUSH1 0x40 MLOAD DUP1 DUP4 SUB DUP2 PUSH0 DUP8 GAS CALL ISZERO DUP1 ISZERO PUSH2 0x4ED JUMPI RETURNDATASIZE PUSH0 PUSH0 RETURNDATACOPY RETURNDATASIZE PUSH0 REVERT JUMPDEST POP POP POP POP PUSH1 0x40 MLOAD RETURNDATASIZE PUSH1 0x1F NOT PUSH1 0x1F DUP3 ADD AND DUP3 ADD DUP1 PUSH1 0x40 MSTORE POP DUP2 ADD SWAP1 PUSH2 0x511 SWAP2 SWAP1 PUSH2 0xAC5 JUMP JUMPDEST POP POP JUMP JUMPDEST PUSH1 0x1 PUSH1 0x20 MSTORE DUP1 PUSH0 MSTORE PUSH1 0x40 PUSH0 KECCAK256 PUSH0 SWAP2 POP SLOAD SWAP1 PUSH2 0x100 EXP SWAP1 DIV PUSH1 0xFF AND DUP2 JUMP JUMPDEST PUSH1 0x1 ISZERO ISZERO PUSH1 0x1 PUSH0 DUP4 PUSH20 0xFFFFFFFFFFFFFFFFFFFFFFFFFFFFFFFFFFFFFFFF AND PUSH20 0xFFFFFFFFFFFFFFFFFFFFFFFFFFFFFFFFFFFFFFFF AND DUP2 MSTORE PUSH1 0x20 ADD SWAP1 DUP2 MSTORE PUSH1 0x20 ADD PUSH0 KECCAK256 PUSH0 SWAP1 SLOAD SWAP1 PUSH2 0x100 EXP SWAP1 DIV PUSH1 0xFF AND ISZERO ISZERO SUB PUSH2 0x58B JUMPI PUSH0 PUSH0 REVERT JUMPDEST PUSH1 0x1 DUP1 PUSH0 DUP4 PUSH20 0xFFFFFFFFFFFFFFFFFFFFFFFFFFFFFFFFFFFFFFFF AND PUSH20 0xFFFFFFFFFFFFFFFFFFFFFFFFFFFFFFFFFFFFFFFF AND DUP2 MSTORE PUSH1 0x20 ADD SWAP1 DUP2 MSTORE PUSH1 0x20 ADD PUSH0 KECCAK256 PUSH0 PUSH2 0x100 EXP DUP2 SLOAD DUP2 PUSH1 0xFF MUL NOT AND SWAP1 DUP4 ISZERO ISZERO MUL OR SWAP1 SSTORE POP POP JUMP JUMPDEST PUSH0 PUSH0 ADDRESS PUSH20 0xFFFFFFFFFFFFFFFFFFFFFFFFFFFFFFFFFFFFFFFF AND PUSH4 0xF862110F PUSH1 0x40 MLOAD DUP2 PUSH4 0xFFFFFFFF AND PUSH1 0xE0 SHL DUP2 MSTORE PUSH1 0x4 ADD PUSH1 0x20 PUSH1 0x40 MLOAD DUP1 DUP4 SUB DUP2 DUP7 GAS STATICCALL ISZERO DUP1 ISZERO PUSH2 0x62D JUMPI RETURNDATASIZE PUSH0 PUSH0 RETURNDATACOPY RETURNDATASIZE PUSH0 REVERT JUMPDEST POP POP POP POP PUSH1 0x40 MLOAD RETURNDATASIZE PUSH1 0x1F NOT PUSH1 0x1F DUP3 ADD AND DUP3 ADD DUP1 PUSH1 0x40 MSTORE POP DUP2 ADD SWAP1 PUSH2 0x651 SWAP2 SWAP1 PUSH2 0xA49 JUMP JUMPDEST PUSH2 0x699 CALLVALUE PUSH8 0xDE0B6B3A7640000 PUSH1 0x40 MLOAD DUP1 PUSH1 0x40 ADD PUSH1 0x40 MSTORE DUP1 PUSH1 0x11 DUP2 MSTORE PUSH1 0x20 ADD PUSH32 0x436F6E76657273696F6E206572726F722E000000000000000000000000000000 DUP2 MSTORE POP PUSH2 0x82C JUMP JUMPDEST PUSH2 0x6A3 SWAP2 SWAP1 PUSH2 0xB1D JUMP JUMPDEST SWAP1 POP PUSH0 PUSH0 SWAP1 SLOAD SWAP1 PUSH2 0x100 EXP SWAP1 DIV PUSH20 0xFFFFFFFFFFFFFFFFFFFFFFFFFFFFFFFFFFFFFFFF AND PUSH20 0xFFFFFFFFFFFFFFFFFFFFFFFFFFFFFFFFFFFFFFFF AND PUSH4 0xA9059CBB CALLER DUP4 PUSH1 0x40 MLOAD DUP4 PUSH4 0xFFFFFFFF AND PUSH1 0xE0 SHL DUP2 MSTORE PUSH1 0x4 ADD PUSH2 0x700 SWAP3 SWAP2 SWAP1 PUSH2 0xA74 JUMP JUMPDEST PUSH1 0x20 PUSH1 0x40 MLOAD DUP1 DUP4 SUB DUP2 PUSH0 DUP8 GAS CALL ISZERO DUP1 ISZERO PUSH2 0x71C JUMPI RETURNDATASIZE PUSH0 PUSH0 RETURNDATACOPY RETURNDATASIZE PUSH0 REVERT JUMPDEST POP POP POP POP PUSH1 0x40 MLOAD RETURNDATASIZE PUSH1 0x1F NOT PUSH1 0x1F DUP3 ADD AND DUP3 ADD DUP1 PUSH1 0x40 MSTORE POP DUP2 ADD SWAP1 PUSH2 0x740 SWAP2 SWAP1 PUSH2 0xAC5 JUMP JUMPDEST POP PUSH1 0x1 SWAP2 POP POP SWAP1 JUMP JUMPDEST PUSH1 0x1 PUSH0 CALLER PUSH20 0xFFFFFFFFFFFFFFFFFFFFFFFFFFFFFFFFFFFFFFFF AND PUSH20 0xFFFFFFFFFFFFFFFFFFFFFFFFFFFFFFFFFFFFFFFF AND DUP2 MSTORE PUSH1 0x20 ADD SWAP1 DUP2 MSTORE PUSH1 0x20 ADD PUSH0 KECCAK256 PUSH0 SWAP1 SLOAD SWAP1 PUSH2 0x100 EXP SWAP1 DIV PUSH1 0xFF AND PUSH2 0x79B JUMPI PUSH0 PUSH0 REVERT JUMPDEST DUP1 SELFBALANCE GT PUSH2 0x7DD JUMPI PUSH1 0x40 MLOAD PUSH32 0x8C379A000000000000000000000000000000000000000000000000000000000 DUP2 MSTORE PUSH1 0x4 ADD PUSH2 0x7D4 SWAP1 PUSH2 0xBB8 JUMP JUMPDEST PUSH1 0x40 MLOAD DUP1 SWAP2 SUB SWAP1 REVERT JUMPDEST CALLER PUSH20 0xFFFFFFFFFFFFFFFFFFFFFFFFFFFFFFFFFFFFFFFF AND PUSH2 0x8FC DUP3 SWAP1 DUP2 ISZERO MUL SWAP1 PUSH1 0x40 MLOAD PUSH0 PUSH1 0x40 MLOAD DUP1 DUP4 SUB DUP2 DUP6 DUP9 DUP9 CALL SWAP4 POP POP POP POP ISZERO DUP1 ISZERO PUSH2 0x820 JUMPI RETURNDATASIZE PUSH0 PUSH0 RETURNDATACOPY RETURNDATASIZE PUSH0 REVERT JUMPDEST POP POP JUMP JUMPDEST PUSH0 PUSH1 0x1 SWAP1 POP SWAP1 JUMP JUMPDEST PUSH0 PUSH0 DUP4 GT DUP3 SWAP1 PUSH2 0x872 JUMPI PUSH1 0x40 MLOAD PUSH32 0x8C379A000000000000000000000000000000000000000000000000000000000 DUP2 MSTORE PUSH1 0x4 ADD PUSH2 0x869 SWAP2 SWAP1 PUSH2 0xC36 JUMP JUMPDEST PUSH1 0x40 MLOAD DUP1 SWAP2 SUB SWAP1 REVERT JUMPDEST POP DUP3 DUP5 DUP2 PUSH2 0x883 JUMPI PUSH2 0x882 PUSH2 0xC56 JUMP JUMPDEST JUMPDEST DIV SWAP1 POP SWAP4 SWAP3 POP POP POP JUMP JUMPDEST PUSH0 DUP2 SWAP1 POP SWAP2 SWAP1 POP JUMP JUMPDEST PUSH2 0x89F DUP2 PUSH2 0x88D JUMP JUMPDEST DUP3 MSTORE POP POP JUMP JUMPDEST PUSH0 PUSH1 0x20 DUP3 ADD SWAP1 POP PUSH2 0x8B8 PUSH0 DUP4 ADD DUP5 PUSH2 0x896 JUMP JUMPDEST SWAP3 SWAP2 POP POP JUMP JUMPDEST PUSH0 PUSH0 REVERT JUMPDEST PUSH0 PUSH20 0xFFFFFFFFFFFFFFFFFFFFFFFFFFFFFFFFFFFFFFFF DUP3 AND SWAP1 POP SWAP2 SWAP1 POP JUMP JUMPDEST PUSH0 PUSH2 0x8EB DUP3 PUSH2 0x8C2 JUMP JUMPDEST SWAP1 POP SWAP2 SWAP1 POP JUMP JUMPDEST PUSH2 0x8FB DUP2 PUSH2 0x8E1 JUMP JUMPDEST DUP2 EQ PUSH2 0x905 JUMPI PUSH0 PUSH0 REVERT JUMPDEST POP JUMP JUMPDEST PUSH0 DUP2 CALLDATALOAD SWAP1 POP PUSH2 0x916 DUP2 PUSH2 0x8F2 JUMP JUMPDEST SWAP3 SWAP2 POP POP JUMP JUMPDEST PUSH0 PUSH1 0x20 DUP3 DUP5 SUB SLT ISZERO PUSH2 0x931 JUMPI PUSH2 0x930 PUSH2 0x8BE JUMP JUMPDEST JUMPDEST PUSH0 PUSH2 0x93E DUP5 DUP3 DUP6 ADD PUSH2 0x908 JUMP JUMPDEST SWAP2 POP POP SWAP3 SWAP2 POP POP JUMP JUMPDEST PUSH2 0x950 DUP2 PUSH2 0x88D JUMP JUMPDEST DUP2 EQ PUSH2 0x95A JUMPI PUSH0 PUSH0 REVERT JUMPDEST POP JUMP JUMPDEST PUSH0 DUP2 CALLDATALOAD SWAP1 POP PUSH2 0x96B DUP2 PUSH2 0x947 JUMP JUMPDEST SWAP3 SWAP2 POP POP JUMP JUMPDEST PUSH0 PUSH0 PUSH1 0x40 DUP4 DUP6 SUB SLT ISZERO PUSH2 0x987 JUMPI PUSH2 0x986 PUSH2 0x8BE JUMP JUMPDEST JUMPDEST PUSH0 PUSH2 0x994 DUP6 DUP3 DUP7 ADD PUSH2 0x908 JUMP JUMPDEST SWAP3 POP POP PUSH1 0x20 PUSH2 0x9A5 DUP6 DUP3 DUP7 ADD PUSH2 0x95D JUMP JUMPDEST SWAP2 POP POP SWAP3 POP SWAP3 SWAP1 POP JUMP JUMPDEST PUSH0 PUSH1 0x20 DUP3 DUP5 SUB SLT ISZERO PUSH2 0x9C4 JUMPI PUSH2 0x9C3 PUSH2 0x8BE JUMP JUMPDEST JUMPDEST PUSH0 PUSH2 0x9D1 DUP5 DUP3 DUP6 ADD PUSH2 0x95D JUMP JUMPDEST SWAP2 POP POP SWAP3 SWAP2 POP POP JUMP JUMPDEST PUSH0 DUP2 ISZERO ISZERO SWAP1 POP SWAP2 SWAP1 POP JUMP JUMPDEST PUSH2 0x9EE DUP2 PUSH2 0x9DA JUMP JUMPDEST DUP3 MSTORE POP POP JUMP JUMPDEST PUSH0 PUSH1 0x20 DUP3 ADD SWAP1 POP PUSH2 0xA07 PUSH0 DUP4 ADD DUP5 PUSH2 0x9E5 JUMP JUMPDEST SWAP3 SWAP2 POP POP JUMP JUMPDEST PUSH2 0xA16 DUP2 PUSH2 0x8E1 JUMP JUMPDEST DUP3 MSTORE POP POP JUMP JUMPDEST PUSH0 PUSH1 0x20 DUP3 ADD SWAP1 POP PUSH2 0xA2F PUSH0 DUP4 ADD DUP5 PUSH2 0xA0D JUMP JUMPDEST SWAP3 SWAP2 POP POP JUMP JUMPDEST PUSH0 DUP2 MLOAD SWAP1 POP PUSH2 0xA43 DUP2 PUSH2 0x947 JUMP JUMPDEST SWAP3 SWAP2 POP POP JUMP JUMPDEST PUSH0 PUSH1 0x20 DUP3 DUP5 SUB SLT ISZERO PUSH2 0xA5E JUMPI PUSH2 0xA5D PUSH2 0x8BE JUMP JUMPDEST JUMPDEST PUSH0 PUSH2 0xA6B DUP5 DUP3 DUP6 ADD PUSH2 0xA35 JUMP JUMPDEST SWAP2 POP POP SWAP3 SWAP2 POP POP JUMP JUMPDEST PUSH0 PUSH1 0x40 DUP3 ADD SWAP1 POP PUSH2 0xA87 PUSH0 DUP4 ADD DUP6 PUSH2 0xA0D JUMP JUMPDEST PUSH2 0xA94 PUSH1 0x20 DUP4 ADD DUP5 PUSH2 0x896 JUMP JUMPDEST SWAP4 SWAP3 POP POP POP JUMP JUMPDEST PUSH2 0xAA4 DUP2 PUSH2 0x9DA JUMP JUMPDEST DUP2 EQ PUSH2 0xAAE JUMPI PUSH0 PUSH0 REVERT JUMPDEST POP JUMP JUMPDEST PUSH0 DUP2 MLOAD SWAP1 POP PUSH2 0xABF DUP2 PUSH2 0xA9B JUMP JUMPDEST SWAP3 SWAP2 POP POP JUMP JUMPDEST PUSH0 PUSH1 0x20 DUP3 DUP5 SUB SLT ISZERO PUSH2 0xADA JUMPI PUSH2 0xAD9 PUSH2 0x8BE JUMP JUMPDEST JUMPDEST PUSH0 PUSH2 0xAE7 DUP5 DUP3 DUP6 ADD PUSH2 0xAB1 JUMP JUMPDEST SWAP2 POP POP SWAP3 SWAP2 POP POP JUMP JUMPDEST PUSH32 0x4E487B7100000000000000000000000000000000000000000000000000000000 PUSH0 MSTORE PUSH1 0x11 PUSH1 0x4 MSTORE PUSH1 0x24 PUSH0 REVERT JUMPDEST PUSH0 PUSH2 0xB27 DUP3 PUSH2 0x88D JUMP JUMPDEST SWAP2 POP PUSH2 0xB32 DUP4 PUSH2 0x88D JUMP JUMPDEST SWAP3 POP DUP3 DUP3 MUL PUSH2 0xB40 DUP2 PUSH2 0x88D JUMP JUMPDEST SWAP2 POP DUP3 DUP3 DIV DUP5 EQ DUP4 ISZERO OR PUSH2 0xB57 JUMPI PUSH2 0xB56 PUSH2 0xAF0 JUMP JUMPDEST JUMPDEST POP SWAP3 SWAP2 POP POP JUMP JUMPDEST PUSH0 DUP3 DUP3 MSTORE PUSH1 0x20 DUP3 ADD SWAP1 POP SWAP3 SWAP2 POP POP JUMP JUMPDEST PUSH32 0x496E73756666696369656E742066756E64732100000000000000000000000000 PUSH0 DUP3 ADD MSTORE POP JUMP JUMPDEST PUSH0 PUSH2 0xBA2 PUSH1 0x13 DUP4 PUSH2 0xB5E JUMP JUMPDEST SWAP2 POP PUSH2 0xBAD DUP3 PUSH2 0xB6E JUMP JUMPDEST PUSH1 0x20 DUP3 ADD SWAP1 POP SWAP2 SWAP1 POP JUMP JUMPDEST PUSH0 PUSH1 0x20 DUP3 ADD SWAP1 POP DUP2 DUP2 SUB PUSH0 DUP4 ADD MSTORE PUSH2 0xBCF DUP2 PUSH2 0xB96 JUMP JUMPDEST SWAP1 POP SWAP2 SWAP1 POP JUMP JUMPDEST PUSH0 DUP2 MLOAD SWAP1 POP SWAP2 SWAP1 POP JUMP JUMPDEST DUP3 DUP2 DUP4 MCOPY PUSH0 DUP4 DUP4 ADD MSTORE POP POP POP JUMP JUMPDEST PUSH0 PUSH1 0x1F NOT PUSH1 0x1F DUP4 ADD AND SWAP1 POP SWAP2 SWAP1 POP JUMP JUMPDEST PUSH0 PUSH2 0xC08 DUP3 PUSH2 0xBD6 JUMP JUMPDEST PUSH2 0xC12 DUP2 DUP6 PUSH2 0xB5E JUMP JUMPDEST SWAP4 POP PUSH2 0xC22 DUP2 DUP6 PUSH1 0x20 DUP7 ADD PUSH2 0xBE0 JUMP JUMPDEST PUSH2 0xC2B DUP2 PUSH2 0xBEE JUMP JUMPDEST DUP5 ADD SWAP2 POP POP SWAP3 SWAP2 POP POP JUMP JUMPDEST PUSH0 PUSH1 0x20 DUP3 ADD SWAP1 POP DUP2 DUP2 SUB PUSH0 DUP4 ADD MSTORE PUSH2 0xC4E DUP2 DUP5 PUSH2 0xBFE JUMP JUMPDEST SWAP1 POP SWAP3 SWAP2 POP POP JUMP JUMPDEST PUSH32 0x4E487B7100000000000000000000000000000000000000000000000000000000 PUSH0 MSTORE PUSH1 0x12 PUSH1 0x4 MSTORE PUSH1 0x24 PUSH0 REVERT INVALID LOG2 PUSH5 0x6970667358 0x22 SLT KECCAK256 0x2D DUP8 0x1E MSTORE8 RETURNDATASIZE BLOCKHASH EXTDELEGATECALL LOG0 JUMPDEST 0xB5 STOP 0xFC 0xC REVERT ADD CALLF 0x429B SWAP13 BLOBBASEFEE MLOAD 0xD4 CALLVALUE PUSH25 0x92BF663D4E6739DA64736F6C634300081E0033000000000000 "
				},
				"gasEstimates": {
					"creation": {
						"codeDepositCost": "651400",
						"executionCost": "infinite",
						"totalCost": "infinite"
					},
					"external": {
						"EthToTokenConversionFactor()": "420",
						"addAdmin(address)": "27083",
						"admin(address)": "2833",
						"buyToken()": "infinite",
						"getBalance()": "infinite",
						"removeAdmin(address)": "27040",
						"sendToken(address,uint256)": "infinite",
						"withdrawEth(uint256)": "infinite",
						"withdrawToken(uint256)": "infinite"
					}
				},
				"methodIdentifiers": {
					"EthToTokenConversionFactor()": "f862110f",
					"addAdmin(address)": "70480275",
					"admin(address)": "63a846f8",
					"buyToken()": "a4821719",
					"getBalance()": "12065fe0",
					"removeAdmin(address)": "1785f53c",
					"sendToken(address,uint256)": "412664ae",
					"withdrawEth(uint256)": "c311d049",
					"withdrawToken(uint256)": "50baa622"
				}
			},
			"storageLayout": {
				"storage": [
					{
						"astId": 1202,
						"contract": "mc3coin.sol:MC3Treasury",
						"label": "token",
						"offset": 0,
						"slot": "0",
						"type": "t_contract(IERC20)729"
					},
					{
						"astId": 1206,
						"contract": "mc3coin.sol:MC3Treasury",
						"label": "admin",
						"offset": 0,
						"slot": "1",
						"type": "t_mapping(t_address,t_bool)"
					}
				],
				"types": {
					"t_address": {
						"encoding": "inplace",
						"label": "address",
						"numberOfBytes": "20"
					},
					"t_bool": {
						"encoding": "inplace",
						"label": "bool",
						"numberOfBytes": "1"
					},
					"t_contract(IERC20)729": {
						"encoding": "inplace",
						"label": "contract IERC20",
						"numberOfBytes": "20"
					},
					"t_mapping(t_address,t_bool)": {
						"encoding": "mapping",
						"key": "t_address",
						"label": "mapping(address => bool)",
						"numberOfBytes": "32",
						"value": "t_bool"
					}
				}
			},
			"userdoc": {
				"kind": "user",
				"methods": {},
				"version": 1
			}
		}
	}
}