{
	"data": {
		"bytecode": {
			"linkReferences": {},
			"object": "608060405234801561000f575f5ffd5b506040518060400160405280600881526020017f4d433320436f696e0000000000000000000000000000000000000000000000008152506040518060400160405280600381526020017f4d43330000000000000000000000000000000000000000000000000000000000815250816003908161008b9190610615565b50806004908161009b9190610615565b5050506100d8336100b061013260201b60201c565b60ff16600a6100bf9190610840565b620f42406100cd919061088a565b61013a60201b60201c565b600160055f3373ffffffffffffffffffffffffffffffffffffffff1673ffffffffffffffffffffffffffffffffffffffff1681526020019081526020015f205f6101000a81548160ff0219169083151502179055506109b3565b5f6012905090565b5f73ffffffffffffffffffffffffffffffffffffffff168273ffffffffffffffffffffffffffffffffffffffff16036101aa575f6040517fec442f050000000000000000000000000000000000000000000000000000000081526004016101a1919061090a565b60405180910390fd5b6101bb5f83836101bf60201b60201c565b5050565b5f73ffffffffffffffffffffffffffffffffffffffff168373ffffffffffffffffffffffffffffffffffffffff160361020f578060025f8282546102039190610923565b925050819055506102dd565b5f5f5f8573ffffffffffffffffffffffffffffffffffffffff1673ffffffffffffffffffffffffffffffffffffffff1681526020019081526020015f2054905081811015610298578381836040517fe450d38c00000000000000000000000000000000000000000000000000000000815260040161028f93929190610965565b60405180910390fd5b8181035f5f8673ffffffffffffffffffffffffffffffffffffffff1673ffffffffffffffffffffffffffffffffffffffff1681526020019081526020015f2081905550505b5f73ffffffffffffffffffffffffffffffffffffffff168273ffffffffffffffffffffffffffffffffffffffff1603610324578060025f828254039250508190555061036e565b805f5f8473ffffffffffffffffffffffffffffffffffffffff1673ffffffffffffffffffffffffffffffffffffffff1681526020019081526020015f205f82825401925050819055505b8173ffffffffffffffffffffffffffffffffffffffff168373ffffffffffffffffffffffffffffffffffffffff167fddf252ad1be2c89b69c2b068fc378daa952ba7f163c4a11628f55a4df523b3ef836040516103cb919061099a565b60405180910390a3505050565b5f81519050919050565b7f4e487b71000000000000000000000000000000000000000000000000000000005f52604160045260245ffd5b7f4e487b71000000000000000000000000000000000000000000000000000000005f52602260045260245ffd5b5f600282049050600182168061045357607f821691505b6020821081036104665761046561040f565b5b50919050565b5f819050815f5260205f209050919050565b5f6020601f8301049050919050565b5f82821b905092915050565b5f600883026104c87fffffffffffffffffffffffffffffffffffffffffffffffffffffffffffffffff8261048d565b6104d2868361048d565b95508019841693508086168417925050509392505050565b5f819050919050565b5f819050919050565b5f61051661051161050c846104ea565b6104f3565b6104ea565b9050919050565b5f819050919050565b61052f836104fc565b61054361053b8261051d565b848454610499565b825550505050565b5f5f905090565b61055a61054b565b610565818484610526565b505050565b5b818110156105885761057d5f82610552565b60018101905061056b565b5050565b601f8211156105cd5761059e8161046c565b6105a78461047e565b810160208510156105b6578190505b6105ca6105c28561047e565b83018261056a565b50505b505050565b5f82821c905092915050565b5f6105ed5f19846008026105d2565b1980831691505092915050565b5f61060583836105de565b9150826002028217905092915050565b61061e826103d8565b67ffffffffffffffff811115610637576106366103e2565b5b610641825461043c565b61064c82828561058c565b5f60209050601f83116001811461067d575f841561066b578287015190505b61067585826105fa565b8655506106dc565b601f19841661068b8661046c565b5f5b828110156106b25784890151825560018201915060208501945060208101905061068d565b868310156106cf57848901516106cb601f8916826105de565b8355505b6001600288020188555050505b505050505050565b7f4e487b71000000000000000000000000000000000000000000000000000000005f52601160045260245ffd5b5f8160011c9050919050565b5f5f8291508390505b600185111561076657808604811115610742576107416106e4565b5b60018516156107515780820291505b808102905061075f85610711565b9450610726565b94509492505050565b5f8261077e5760019050610839565b8161078b575f9050610839565b81600181146107a157600281146107ab576107da565b6001915050610839565b60ff8411156107bd576107bc6106e4565b5b8360020a9150848211156107d4576107d36106e4565b5b50610839565b5060208310610133831016604e8410600b841016171561080f5782820a90508381111561080a576108096106e4565b5b610839565b61081c848484600161071d565b92509050818404811115610833576108326106e4565b5b81810290505b9392505050565b5f61084a826104ea565b9150610855836104ea565b92506108827fffffffffffffffffffffffffffffffffffffffffffffffffffffffffffffffff848461076f565b905092915050565b5f610894826104ea565b915061089f836104ea565b92508282026108ad816104ea565b915082820484148315176108c4576108c36106e4565b5b5092915050565b5f73ffffffffffffffffffffffffffffffffffffffff82169050919050565b5f6108f4826108cb565b9050919050565b610904816108ea565b82525050565b5f60208201905061091d5f8301846108fb565b92915050565b5f61092d826104ea565b9150610938836104ea565b92508282019050808211156109505761094f6106e4565b5b92915050565b61095f816104ea565b82525050565b5f6060820190506109785f8301866108fb565b6109856020830185610956565b6109926040830184610956565b949350505050565b5f6020820190506109ad5f830184610956565b92915050565b61128f806109c05f395ff3fe6080604052600436106100c1575f3560e01c8063704802751161007e578063a0712d6811610058578063a0712d6814610271578063a9059cbb1461028d578063dd62ed3e146102c9578063ed783cbf14610305576100c1565b806370480275146101e357806370a082311461020b57806395d89b4114610247576100c1565b806306fdde03146100c5578063095ea7b3146100ef5780631785f53c1461012b57806318160ddd1461015357806323b872dd1461017d578063313ce567146101b9575b5f5ffd5b3480156100d0575f5ffd5b506100d9610341565b6040516100e69190610e75565b60405180910390f35b3480156100fa575f5ffd5b5061011560048036038101906101109190610f26565b6103d1565b6040516101229190610f7e565b60405180910390f35b348015610136575f5ffd5b50610151600480360381019061014c9190610f97565b6103f3565b005b34801561015e575f5ffd5b50610167610494565b6040516101749190610fd1565b60405180910390f35b348015610188575f5ffd5b506101a3600480360381019061019e9190610fea565b61049d565b6040516101b09190610f7e565b60405180910390f35b3480156101c4575f5ffd5b506101cd6104cb565b6040516101da9190611055565b60405180910390f35b3480156101ee575f5ffd5b5061020960048036038101906102049190610f97565b6104d3565b005b348015610216575f5ffd5b50610231600480360381019061022c9190610f97565b61060d565b60405161023e9190610fd1565b60405180910390f35b348015610252575f5ffd5b5061025b610652565b6040516102689190610e75565b60405180910390f35b61028b6004803603810190610286919061106e565b6106e2565b005b348015610298575f5ffd5b506102b360048036038101906102ae9190610f26565b610741565b6040516102c09190610f7e565b60405180910390f35b3480156102d4575f5ffd5b506102ef60048036038101906102ea9190611099565b610763565b6040516102fc9190610fd1565b60405180910390f35b348015610310575f5ffd5b5061032b60048036038101906103269190610f97565b6107e5565b6040516103389190610f7e565b60405180910390f35b60606003805461035090611104565b80601f016020809104026020016040519081016040528092919081815260200182805461037c90611104565b80156103c75780601f1061039e576101008083540402835291602001916103c7565b820191905f5260205f20905b8154815290600101906020018083116103aa57829003601f168201915b5050505050905090565b5f5f6103db610802565b90506103e8818585610809565b600191505092915050565b60055f3373ffffffffffffffffffffffffffffffffffffffff1673ffffffffffffffffffffffffffffffffffffffff1681526020019081526020015f205f9054906101000a900460ff16610445575f5ffd5b60055f8273ffffffffffffffffffffffffffffffffffffffff1673ffffffffffffffffffffffffffffffffffffffff1681526020019081526020015f205f6101000a81549060ff021916905550565b5f600254905090565b5f5f6104a7610802565b90506104b485828561081b565b6104bf8585856108ae565b60019150509392505050565b5f6012905090565b60055f3373ffffffffffffffffffffffffffffffffffffffff1673ffffffffffffffffffffffffffffffffffffffff1681526020019081526020015f205f9054906101000a900460ff16610525575f5ffd5b6001151560055f8373ffffffffffffffffffffffffffffffffffffffff1673ffffffffffffffffffffffffffffffffffffffff1681526020019081526020015f205f9054906101000a900460ff161515036105b5576040517f08c379a00000000000000000000000000000000000000000000000000000000081526004016105ac9061117e565b60405180910390fd5b600160055f8373ffffffffffffffffffffffffffffffffffffffff1673ffffffffffffffffffffffffffffffffffffffff1681526020019081526020015f205f6101000a81548160ff02191690831515021790555050565b5f5f5f8373ffffffffffffffffffffffffffffffffffffffff1673ffffffffffffffffffffffffffffffffffffffff1681526020019081526020015f20549050919050565b60606004805461066190611104565b80601f016020809104026020016040519081016040528092919081815260200182805461068d90611104565b80156106d85780601f106106af576101008083540402835291602001916106d8565b820191905f5260205f20905b8154815290600101906020018083116106bb57829003601f168201915b5050505050905090565b60055f3373ffffffffffffffffffffffffffffffffffffffff1673ffffffffffffffffffffffffffffffffffffffff1681526020019081526020015f205f9054906101000a900460ff16610734575f5ffd5b61073e338261099e565b50565b5f5f61074b610802565b90506107588185856108ae565b600191505092915050565b5f60015f8473ffffffffffffffffffffffffffffffffffffffff1673ffffffffffffffffffffffffffffffffffffffff1681526020019081526020015f205f8373ffffffffffffffffffffffffffffffffffffffff1673ffffffffffffffffffffffffffffffffffffffff1681526020019081526020015f2054905092915050565b6005602052805f5260405f205f915054906101000a900460ff1681565b5f33905090565b6108168383836001610a1d565b505050565b5f6108268484610763565b90507fffffffffffffffffffffffffffffffffffffffffffffffffffffffffffffffff8110156108a85781811015610899578281836040517ffb8f41b2000000000000000000000000000000000000000000000000000000008152600401610890939291906111ab565b60405180910390fd5b6108a784848484035f610a1d565b5b50505050565b5f73ffffffffffffffffffffffffffffffffffffffff168373ffffffffffffffffffffffffffffffffffffffff160361091e575f6040517f96c6fd1e00000000000000000000000000000000000000000000000000000000815260040161091591906111e0565b60405180910390fd5b5f73ffffffffffffffffffffffffffffffffffffffff168273ffffffffffffffffffffffffffffffffffffffff160361098e575f6040517fec442f0500000000000000000000000000000000000000000000000000000000815260040161098591906111e0565b60405180910390fd5b610999838383610bec565b505050565b5f73ffffffffffffffffffffffffffffffffffffffff168273ffffffffffffffffffffffffffffffffffffffff1603610a0e575f6040517fec442f05000000000000000000000000000000000000000000000000000000008152600401610a0591906111e0565b60405180910390fd5b610a195f8383610bec565b5050565b5f73ffffffffffffffffffffffffffffffffffffffff168473ffffffffffffffffffffffffffffffffffffffff1603610a8d575f6040517fe602df05000000000000000000000000000000000000000000000000000000008152600401610a8491906111e0565b60405180910390fd5b5f73ffffffffffffffffffffffffffffffffffffffff168373ffffffffffffffffffffffffffffffffffffffff1603610afd575f6040517f94280d62000000000000000000000000000000000000000000000000000000008152600401610af491906111e0565b60405180910390fd5b8160015f8673ffffffffffffffffffffffffffffffffffffffff1673ffffffffffffffffffffffffffffffffffffffff1681526020019081526020015f205f8573ffffffffffffffffffffffffffffffffffffffff1673ffffffffffffffffffffffffffffffffffffffff1681526020019081526020015f20819055508015610be6578273ffffffffffffffffffffffffffffffffffffffff168473ffffffffffffffffffffffffffffffffffffffff167f8c5be1e5ebec7d5bd14f71427d1e84f3dd0314c0f7b2291e5b200ac8c7c3b92584604051610bdd9190610fd1565b60405180910390a35b50505050565b5f73ffffffffffffffffffffffffffffffffffffffff168373ffffffffffffffffffffffffffffffffffffffff1603610c3c578060025f828254610c309190611226565b92505081905550610d0a565b5f5f5f8573ffffffffffffffffffffffffffffffffffffffff1673ffffffffffffffffffffffffffffffffffffffff1681526020019081526020015f2054905081811015610cc5578381836040517fe450d38c000000000000000000000000000000000000000000000000000000008152600401610cbc939291906111ab565b60405180910390fd5b8181035f5f8673ffffffffffffffffffffffffffffffffffffffff1673ffffffffffffffffffffffffffffffffffffffff1681526020019081526020015f2081905550505b5f73ffffffffffffffffffffffffffffffffffffffff168273ffffffffffffffffffffffffffffffffffffffff1603610d51578060025f8282540392505081905550610d9b565b805f5f8473ffffffffffffffffffffffffffffffffffffffff1673ffffffffffffffffffffffffffffffffffffffff1681526020019081526020015f205f82825401925050819055505b8173ffffffffffffffffffffffffffffffffffffffff168373ffffffffffffffffffffffffffffffffffffffff167fddf252ad1be2c89b69c2b068fc378daa952ba7f163c4a11628f55a4df523b3ef83604051610df89190610fd1565b60405180910390a3505050565b5f81519050919050565b5f82825260208201905092915050565b8281835e5f83830152505050565b5f601f19601f8301169050919050565b5f610e4782610e05565b610e518185610e0f565b9350610e61818560208601610e1f565b610e6a81610e2d565b840191505092915050565b5f6020820190508181035f830152610e8d8184610e3d565b905092915050565b5f5ffd5b5f73ffffffffffffffffffffffffffffffffffffffff82169050919050565b5f610ec282610e99565b9050919050565b610ed281610eb8565b8114610edc575f5ffd5b50565b5f81359050610eed81610ec9565b92915050565b5f819050919050565b610f0581610ef3565b8114610f0f575f5ffd5b50565b5f81359050610f2081610efc565b92915050565b5f5f60408385031215610f3c57610f3b610e95565b5b5f610f4985828601610edf565b9250506020610f5a85828601610f12565b9150509250929050565b5f8115159050919050565b610f7881610f64565b82525050565b5f602082019050610f915f830184610f6f565b92915050565b5f60208284031215610fac57610fab610e95565b5b5f610fb984828501610edf565b91505092915050565b610fcb81610ef3565b82525050565b5f602082019050610fe45f830184610fc2565b92915050565b5f5f5f6060848603121561100157611000610e95565b5b5f61100e86828701610edf565b935050602061101f86828701610edf565b925050604061103086828701610f12565b9150509250925092565b5f60ff82169050919050565b61104f8161103a565b82525050565b5f6020820190506110685f830184611046565b92915050565b5f6020828403121561108357611082610e95565b5b5f61109084828501610f12565b91505092915050565b5f5f604083850312156110af576110ae610e95565b5b5f6110bc85828601610edf565b92505060206110cd85828601610edf565b9150509250929050565b7f4e487b71000000000000000000000000000000000000000000000000000000005f52602260045260245ffd5b5f600282049050600182168061111b57607f821691505b60208210810361112e5761112d6110d7565b5b50919050565b7f4164647265737320616c72656164792061646d696e2e000000000000000000005f82015250565b5f611168601683610e0f565b915061117382611134565b602082019050919050565b5f6020820190508181035f8301526111958161115c565b9050919050565b6111a581610eb8565b82525050565b5f6060820190506111be5f83018661119c565b6111cb6020830185610fc2565b6111d86040830184610fc2565b949350505050565b5f6020820190506111f35f83018461119c565b92915050565b7f4e487b71000000000000000000000000000000000000000000000000000000005f52601160045260245ffd5b5f61123082610ef3565b915061123b83610ef3565b9250828201905080821115611253576112526111f9565b5b9291505056fea2646970667358221220f3c1bf177f7ab7e582245be355327959fc984b22e4de56e45a4905c7393a250764736f6c634300081e0033",
			"opcodes": "PUSH1 0x80 PUSH1 0x40 MSTORE CALLVALUE DUP1 ISZERO PUSH2 0xF JUMPI PUSH0 PUSH0 REVERT JUMPDEST POP PUSH1 0x40 MLOAD DUP1 PUSH1 0x40 ADD PUSH1 0x40 MSTORE DUP1 PUSH1 0x8 DUP2 MSTORE PUSH1 0x20 ADD PUSH32 0x4D433320436F696E000000000000000000000000000000000000000000000000 DUP2 MSTORE POP PUSH1 0x40 MLOAD DUP1 PUSH1 0x40 ADD PUSH1 0x40 MSTORE DUP1 PUSH1 0x3 DUP2 MSTORE PUSH1 0x20 ADD PUSH32 0x4D43330000000000000000000000000000000000000000000000000000000000 DUP2 MSTORE POP DUP2 PUSH1 0x3 SWAP1 DUP2 PUSH2 0x8B SWAP2 SWAP1 PUSH2 0x615 JUMP JUMPDEST POP DUP1 PUSH1 0x4 SWAP1 DUP2 PUSH2 0x9B SWAP2 SWAP1 PUSH2 0x615 JUMP JUMPDEST POP POP POP PUSH2 0xD8 CALLER PUSH2 0xB0 PUSH2 0x132 PUSH1 0x20 SHL PUSH1 0x20 SHR JUMP JUMPDEST PUSH1 0xFF AND PUSH1 0xA PUSH2 0xBF SWAP2 SWAP1 PUSH2 0x840 JUMP JUMPDEST PUSH3 0xF4240 PUSH2 0xCD SWAP2 SWAP1 PUSH2 0x88A JUMP JUMPDEST PUSH2 0x13A PUSH1 0x20 SHL PUSH1 0x20 SHR JUMP JUMPDEST PUSH1 0x1 PUSH1 0x5 PUSH0 CALLER PUSH20 0xFFFFFFFFFFFFFFFFFFFFFFFFFFFFFFFFFFFFFFFF AND PUSH20 0xFFFFFFFFFFFFFFFFFFFFFFFFFFFFFFFFFFFFFFFF AND DUP2 MSTORE PUSH1 0x20 ADD SWAP1 DUP2 MSTORE PUSH1 0x20 ADD PUSH0 KECCAK256 PUSH0 PUSH2 0x100 EXP DUP2 SLOAD DUP2 PUSH1 0xFF MUL NOT AND SWAP1 DUP4 ISZERO ISZERO MUL OR SWAP1 SSTORE POP PUSH2 0x9B3 JUMP JUMPDEST PUSH0 PUSH1 0x12 SWAP1 POP SWAP1 JUMP JUMPDEST PUSH0 PUSH20 0xFFFFFFFFFFFFFFFFFFFFFFFFFFFFFFFFFFFFFFFF AND DUP3 PUSH20 0xFFFFFFFFFFFFFFFFFFFFFFFFFFFFFFFFFFFFFFFF AND SUB PUSH2 0x1AA JUMPI PUSH0 PUSH1 0x40 MLOAD PUSH32 0xEC442F0500000000000000000000000000000000000000000000000000000000 DUP2 MSTORE PUSH1 0x4 ADD PUSH2 0x1A1 SWAP2 SWAP1 PUSH2 0x90A JUMP JUMPDEST PUSH1 0x40 MLOAD DUP1 SWAP2 SUB SWAP1 REVERT JUMPDEST PUSH2 0x1BB PUSH0 DUP4 DUP4 PUSH2 0x1BF PUSH1 0x20 SHL PUSH1 0x20 SHR JUMP JUMPDEST POP POP JUMP JUMPDEST PUSH0 PUSH20 0xFFFFFFFFFFFFFFFFFFFFFFFFFFFFFFFFFFFFFFFF AND DUP4 PUSH20 0xFFFFFFFFFFFFFFFFFFFFFFFFFFFFFFFFFFFFFFFF AND SUB PUSH2 0x20F JUMPI DUP1 PUSH1 0x2 PUSH0 DUP3 DUP3 SLOAD PUSH2 0x203 SWAP2 SWAP1 PUSH2 0x923 JUMP JUMPDEST SWAP3 POP POP DUP2 SWAP1 SSTORE POP PUSH2 0x2DD JUMP JUMPDEST PUSH0 PUSH0 PUSH0 DUP6 PUSH20 0xFFFFFFFFFFFFFFFFFFFFFFFFFFFFFFFFFFFFFFFF AND PUSH20 0xFFFFFFFFFFFFFFFFFFFFFFFFFFFFFFFFFFFFFFFF AND DUP2 MSTORE PUSH1 0x20 ADD SWAP1 DUP2 MSTORE PUSH1 0x20 ADD PUSH0 KECCAK256 SLOAD SWAP1 POP DUP2 DUP2 LT ISZERO PUSH2 0x298 JUMPI DUP4 DUP2 DUP4 PUSH1 0x40 MLOAD PUSH32 0xE450D38C00000000000000000000000000000000000000000000000000000000 DUP2 MSTORE PUSH1 0x4 ADD PUSH2 0x28F SWAP4 SWAP3 SWAP2 SWAP1 PUSH2 0x965 JUMP JUMPDEST PUSH1 0x40 MLOAD DUP1 SWAP2 SUB SWAP1 REVERT JUMPDEST DUP2 DUP2 SUB PUSH0 PUSH0 DUP7 PUSH20 0xFFFFFFFFFFFFFFFFFFFFFFFFFFFFFFFFFFFFFFFF AND PUSH20 0xFFFFFFFFFFFFFFFFFFFFFFFFFFFFFFFFFFFFFFFF AND DUP2 MSTORE PUSH1 0x20 ADD SWAP1 DUP2 MSTORE PUSH1 0x20 ADD PUSH0 KECCAK256 DUP2 SWAP1 SSTORE POP POP JUMPDEST PUSH0 PUSH20 0xFFFFFFFFFFFFFFFFFFFFFFFFFFFFFFFFFFFFFFFF AND DUP3 PUSH20 0xFFFFFFFFFFFFFFFFFFFFFFFFFFFFFFFFFFFFFFFF AND SUB PUSH2 0x324 JUMPI DUP1 PUSH1 0x2 PUSH0 DUP3 DUP3 SLOAD SUB SWAP3 POP POP DUP2 SWAP1 SSTORE POP PUSH2 0x36E JUMP JUMPDEST DUP1 PUSH0 PUSH0 DUP5 PUSH20 0xFFFFFFFFFFFFFFFFFFFFFFFFFFFFFFFFFFFFFFFF AND PUSH20 0xFFFFFFFFFFFFFFFFFFFFFFFFFFFFFFFFFFFFFFFF AND DUP2 MSTORE PUSH1 0x20 ADD SWAP1 DUP2 MSTORE PUSH1 0x20 ADD PUSH0 KECCAK256 PUSH0 DUP3 DUP3 SLOAD ADD SWAP3 POP POP DUP2 SWAP1 SSTORE POP JUMPDEST DUP2 PUSH20 0xFFFFFFFFFFFFFFFFFFFFFFFFFFFFFFFFFFFFFFFF AND DUP4 PUSH20 0xFFFFFFFFFFFFFFFFFFFFFFFFFFFFFFFFFFFFFFFF AND PUSH32 0xDDF252AD1BE2C89B69C2B068FC378DAA952BA7F163C4A11628F55A4DF523B3EF DUP4 PUSH1 0x40 MLOAD PUSH2 0x3CB SWAP2 SWAP1 PUSH2 0x99A JUMP JUMPDEST PUSH1 0x40 MLOAD DUP1 SWAP2 SUB SWAP1 LOG3 POP POP POP JUMP JUMPDEST PUSH0 DUP2 MLOAD SWAP1 POP SWAP2 SWAP1 POP JUMP JUMPDEST PUSH32 0x4E487B7100000000000000000000000000000000000000000000000000000000 PUSH0 MSTORE PUSH1 0x41 PUSH1 0x4 MSTORE PUSH1 0x24 PUSH0 REVERT JUMPDEST PUSH32 0x4E487B7100000000000000000000000000000000000000000000000000000000 PUSH0 MSTORE PUSH1 0x22 PUSH1 0x4 MSTORE PUSH1 0x24 PUSH0 REVERT JUMPDEST PUSH0 PUSH1 0x2 DUP3 DIV SWAP1 POP PUSH1 0x1 DUP3 AND DUP1 PUSH2 0x453 JUMPI PUSH1 0x7F DUP3 AND SWAP2 POP JUMPDEST PUSH1 0x20 DUP3 LT DUP2 SUB PUSH2 0x466 JUMPI PUSH2 0x465 PUSH2 0x40F JUMP JUMPDEST JUMPDEST POP SWAP2 SWAP1 POP JUMP JUMPDEST PUSH0 DUP2 SWAP1 POP DUP2 PUSH0 MSTORE PUSH1 0x20 PUSH0 KECCAK256 SWAP1 POP SWAP2 SWAP1 POP JUMP JUMPDEST PUSH0 PUSH1 0x20 PUSH1 0x1F DUP4 ADD DIV SWAP1 POP SWAP2 SWAP1 POP JUMP JUMPDEST PUSH0 DUP3 DUP3 SHL SWAP1 POP SWAP3 SWAP2 POP POP JUMP JUMPDEST PUSH0 PUSH1 0x8 DUP4 MUL PUSH2 0x4C8 PUSH32 0xFFFFFFFFFFFFFFFFFFFFFFFFFFFFFFFFFFFFFFFFFFFFFFFFFFFFFFFFFFFFFFFF DUP3 PUSH2 0x48D JUMP JUMPDEST PUSH2 0x4D2 DUP7 DUP4 PUSH2 0x48D JUMP JUMPDEST SWAP6 POP DUP1 NOT DUP5 AND SWAP4 POP DUP1 DUP7 AND DUP5 OR SWAP3 POP POP POP SWAP4 SWAP3 POP POP POP JUMP JUMPDEST PUSH0 DUP2 SWAP1 POP SWAP2 SWAP1 POP JUMP JUMPDEST PUSH0 DUP2 SWAP1 POP SWAP2 SWAP1 POP JUMP JUMPDEST PUSH0 PUSH2 0x516 PUSH2 0x511 PUSH2 0x50C DUP5 PUSH2 0x4EA JUMP JUMPDEST PUSH2 0x4F3 JUMP JUMPDEST PUSH2 0x4EA JUMP JUMPDEST SWAP1 POP SWAP2 SWAP1 POP JUMP JUMPDEST PUSH0 DUP2 SWAP1 POP SWAP2 SWAP1 POP JUMP JUMPDEST PUSH2 0x52F DUP4 PUSH2 0x4FC JUMP JUMPDEST PUSH2 0x543 PUSH2 0x53B DUP3 PUSH2 0x51D JUMP JUMPDEST DUP5 DUP5 SLOAD PUSH2 0x499 JUMP JUMPDEST DUP3 SSTORE POP POP POP POP JUMP JUMPDEST PUSH0 PUSH0 SWAP1 POP SWAP1 JUMP JUMPDEST PUSH2 0x55A PUSH2 0x54B JUMP JUMPDEST PUSH2 0x565 DUP2 DUP5 DUP5 PUSH2 0x526 JUMP JUMPDEST POP POP POP JUMP JUMPDEST JUMPDEST DUP2 DUP2 LT ISZERO PUSH2 0x588 JUMPI PUSH2 0x57D PUSH0 DUP3 PUSH2 0x552 JUMP JUMPDEST PUSH1 0x1 DUP2 ADD SWAP1 POP PUSH2 0x56B JUMP JUMPDEST POP POP JUMP JUMPDEST PUSH1 0x1F DUP3 GT ISZERO PUSH2 0x5CD JUMPI PUSH2 0x59E DUP2 PUSH2 0x46C JUMP JUMPDEST PUSH2 0x5A7 DUP5 PUSH2 0x47E JUMP JUMPDEST DUP2 ADD PUSH1 0x20 DUP6 LT ISZERO PUSH2 0x5B6 JUMPI DUP2 SWAP1 POP JUMPDEST PUSH2 0x5CA PUSH2 0x5C2 DUP6 PUSH2 0x47E JUMP JUMPDEST DUP4 ADD DUP3 PUSH2 0x56A JUMP JUMPDEST POP POP JUMPDEST POP POP POP JUMP JUMPDEST PUSH0 DUP3 DUP3 SHR SWAP1 POP SWAP3 SWAP2 POP POP JUMP JUMPDEST PUSH0 PUSH2 0x5ED PUSH0 NOT DUP5 PUSH1 0x8 MUL PUSH2 0x5D2 JUMP JUMPDEST NOT DUP1 DUP4 AND SWAP2 POP POP SWAP3 SWAP2 POP POP JUMP JUMPDEST PUSH0 PUSH2 0x605 DUP4 DUP4 PUSH2 0x5DE JUMP JUMPDEST SWAP2 POP DUP3 PUSH1 0x2 MUL DUP3 OR SWAP1 POP SWAP3 SWAP2 POP POP JUMP JUMPDEST PUSH2 0x61E DUP3 PUSH2 0x3D8 JUMP JUMPDEST PUSH8 0xFFFFFFFFFFFFFFFF DUP2 GT ISZERO PUSH2 0x637 JUMPI PUSH2 0x636 PUSH2 0x3E2 JUMP JUMPDEST JUMPDEST PUSH2 0x641 DUP3 SLOAD PUSH2 0x43C JUMP JUMPDEST PUSH2 0x64C DUP3 DUP3 DUP6 PUSH2 0x58C JUMP JUMPDEST PUSH0 PUSH1 0x20 SWAP1 POP PUSH1 0x1F DUP4 GT PUSH1 0x1 DUP2 EQ PUSH2 0x67D JUMPI PUSH0 DUP5 ISZERO PUSH2 0x66B JUMPI DUP3 DUP8 ADD MLOAD SWAP1 POP JUMPDEST PUSH2 0x675 DUP6 DUP3 PUSH2 0x5FA JUMP JUMPDEST DUP7 SSTORE POP PUSH2 0x6DC JUMP JUMPDEST PUSH1 0x1F NOT DUP5 AND PUSH2 0x68B DUP7 PUSH2 0x46C JUMP JUMPDEST PUSH0 JUMPDEST DUP3 DUP2 LT ISZERO PUSH2 0x6B2 JUMPI DUP5 DUP10 ADD MLOAD DUP3 SSTORE PUSH1 0x1 DUP3 ADD SWAP2 POP PUSH1 0x20 DUP6 ADD SWAP5 POP PUSH1 0x20 DUP2 ADD SWAP1 POP PUSH2 0x68D JUMP JUMPDEST DUP7 DUP4 LT ISZERO PUSH2 0x6CF JUMPI DUP5 DUP10 ADD MLOAD PUSH2 0x6CB PUSH1 0x1F DUP10 AND DUP3 PUSH2 0x5DE JUMP JUMPDEST DUP4 SSTORE POP JUMPDEST PUSH1 0x1 PUSH1 0x2 DUP9 MUL ADD DUP9 SSTORE POP POP POP JUMPDEST POP POP POP POP POP POP JUMP JUMPDEST PUSH32 0x4E487B7100000000000000000000000000000000000000000000000000000000 PUSH0 MSTORE PUSH1 0x11 PUSH1 0x4 MSTORE PUSH1 0x24 PUSH0 REVERT JUMPDEST PUSH0 DUP2 PUSH1 0x1 SHR SWAP1 POP SWAP2 SWAP1 POP JUMP JUMPDEST PUSH0 PUSH0 DUP3 SWAP2 POP DUP4 SWAP1 POP JUMPDEST PUSH1 0x1 DUP6 GT ISZERO PUSH2 0x766 JUMPI DUP1 DUP7 DIV DUP2 GT ISZERO PUSH2 0x742 JUMPI PUSH2 0x741 PUSH2 0x6E4 JUMP JUMPDEST JUMPDEST PUSH1 0x1 DUP6 AND ISZERO PUSH2 0x751 JUMPI DUP1 DUP3 MUL SWAP2 POP JUMPDEST DUP1 DUP2 MUL SWAP1 POP PUSH2 0x75F DUP6 PUSH2 0x711 JUMP JUMPDEST SWAP5 POP PUSH2 0x726 JUMP JUMPDEST SWAP5 POP SWAP5 SWAP3 POP POP POP JUMP JUMPDEST PUSH0 DUP3 PUSH2 0x77E JUMPI PUSH1 0x1 SWAP1 POP PUSH2 0x839 JUMP JUMPDEST DUP2 PUSH2 0x78B JUMPI PUSH0 SWAP1 POP PUSH2 0x839 JUMP JUMPDEST DUP2 PUSH1 0x1 DUP2 EQ PUSH2 0x7A1 JUMPI PUSH1 0x2 DUP2 EQ PUSH2 0x7AB JUMPI PUSH2 0x7DA JUMP JUMPDEST PUSH1 0x1 SWAP2 POP POP PUSH2 0x839 JUMP JUMPDEST PUSH1 0xFF DUP5 GT ISZERO PUSH2 0x7BD JUMPI PUSH2 0x7BC PUSH2 0x6E4 JUMP JUMPDEST JUMPDEST DUP4 PUSH1 0x2 EXP SWAP2 POP DUP5 DUP3 GT ISZERO PUSH2 0x7D4 JUMPI PUSH2 0x7D3 PUSH2 0x6E4 JUMP JUMPDEST JUMPDEST POP PUSH2 0x839 JUMP JUMPDEST POP PUSH1 0x20 DUP4 LT PUSH2 0x133 DUP4 LT AND PUSH1 0x4E DUP5 LT PUSH1 0xB DUP5 LT AND OR ISZERO PUSH2 0x80F JUMPI DUP3 DUP3 EXP SWAP1 POP DUP4 DUP2 GT ISZERO PUSH2 0x80A JUMPI PUSH2 0x809 PUSH2 0x6E4 JUMP JUMPDEST JUMPDEST PUSH2 0x839 JUMP JUMPDEST PUSH2 0x81C DUP5 DUP5 DUP5 PUSH1 0x1 PUSH2 0x71D JUMP JUMPDEST SWAP3 POP SWAP1 POP DUP2 DUP5 DIV DUP2 GT ISZERO PUSH2 0x833 JUMPI PUSH2 0x832 PUSH2 0x6E4 JUMP JUMPDEST JUMPDEST DUP2 DUP2 MUL SWAP1 POP JUMPDEST SWAP4 SWAP3 POP POP POP JUMP JUMPDEST PUSH0 PUSH2 0x84A DUP3 PUSH2 0x4EA JUMP JUMPDEST SWAP2 POP PUSH2 0x855 DUP4 PUSH2 0x4EA JUMP JUMPDEST SWAP3 POP PUSH2 0x882 PUSH32 0xFFFFFFFFFFFFFFFFFFFFFFFFFFFFFFFFFFFFFFFFFFFFFFFFFFFFFFFFFFFFFFFF DUP5 DUP5 PUSH2 0x76F JUMP JUMPDEST SWAP1 POP SWAP3 SWAP2 POP POP JUMP JUMPDEST PUSH0 PUSH2 0x894 DUP3 PUSH2 0x4EA JUMP JUMPDEST SWAP2 POP PUSH2 0x89F DUP4 PUSH2 0x4EA JUMP JUMPDEST SWAP3 POP DUP3 DUP3 MUL PUSH2 0x8AD DUP2 PUSH2 0x4EA JUMP JUMPDEST SWAP2 POP DUP3 DUP3 DIV DUP5 EQ DUP4 ISZERO OR PUSH2 0x8C4 JUMPI PUSH2 0x8C3 PUSH2 0x6E4 JUMP JUMPDEST JUMPDEST POP SWAP3 SWAP2 POP POP JUMP JUMPDEST PUSH0 PUSH20 0xFFFFFFFFFFFFFFFFFFFFFFFFFFFFFFFFFFFFFFFF DUP3 AND SWAP1 POP SWAP2 SWAP1 POP JUMP JUMPDEST PUSH0 PUSH2 0x8F4 DUP3 PUSH2 0x8CB JUMP JUMPDEST SWAP1 POP SWAP2 SWAP1 POP JUMP JUMPDEST PUSH2 0x904 DUP2 PUSH2 0x8EA JUMP JUMPDEST DUP3 MSTORE POP POP JUMP JUMPDEST PUSH0 PUSH1 0x20 DUP3 ADD SWAP1 POP PUSH2 0x91D PUSH0 DUP4 ADD DUP5 PUSH2 0x8FB JUMP JUMPDEST SWAP3 SWAP2 POP POP JUMP JUMPDEST PUSH0 PUSH2 0x92D DUP3 PUSH2 0x4EA JUMP JUMPDEST SWAP2 POP PUSH2 0x938 DUP4 PUSH2 0x4EA JUMP JUMPDEST SWAP3 POP DUP3 DUP3 ADD SWAP1 POP DUP1 DUP3 GT ISZERO PUSH2 0x950 JUMPI PUSH2 0x94F PUSH2 0x6E4 JUMP JUMPDEST JUMPDEST SWAP3 SWAP2 POP POP JUMP JUMPDEST PUSH2 0x95F DUP2 PUSH2 0x4EA JUMP JUMPDEST DUP3 MSTORE POP POP JUMP JUMPDEST PUSH0 PUSH1 0x60 DUP3 ADD SWAP1 POP PUSH2 0x978 PUSH0 DUP4 ADD DUP7 PUSH2 0x8FB JUMP JUMPDEST PUSH2 0x985 PUSH1 0x20 DUP4 ADD DUP6 PUSH2 0x956 JUMP JUMPDEST PUSH2 0x992 PUSH1 0x40 DUP4 ADD DUP5 PUSH2 0x956 JUMP JUMPDEST SWAP5 SWAP4 POP POP POP POP JUMP JUMPDEST PUSH0 PUSH1 0x20 DUP3 ADD SWAP1 POP PUSH2 0x9AD PUSH0 DUP4 ADD DUP5 PUSH2 0x956 JUMP JUMPDEST SWAP3 SWAP2 POP POP JUMP JUMPDEST PUSH2 0x128F DUP1 PUSH2 0x9C0 PUSH0 CODECOPY PUSH0 RETURN INVALID PUSH1 0x80 PUSH1 0x40 MSTORE PUSH1 0x4 CALLDATASIZE LT PUSH2 0xC1 JUMPI PUSH0 CALLDATALOAD PUSH1 0xE0 SHR DUP1 PUSH4 0x70480275 GT PUSH2 0x7E JUMPI DUP1 PUSH4 0xA0712D68 GT PUSH2 0x58 JUMPI DUP1 PUSH4 0xA0712D68 EQ PUSH2 0x271 JUMPI DUP1 PUSH4 0xA9059CBB EQ PUSH2 0x28D JUMPI DUP1 PUSH4 0xDD62ED3E EQ PUSH2 0x2C9 JUMPI DUP1 PUSH4 0xED783CBF EQ PUSH2 0x305 JUMPI PUSH2 0xC1 JUMP JUMPDEST DUP1 PUSH4 0x70480275 EQ PUSH2 0x1E3 JUMPI DUP1 PUSH4 0x70A08231 EQ PUSH2 0x20B JUMPI DUP1 PUSH4 0x95D89B41 EQ PUSH2 0x247 JUMPI PUSH2 0xC1 JUMP JUMPDEST DUP1 PUSH4 0x6FDDE03 EQ PUSH2 0xC5 JUMPI DUP1 PUSH4 0x95EA7B3 EQ PUSH2 0xEF JUMPI DUP1 PUSH4 0x1785F53C EQ PUSH2 0x12B JUMPI DUP1 PUSH4 0x18160DDD EQ PUSH2 0x153 JUMPI DUP1 PUSH4 0x23B872DD EQ PUSH2 0x17D JUMPI DUP1 PUSH4 0x313CE567 EQ PUSH2 0x1B9 JUMPI JUMPDEST PUSH0 PUSH0 REVERT JUMPDEST CALLVALUE DUP1 ISZERO PUSH2 0xD0 JUMPI PUSH0 PUSH0 REVERT JUMPDEST POP PUSH2 0xD9 PUSH2 0x341 JUMP JUMPDEST PUSH1 0x40 MLOAD PUSH2 0xE6 SWAP2 SWAP1 PUSH2 0xE75 JUMP JUMPDEST PUSH1 0x40 MLOAD DUP1 SWAP2 SUB SWAP1 RETURN JUMPDEST CALLVALUE DUP1 ISZERO PUSH2 0xFA JUMPI PUSH0 PUSH0 REVERT JUMPDEST POP PUSH2 0x115 PUSH1 0x4 DUP1 CALLDATASIZE SUB DUP2 ADD SWAP1 PUSH2 0x110 SWAP2 SWAP1 PUSH2 0xF26 JUMP JUMPDEST PUSH2 0x3D1 JUMP JUMPDEST PUSH1 0x40 MLOAD PUSH2 0x122 SWAP2 SWAP1 PUSH2 0xF7E JUMP JUMPDEST PUSH1 0x40 MLOAD DUP1 SWAP2 SUB SWAP1 RETURN JUMPDEST CALLVALUE DUP1 ISZERO PUSH2 0x136 JUMPI PUSH0 PUSH0 REVERT JUMPDEST POP PUSH2 0x151 PUSH1 0x4 DUP1 CALLDATASIZE SUB DUP2 ADD SWAP1 PUSH2 0x14C SWAP2 SWAP1 PUSH2 0xF97 JUMP JUMPDEST PUSH2 0x3F3 JUMP JUMPDEST STOP JUMPDEST CALLVALUE DUP1 ISZERO PUSH2 0x15E JUMPI PUSH0 PUSH0 REVERT JUMPDEST POP PUSH2 0x167 PUSH2 0x494 JUMP JUMPDEST PUSH1 0x40 MLOAD PUSH2 0x174 SWAP2 SWAP1 PUSH2 0xFD1 JUMP JUMPDEST PUSH1 0x40 MLOAD DUP1 SWAP2 SUB SWAP1 RETURN JUMPDEST CALLVALUE DUP1 ISZERO PUSH2 0x188 JUMPI PUSH0 PUSH0 REVERT JUMPDEST POP PUSH2 0x1A3 PUSH1 0x4 DUP1 CALLDATASIZE SUB DUP2 ADD SWAP1 PUSH2 0x19E SWAP2 SWAP1 PUSH2 0xFEA JUMP JUMPDEST PUSH2 0x49D JUMP JUMPDEST PUSH1 0x40 MLOAD PUSH2 0x1B0 SWAP2 SWAP1 PUSH2 0xF7E JUMP JUMPDEST PUSH1 0x40 MLOAD DUP1 SWAP2 SUB SWAP1 RETURN JUMPDEST CALLVALUE DUP1 ISZERO PUSH2 0x1C4 JUMPI PUSH0 PUSH0 REVERT JUMPDEST POP PUSH2 0x1CD PUSH2 0x4CB JUMP JUMPDEST PUSH1 0x40 MLOAD PUSH2 0x1DA SWAP2 SWAP1 PUSH2 0x1055 JUMP JUMPDEST PUSH1 0x40 MLOAD DUP1 SWAP2 SUB SWAP1 RETURN JUMPDEST CALLVALUE DUP1 ISZERO PUSH2 0x1EE JUMPI PUSH0 PUSH0 REVERT JUMPDEST POP PUSH2 0x209 PUSH1 0x4 DUP1 CALLDATASIZE SUB DUP2 ADD SWAP1 PUSH2 0x204 SWAP2 SWAP1 PUSH2 0xF97 JUMP JUMPDEST PUSH2 0x4D3 JUMP JUMPDEST STOP JUMPDEST CALLVALUE DUP1 ISZERO PUSH2 0x216 JUMPI PUSH0 PUSH0 REVERT JUMPDEST POP PUSH2 0x231 PUSH1 0x4 DUP1 CALLDATASIZE SUB DUP2 ADD SWAP1 PUSH2 0x22C SWAP2 SWAP1 PUSH2 0xF97 JUMP JUMPDEST PUSH2 0x60D JUMP JUMPDEST PUSH1 0x40 MLOAD PUSH2 0x23E SWAP2 SWAP1 PUSH2 0xFD1 JUMP JUMPDEST PUSH1 0x40 MLOAD DUP1 SWAP2 SUB SWAP1 RETURN JUMPDEST CALLVALUE DUP1 ISZERO PUSH2 0x252 JUMPI PUSH0 PUSH0 REVERT JUMPDEST POP PUSH2 0x25B PUSH2 0x652 JUMP JUMPDEST PUSH1 0x40 MLOAD PUSH2 0x268 SWAP2 SWAP1 PUSH2 0xE75 JUMP JUMPDEST PUSH1 0x40 MLOAD DUP1 SWAP2 SUB SWAP1 RETURN JUMPDEST PUSH2 0x28B PUSH1 0x4 DUP1 CALLDATASIZE SUB DUP2 ADD SWAP1 PUSH2 0x286 SWAP2 SWAP1 PUSH2 0x106E JUMP JUMPDEST PUSH2 0x6E2 JUMP JUMPDEST STOP JUMPDEST CALLVALUE DUP1 ISZERO PUSH2 0x298 JUMPI PUSH0 PUSH0 REVERT JUMPDEST POP PUSH2 0x2B3 PUSH1 0x4 DUP1 CALLDATASIZE SUB DUP2 ADD SWAP1 PUSH2 0x2AE SWAP2 SWAP1 PUSH2 0xF26 JUMP JUMPDEST PUSH2 0x741 JUMP JUMPDEST PUSH1 0x40 MLOAD PUSH2 0x2C0 SWAP2 SWAP1 PUSH2 0xF7E JUMP JUMPDEST PUSH1 0x40 MLOAD DUP1 SWAP2 SUB SWAP1 RETURN JUMPDEST CALLVALUE DUP1 ISZERO PUSH2 0x2D4 JUMPI PUSH0 PUSH0 REVERT JUMPDEST POP PUSH2 0x2EF PUSH1 0x4 DUP1 CALLDATASIZE SUB DUP2 ADD SWAP1 PUSH2 0x2EA SWAP2 SWAP1 PUSH2 0x1099 JUMP JUMPDEST PUSH2 0x763 JUMP JUMPDEST PUSH1 0x40 MLOAD PUSH2 0x2FC SWAP2 SWAP1 PUSH2 0xFD1 JUMP JUMPDEST PUSH1 0x40 MLOAD DUP1 SWAP2 SUB SWAP1 RETURN JUMPDEST CALLVALUE DUP1 ISZERO PUSH2 0x310 JUMPI PUSH0 PUSH0 REVERT JUMPDEST POP PUSH2 0x32B PUSH1 0x4 DUP1 CALLDATASIZE SUB DUP2 ADD SWAP1 PUSH2 0x326 SWAP2 SWAP1 PUSH2 0xF97 JUMP JUMPDEST PUSH2 0x7E5 JUMP JUMPDEST PUSH1 0x40 MLOAD PUSH2 0x338 SWAP2 SWAP1 PUSH2 0xF7E JUMP JUMPDEST PUSH1 0x40 MLOAD DUP1 SWAP2 SUB SWAP1 RETURN JUMPDEST PUSH1 0x60 PUSH1 0x3 DUP1 SLOAD PUSH2 0x350 SWAP1 PUSH2 0x1104 JUMP JUMPDEST DUP1 PUSH1 0x1F ADD PUSH1 0x20 DUP1 SWAP2 DIV MUL PUSH1 0x20 ADD PUSH1 0x40 MLOAD SWAP1 DUP2 ADD PUSH1 0x40 MSTORE DUP1 SWAP3 SWAP2 SWAP1 DUP2 DUP2 MSTORE PUSH1 0x20 ADD DUP3 DUP1 SLOAD PUSH2 0x37C SWAP1 PUSH2 0x1104 JUMP JUMPDEST DUP1 ISZERO PUSH2 0x3C7 JUMPI DUP1 PUSH1 0x1F LT PUSH2 0x39E JUMPI PUSH2 0x100 DUP1 DUP4 SLOAD DIV MUL DUP4 MSTORE SWAP2 PUSH1 0x20 ADD SWAP2 PUSH2 0x3C7 JUMP JUMPDEST DUP3 ADD SWAP2 SWAP1 PUSH0 MSTORE PUSH1 0x20 PUSH0 KECCAK256 SWAP1 JUMPDEST DUP2 SLOAD DUP2 MSTORE SWAP1 PUSH1 0x1 ADD SWAP1 PUSH1 0x20 ADD DUP1 DUP4 GT PUSH2 0x3AA JUMPI DUP3 SWAP1 SUB PUSH1 0x1F AND DUP3 ADD SWAP2 JUMPDEST POP POP POP POP POP SWAP1 POP SWAP1 JUMP JUMPDEST PUSH0 PUSH0 PUSH2 0x3DB PUSH2 0x802 JUMP JUMPDEST SWAP1 POP PUSH2 0x3E8 DUP2 DUP6 DUP6 PUSH2 0x809 JUMP JUMPDEST PUSH1 0x1 SWAP2 POP POP SWAP3 SWAP2 POP POP JUMP JUMPDEST PUSH1 0x5 PUSH0 CALLER PUSH20 0xFFFFFFFFFFFFFFFFFFFFFFFFFFFFFFFFFFFFFFFF AND PUSH20 0xFFFFFFFFFFFFFFFFFFFFFFFFFFFFFFFFFFFFFFFF AND DUP2 MSTORE PUSH1 0x20 ADD SWAP1 DUP2 MSTORE PUSH1 0x20 ADD PUSH0 KECCAK256 PUSH0 SWAP1 SLOAD SWAP1 PUSH2 0x100 EXP SWAP1 DIV PUSH1 0xFF AND PUSH2 0x445 JUMPI PUSH0 PUSH0 REVERT JUMPDEST PUSH1 0x5 PUSH0 DUP3 PUSH20 0xFFFFFFFFFFFFFFFFFFFFFFFFFFFFFFFFFFFFFFFF AND PUSH20 0xFFFFFFFFFFFFFFFFFFFFFFFFFFFFFFFFFFFFFFFF AND DUP2 MSTORE PUSH1 0x20 ADD SWAP1 DUP2 MSTORE PUSH1 0x20 ADD PUSH0 KECCAK256 PUSH0 PUSH2 0x100 EXP DUP2 SLOAD SWAP1 PUSH1 0xFF MUL NOT AND SWAP1 SSTORE POP JUMP JUMPDEST PUSH0 PUSH1 0x2 SLOAD SWAP1 POP SWAP1 JUMP JUMPDEST PUSH0 PUSH0 PUSH2 0x4A7 PUSH2 0x802 JUMP JUMPDEST SWAP1 POP PUSH2 0x4B4 DUP6 DUP3 DUP6 PUSH2 0x81B JUMP JUMPDEST PUSH2 0x4BF DUP6 DUP6 DUP6 PUSH2 0x8AE JUMP JUMPDEST PUSH1 0x1 SWAP2 POP POP SWAP4 SWAP3 POP POP POP JUMP JUMPDEST PUSH0 PUSH1 0x12 SWAP1 POP SWAP1 JUMP JUMPDEST PUSH1 0x5 PUSH0 CALLER PUSH20 0xFFFFFFFFFFFFFFFFFFFFFFFFFFFFFFFFFFFFFFFF AND PUSH20 0xFFFFFFFFFFFFFFFFFFFFFFFFFFFFFFFFFFFFFFFF AND DUP2 MSTORE PUSH1 0x20 ADD SWAP1 DUP2 MSTORE PUSH1 0x20 ADD PUSH0 KECCAK256 PUSH0 SWAP1 SLOAD SWAP1 PUSH2 0x100 EXP SWAP1 DIV PUSH1 0xFF AND PUSH2 0x525 JUMPI PUSH0 PUSH0 REVERT JUMPDEST PUSH1 0x1 ISZERO ISZERO PUSH1 0x5 PUSH0 DUP4 PUSH20 0xFFFFFFFFFFFFFFFFFFFFFFFFFFFFFFFFFFFFFFFF AND PUSH20 0xFFFFFFFFFFFFFFFFFFFFFFFFFFFFFFFFFFFFFFFF AND DUP2 MSTORE PUSH1 0x20 ADD SWAP1 DUP2 MSTORE PUSH1 0x20 ADD PUSH0 KECCAK256 PUSH0 SWAP1 SLOAD SWAP1 PUSH2 0x100 EXP SWAP1 DIV PUSH1 0xFF AND ISZERO ISZERO SUB PUSH2 0x5B5 JUMPI PUSH1 0x40 MLOAD PUSH32 0x8C379A000000000000000000000000000000000000000000000000000000000 DUP2 MSTORE PUSH1 0x4 ADD PUSH2 0x5AC SWAP1 PUSH2 0x117E JUMP JUMPDEST PUSH1 0x40 MLOAD DUP1 SWAP2 SUB SWAP1 REVERT JUMPDEST PUSH1 0x1 PUSH1 0x5 PUSH0 DUP4 PUSH20 0xFFFFFFFFFFFFFFFFFFFFFFFFFFFFFFFFFFFFFFFF AND PUSH20 0xFFFFFFFFFFFFFFFFFFFFFFFFFFFFFFFFFFFFFFFF AND DUP2 MSTORE PUSH1 0x20 ADD SWAP1 DUP2 MSTORE PUSH1 0x20 ADD PUSH0 KECCAK256 PUSH0 PUSH2 0x100 EXP DUP2 SLOAD DUP2 PUSH1 0xFF MUL NOT AND SWAP1 DUP4 ISZERO ISZERO MUL OR SWAP1 SSTORE POP POP JUMP JUMPDEST PUSH0 PUSH0 PUSH0 DUP4 PUSH20 0xFFFFFFFFFFFFFFFFFFFFFFFFFFFFFFFFFFFFFFFF AND PUSH20 0xFFFFFFFFFFFFFFFFFFFFFFFFFFFFFFFFFFFFFFFF AND DUP2 MSTORE PUSH1 0x20 ADD SWAP1 DUP2 MSTORE PUSH1 0x20 ADD PUSH0 KECCAK256 SLOAD SWAP1 POP SWAP2 SWAP1 POP JUMP JUMPDEST PUSH1 0x60 PUSH1 0x4 DUP1 SLOAD PUSH2 0x661 SWAP1 PUSH2 0x1104 JUMP JUMPDEST DUP1 PUSH1 0x1F ADD PUSH1 0x20 DUP1 SWAP2 DIV MUL PUSH1 0x20 ADD PUSH1 0x40 MLOAD SWAP1 DUP2 ADD PUSH1 0x40 MSTORE DUP1 SWAP3 SWAP2 SWAP1 DUP2 DUP2 MSTORE PUSH1 0x20 ADD DUP3 DUP1 SLOAD PUSH2 0x68D SWAP1 PUSH2 0x1104 JUMP JUMPDEST DUP1 ISZERO PUSH2 0x6D8 JUMPI DUP1 PUSH1 0x1F LT PUSH2 0x6AF JUMPI PUSH2 0x100 DUP1 DUP4 SLOAD DIV MUL DUP4 MSTORE SWAP2 PUSH1 0x20 ADD SWAP2 PUSH2 0x6D8 JUMP JUMPDEST DUP3 ADD SWAP2 SWAP1 PUSH0 MSTORE PUSH1 0x20 PUSH0 KECCAK256 SWAP1 JUMPDEST DUP2 SLOAD DUP2 MSTORE SWAP1 PUSH1 0x1 ADD SWAP1 PUSH1 0x20 ADD DUP1 DUP4 GT PUSH2 0x6BB JUMPI DUP3 SWAP1 SUB PUSH1 0x1F AND DUP3 ADD SWAP2 JUMPDEST POP POP POP POP POP SWAP1 POP SWAP1 JUMP JUMPDEST PUSH1 0x5 PUSH0 CALLER PUSH20 0xFFFFFFFFFFFFFFFFFFFFFFFFFFFFFFFFFFFFFFFF AND PUSH20 0xFFFFFFFFFFFFFFFFFFFFFFFFFFFFFFFFFFFFFFFF AND DUP2 MSTORE PUSH1 0x20 ADD SWAP1 DUP2 MSTORE PUSH1 0x20 ADD PUSH0 KECCAK256 PUSH0 SWAP1 SLOAD SWAP1 PUSH2 0x100 EXP SWAP1 DIV PUSH1 0xFF AND PUSH2 0x734 JUMPI PUSH0 PUSH0 REVERT JUMPDEST PUSH2 0x73E CALLER DUP3 PUSH2 0x99E JUMP JUMPDEST POP JUMP JUMPDEST PUSH0 PUSH0 PUSH2 0x74B PUSH2 0x802 JUMP JUMPDEST SWAP1 POP PUSH2 0x758 DUP2 DUP6 DUP6 PUSH2 0x8AE JUMP JUMPDEST PUSH1 0x1 SWAP2 POP POP SWAP3 SWAP2 POP POP JUMP JUMPDEST PUSH0 PUSH1 0x1 PUSH0 DUP5 PUSH20 0xFFFFFFFFFFFFFFFFFFFFFFFFFFFFFFFFFFFFFFFF AND PUSH20 0xFFFFFFFFFFFFFFFFFFFFFFFFFFFFFFFFFFFFFFFF AND DUP2 MSTORE PUSH1 0x20 ADD SWAP1 DUP2 MSTORE PUSH1 0x20 ADD PUSH0 KECCAK256 PUSH0 DUP4 PUSH20 0xFFFFFFFFFFFFFFFFFFFFFFFFFFFFFFFFFFFFFFFF AND PUSH20 0xFFFFFFFFFFFFFFFFFFFFFFFFFFFFFFFFFFFFFFFF AND DUP2 MSTORE PUSH1 0x20 ADD SWAP1 DUP2 MSTORE PUSH1 0x20 ADD PUSH0 KECCAK256 SLOAD SWAP1 POP SWAP3 SWAP2 POP POP JUMP JUMPDEST PUSH1 0x5 PUSH1 0x20 MSTORE DUP1 PUSH0 MSTORE PUSH1 0x40 PUSH0 KECCAK256 PUSH0 SWAP2 POP SLOAD SWAP1 PUSH2 0x100 EXP SWAP1 DIV PUSH1 0xFF AND DUP2 JUMP JUMPDEST PUSH0 CALLER SWAP1 POP SWAP1 JUMP JUMPDEST PUSH2 0x816 DUP4 DUP4 DUP4 PUSH1 0x1 PUSH2 0xA1D JUMP JUMPDEST POP POP POP JUMP JUMPDEST PUSH0 PUSH2 0x826 DUP5 DUP5 PUSH2 0x763 JUMP JUMPDEST SWAP1 POP PUSH32 0xFFFFFFFFFFFFFFFFFFFFFFFFFFFFFFFFFFFFFFFFFFFFFFFFFFFFFFFFFFFFFFFF DUP2 LT ISZERO PUSH2 0x8A8 JUMPI DUP2 DUP2 LT ISZERO PUSH2 0x899 JUMPI DUP3 DUP2 DUP4 PUSH1 0x40 MLOAD PUSH32 0xFB8F41B200000000000000000000000000000000000000000000000000000000 DUP2 MSTORE PUSH1 0x4 ADD PUSH2 0x890 SWAP4 SWAP3 SWAP2 SWAP1 PUSH2 0x11AB JUMP JUMPDEST PUSH1 0x40 MLOAD DUP1 SWAP2 SUB SWAP1 REVERT JUMPDEST PUSH2 0x8A7 DUP5 DUP5 DUP5 DUP5 SUB PUSH0 PUSH2 0xA1D JUMP JUMPDEST JUMPDEST POP POP POP POP JUMP JUMPDEST PUSH0 PUSH20 0xFFFFFFFFFFFFFFFFFFFFFFFFFFFFFFFFFFFFFFFF AND DUP4 PUSH20 0xFFFFFFFFFFFFFFFFFFFFFFFFFFFFFFFFFFFFFFFF AND SUB PUSH2 0x91E JUMPI PUSH0 PUSH1 0x40 MLOAD PUSH32 0x96C6FD1E00000000000000000000000000000000000000000000000000000000 DUP2 MSTORE PUSH1 0x4 ADD PUSH2 0x915 SWAP2 SWAP1 PUSH2 0x11E0 JUMP JUMPDEST PUSH1 0x40 MLOAD DUP1 SWAP2 SUB SWAP1 REVERT JUMPDEST PUSH0 PUSH20 0xFFFFFFFFFFFFFFFFFFFFFFFFFFFFFFFFFFFFFFFF AND DUP3 PUSH20 0xFFFFFFFFFFFFFFFFFFFFFFFFFFFFFFFFFFFFFFFF AND SUB PUSH2 0x98E JUMPI PUSH0 PUSH1 0x40 MLOAD PUSH32 0xEC442F0500000000000000000000000000000000000000000000000000000000 DUP2 MSTORE PUSH1 0x4 ADD PUSH2 0x985 SWAP2 SWAP1 PUSH2 0x11E0 JUMP JUMPDEST PUSH1 0x40 MLOAD DUP1 SWAP2 SUB SWAP1 REVERT JUMPDEST PUSH2 0x999 DUP4 DUP4 DUP4 PUSH2 0xBEC JUMP JUMPDEST POP POP POP JUMP JUMPDEST PUSH0 PUSH20 0xFFFFFFFFFFFFFFFFFFFFFFFFFFFFFFFFFFFFFFFF AND DUP3 PUSH20 0xFFFFFFFFFFFFFFFFFFFFFFFFFFFFFFFFFFFFFFFF AND SUB PUSH2 0xA0E JUMPI PUSH0 PUSH1 0x40 MLOAD PUSH32 0xEC442F0500000000000000000000000000000000000000000000000000000000 DUP2 MSTORE PUSH1 0x4 ADD PUSH2 0xA05 SWAP2 SWAP1 PUSH2 0x11E0 JUMP JUMPDEST PUSH1 0x40 MLOAD DUP1 SWAP2 SUB SWAP1 REVERT JUMPDEST PUSH2 0xA19 PUSH0 DUP4 DUP4 PUSH2 0xBEC JUMP JUMPDEST POP POP JUMP JUMPDEST PUSH0 PUSH20 0xFFFFFFFFFFFFFFFFFFFFFFFFFFFFFFFFFFFFFFFF AND DUP5 PUSH20 0xFFFFFFFFFFFFFFFFFFFFFFFFFFFFFFFFFFFFFFFF AND SUB PUSH2 0xA8D JUMPI PUSH0 PUSH1 0x40 MLOAD PUSH32 0xE602DF0500000000000000000000000000000000000000000000000000000000 DUP2 MSTORE PUSH1 0x4 ADD PUSH2 0xA84 SWAP2 SWAP1 PUSH2 0x11E0 JUMP JUMPDEST PUSH1 0x40 MLOAD DUP1 SWAP2 SUB SWAP1 REVERT JUMPDEST PUSH0 PUSH20 0xFFFFFFFFFFFFFFFFFFFFFFFFFFFFFFFFFFFFFFFF AND DUP4 PUSH20 0xFFFFFFFFFFFFFFFFFFFFFFFFFFFFFFFFFFFFFFFF AND SUB PUSH2 0xAFD JUMPI PUSH0 PUSH1 0x40 MLOAD PUSH32 0x94280D6200000000000000000000000000000000000000000000000000000000 DUP2 MSTORE PUSH1 0x4 ADD PUSH2 0xAF4 SWAP2 SWAP1 PUSH2 0x11E0 JUMP JUMPDEST PUSH1 0x40 MLOAD DUP1 SWAP2 SUB SWAP1 REVERT JUMPDEST DUP2 PUSH1 0x1 PUSH0 DUP7 PUSH20 0xFFFFFFFFFFFFFFFFFFFFFFFFFFFFFFFFFFFFFFFF AND PUSH20 0xFFFFFFFFFFFFFFFFFFFFFFFFFFFFFFFFFFFFFFFF AND DUP2 MSTORE PUSH1 0x20 ADD SWAP1 DUP2 MSTORE PUSH1 0x20 ADD PUSH0 KECCAK256 PUSH0 DUP6 PUSH20 0xFFFFFFFFFFFFFFFFFFFFFFFFFFFFFFFFFFFFFFFF AND PUSH20 0xFFFFFFFFFFFFFFFFFFFFFFFFFFFFFFFFFFFFFFFF AND DUP2 MSTORE PUSH1 0x20 ADD SWAP1 DUP2 MSTORE PUSH1 0x20 ADD PUSH0 KECCAK256 DUP2 SWAP1 SSTORE POP DUP1 ISZERO PUSH2 0xBE6 JUMPI DUP3 PUSH20 0xFFFFFFFFFFFFFFFFFFFFFFFFFFFFFFFFFFFFFFFF AND DUP5 PUSH20 0xFFFFFFFFFFFFFFFFFFFFFFFFFFFFFFFFFFFFFFFF AND PUSH32 0x8C5BE1E5EBEC7D5BD14F71427D1E84F3DD0314C0F7B2291E5B200AC8C7C3B925 DUP5 PUSH1 0x40 MLOAD PUSH2 0xBDD SWAP2 SWAP1 PUSH2 0xFD1 JUMP JUMPDEST PUSH1 0x40 MLOAD DUP1 SWAP2 SUB SWAP1 LOG3 JUMPDEST POP POP POP POP JUMP JUMPDEST PUSH0 PUSH20 0xFFFFFFFFFFFFFFFFFFFFFFFFFFFFFFFFFFFFFFFF AND DUP4 PUSH20 0xFFFFFFFFFFFFFFFFFFFFFFFFFFFFFFFFFFFFFFFF AND SUB PUSH2 0xC3C JUMPI DUP1 PUSH1 0x2 PUSH0 DUP3 DUP3 SLOAD PUSH2 0xC30 SWAP2 SWAP1 PUSH2 0x1226 JUMP JUMPDEST SWAP3 POP POP DUP2 SWAP1 SSTORE POP PUSH2 0xD0A JUMP JUMPDEST PUSH0 PUSH0 PUSH0 DUP6 PUSH20 0xFFFFFFFFFFFFFFFFFFFFFFFFFFFFFFFFFFFFFFFF AND PUSH20 0xFFFFFFFFFFFFFFFFFFFFFFFFFFFFFFFFFFFFFFFF AND DUP2 MSTORE PUSH1 0x20 ADD SWAP1 DUP2 MSTORE PUSH1 0x20 ADD PUSH0 KECCAK256 SLOAD SWAP1 POP DUP2 DUP2 LT ISZERO PUSH2 0xCC5 JUMPI DUP4 DUP2 DUP4 PUSH1 0x40 MLOAD PUSH32 0xE450D38C00000000000000000000000000000000000000000000000000000000 DUP2 MSTORE PUSH1 0x4 ADD PUSH2 0xCBC SWAP4 SWAP3 SWAP2 SWAP1 PUSH2 0x11AB JUMP JUMPDEST PUSH1 0x40 MLOAD DUP1 SWAP2 SUB SWAP1 REVERT JUMPDEST DUP2 DUP2 SUB PUSH0 PUSH0 DUP7 PUSH20 0xFFFFFFFFFFFFFFFFFFFFFFFFFFFFFFFFFFFFFFFF AND PUSH20 0xFFFFFFFFFFFFFFFFFFFFFFFFFFFFFFFFFFFFFFFF AND DUP2 MSTORE PUSH1 0x20 ADD SWAP1 DUP2 MSTORE PUSH1 0x20 ADD PUSH0 KECCAK256 DUP2 SWAP1 SSTORE POP POP JUMPDEST PUSH0 PUSH20 0xFFFFFFFFFFFFFFFFFFFFFFFFFFFFFFFFFFFFFFFF AND DUP3 PUSH20 0xFFFFFFFFFFFFFFFFFFFFFFFFFFFFFFFFFFFFFFFF AND SUB PUSH2 0xD51 JUMPI DUP1 PUSH1 0x2 PUSH0 DUP3 DUP3 SLOAD SUB SWAP3 POP POP DUP2 SWAP1 SSTORE POP PUSH2 0xD9B JUMP JUMPDEST DUP1 PUSH0 PUSH0 DUP5 PUSH20 0xFFFFFFFFFFFFFFFFFFFFFFFFFFFFFFFFFFFFFFFF AND PUSH20 0xFFFFFFFFFFFFFFFFFFFFFFFFFFFFFFFFFFFFFFFF AND DUP2 MSTORE PUSH1 0x20 ADD SWAP1 DUP2 MSTORE PUSH1 0x20 ADD PUSH0 KECCAK256 PUSH0 DUP3 DUP3 SLOAD ADD SWAP3 POP POP DUP2 SWAP1 SSTORE POP JUMPDEST DUP2 PUSH20 0xFFFFFFFFFFFFFFFFFFFFFFFFFFFFFFFFFFFFFFFF AND DUP4 PUSH20 0xFFFFFFFFFFFFFFFFFFFFFFFFFFFFFFFFFFFFFFFF AND PUSH32 0xDDF252AD1BE2C89B69C2B068FC378DAA952BA7F163C4A11628F55A4DF523B3EF DUP4 PUSH1 0x40 MLOAD PUSH2 0xDF8 SWAP2 SWAP1 PUSH2 0xFD1 JUMP JUMPDEST PUSH1 0x40 MLOAD DUP1 SWAP2 SUB SWAP1 LOG3 POP POP POP JUMP JUMPDEST PUSH0 DUP2 MLOAD SWAP1 POP SWAP2 SWAP1 POP JUMP JUMPDEST PUSH0 DUP3 DUP3 MSTORE PUSH1 0x20 DUP3 ADD SWAP1 POP SWAP3 SWAP2 POP POP JUMP JUMPDEST DUP3 DUP2 DUP4 MCOPY PUSH0 DUP4 DUP4 ADD MSTORE POP POP POP JUMP JUMPDEST PUSH0 PUSH1 0x1F NOT PUSH1 0x1F DUP4 ADD AND SWAP1 POP SWAP2 SWAP1 POP JUMP JUMPDEST PUSH0 PUSH2 0xE47 DUP3 PUSH2 0xE05 JUMP JUMPDEST PUSH2 0xE51 DUP2 DUP6 PUSH2 0xE0F JUMP JUMPDEST SWAP4 POP PUSH2 0xE61 DUP2 DUP6 PUSH1 0x20 DUP7 ADD PUSH2 0xE1F JUMP JUMPDEST PUSH2 0xE6A DUP2 PUSH2 0xE2D JUMP JUMPDEST DUP5 ADD SWAP2 POP POP SWAP3 SWAP2 POP POP JUMP JUMPDEST PUSH0 PUSH1 0x20 DUP3 ADD SWAP1 POP DUP2 DUP2 SUB PUSH0 DUP4 ADD MSTORE PUSH2 0xE8D DUP2 DUP5 PUSH2 0xE3D JUMP JUMPDEST SWAP1 POP SWAP3 SWAP2 POP POP JUMP JUMPDEST PUSH0 PUSH0 REVERT JUMPDEST PUSH0 PUSH20 0xFFFFFFFFFFFFFFFFFFFFFFFFFFFFFFFFFFFFFFFF DUP3 AND SWAP1 POP SWAP2 SWAP1 POP JUMP JUMPDEST PUSH0 PUSH2 0xEC2 DUP3 PUSH2 0xE99 JUMP JUMPDEST SWAP1 POP SWAP2 SWAP1 POP JUMP JUMPDEST PUSH2 0xED2 DUP2 PUSH2 0xEB8 JUMP JUMPDEST DUP2 EQ PUSH2 0xEDC JUMPI PUSH0 PUSH0 REVERT JUMPDEST POP JUMP JUMPDEST PUSH0 DUP2 CALLDATALOAD SWAP1 POP PUSH2 0xEED DUP2 PUSH2 0xEC9 JUMP JUMPDEST SWAP3 SWAP2 POP POP JUMP JUMPDEST PUSH0 DUP2 SWAP1 POP SWAP2 SWAP1 POP JUMP JUMPDEST PUSH2 0xF05 DUP2 PUSH2 0xEF3 JUMP JUMPDEST DUP2 EQ PUSH2 0xF0F JUMPI PUSH0 PUSH0 REVERT JUMPDEST POP JUMP JUMPDEST PUSH0 DUP2 CALLDATALOAD SWAP1 POP PUSH2 0xF20 DUP2 PUSH2 0xEFC JUMP JUMPDEST SWAP3 SWAP2 POP POP JUMP JUMPDEST PUSH0 PUSH0 PUSH1 0x40 DUP4 DUP6 SUB SLT ISZERO PUSH2 0xF3C JUMPI PUSH2 0xF3B PUSH2 0xE95 JUMP JUMPDEST JUMPDEST PUSH0 PUSH2 0xF49 DUP6 DUP3 DUP7 ADD PUSH2 0xEDF JUMP JUMPDEST SWAP3 POP POP PUSH1 0x20 PUSH2 0xF5A DUP6 DUP3 DUP7 ADD PUSH2 0xF12 JUMP JUMPDEST SWAP2 POP POP SWAP3 POP SWAP3 SWAP1 POP JUMP JUMPDEST PUSH0 DUP2 ISZERO ISZERO SWAP1 POP SWAP2 SWAP1 POP JUMP JUMPDEST PUSH2 0xF78 DUP2 PUSH2 0xF64 JUMP JUMPDEST DUP3 MSTORE POP POP JUMP JUMPDEST PUSH0 PUSH1 0x20 DUP3 ADD SWAP1 POP PUSH2 0xF91 PUSH0 DUP4 ADD DUP5 PUSH2 0xF6F JUMP JUMPDEST SWAP3 SWAP2 POP POP JUMP JUMPDEST PUSH0 PUSH1 0x20 DUP3 DUP5 SUB SLT ISZERO PUSH2 0xFAC JUMPI PUSH2 0xFAB PUSH2 0xE95 JUMP JUMPDEST JUMPDEST PUSH0 PUSH2 0xFB9 DUP5 DUP3 DUP6 ADD PUSH2 0xEDF JUMP JUMPDEST SWAP2 POP POP SWAP3 SWAP2 POP POP JUMP JUMPDEST PUSH2 0xFCB DUP2 PUSH2 0xEF3 JUMP JUMPDEST DUP3 MSTORE POP POP JUMP JUMPDEST PUSH0 PUSH1 0x20 DUP3 ADD SWAP1 POP PUSH2 0xFE4 PUSH0 DUP4 ADD DUP5 PUSH2 0xFC2 JUMP JUMPDEST SWAP3 SWAP2 POP POP JUMP JUMPDEST PUSH0 PUSH0 PUSH0 PUSH1 0x60 DUP5 DUP7 SUB SLT ISZERO PUSH2 0x1001 JUMPI PUSH2 0x1000 PUSH2 0xE95 JUMP JUMPDEST JUMPDEST PUSH0 PUSH2 0x100E DUP7 DUP3 DUP8 ADD PUSH2 0xEDF JUMP JUMPDEST SWAP4 POP POP PUSH1 0x20 PUSH2 0x101F DUP7 DUP3 DUP8 ADD PUSH2 0xEDF JUMP JUMPDEST SWAP3 POP POP PUSH1 0x40 PUSH2 0x1030 DUP7 DUP3 DUP8 ADD PUSH2 0xF12 JUMP JUMPDEST SWAP2 POP POP SWAP3 POP SWAP3 POP SWAP3 JUMP JUMPDEST PUSH0 PUSH1 0xFF DUP3 AND SWAP1 POP SWAP2 SWAP1 POP JUMP JUMPDEST PUSH2 0x104F DUP2 PUSH2 0x103A JUMP JUMPDEST DUP3 MSTORE POP POP JUMP JUMPDEST PUSH0 PUSH1 0x20 DUP3 ADD SWAP1 POP PUSH2 0x1068 PUSH0 DUP4 ADD DUP5 PUSH2 0x1046 JUMP JUMPDEST SWAP3 SWAP2 POP POP JUMP JUMPDEST PUSH0 PUSH1 0x20 DUP3 DUP5 SUB SLT ISZERO PUSH2 0x1083 JUMPI PUSH2 0x1082 PUSH2 0xE95 JUMP JUMPDEST JUMPDEST PUSH0 PUSH2 0x1090 DUP5 DUP3 DUP6 ADD PUSH2 0xF12 JUMP JUMPDEST SWAP2 POP POP SWAP3 SWAP2 POP POP JUMP JUMPDEST PUSH0 PUSH0 PUSH1 0x40 DUP4 DUP6 SUB SLT ISZERO PUSH2 0x10AF JUMPI PUSH2 0x10AE PUSH2 0xE95 JUMP JUMPDEST JUMPDEST PUSH0 PUSH2 0x10BC DUP6 DUP3 DUP7 ADD PUSH2 0xEDF JUMP JUMPDEST SWAP3 POP POP PUSH1 0x20 PUSH2 0x10CD DUP6 DUP3 DUP7 ADD PUSH2 0xEDF JUMP JUMPDEST SWAP2 POP POP SWAP3 POP SWAP3 SWAP1 POP JUMP JUMPDEST PUSH32 0x4E487B7100000000000000000000000000000000000000000000000000000000 PUSH0 MSTORE PUSH1 0x22 PUSH1 0x4 MSTORE PUSH1 0x24 PUSH0 REVERT JUMPDEST PUSH0 PUSH1 0x2 DUP3 DIV SWAP1 POP PUSH1 0x1 DUP3 AND DUP1 PUSH2 0x111B JUMPI PUSH1 0x7F DUP3 AND SWAP2 POP JUMPDEST PUSH1 0x20 DUP3 LT DUP2 SUB PUSH2 0x112E JUMPI PUSH2 0x112D PUSH2 0x10D7 JUMP JUMPDEST JUMPDEST POP SWAP2 SWAP1 POP JUMP JUMPDEST PUSH32 0x4164647265737320616C72656164792061646D696E2E00000000000000000000 PUSH0 DUP3 ADD MSTORE POP JUMP JUMPDEST PUSH0 PUSH2 0x1168 PUSH1 0x16 DUP4 PUSH2 0xE0F JUMP JUMPDEST SWAP2 POP PUSH2 0x1173 DUP3 PUSH2 0x1134 JUMP JUMPDEST PUSH1 0x20 DUP3 ADD SWAP1 POP SWAP2 SWAP1 POP JUMP JUMPDEST PUSH0 PUSH1 0x20 DUP3 ADD SWAP1 POP DUP2 DUP2 SUB PUSH0 DUP4 ADD MSTORE PUSH2 0x1195 DUP2 PUSH2 0x115C JUMP JUMPDEST SWAP1 POP SWAP2 SWAP1 POP JUMP JUMPDEST PUSH2 0x11A5 DUP2 PUSH2 0xEB8 JUMP JUMPDEST DUP3 MSTORE POP POP JUMP JUMPDEST PUSH0 PUSH1 0x60 DUP3 ADD SWAP1 POP PUSH2 0x11BE PUSH0 DUP4 ADD DUP7 PUSH2 0x119C JUMP JUMPDEST PUSH2 0x11CB PUSH1 0x20 DUP4 ADD DUP6 PUSH2 0xFC2 JUMP JUMPDEST PUSH2 0x11D8 PUSH1 0x40 DUP4 ADD DUP5 PUSH2 0xFC2 JUMP JUMPDEST SWAP5 SWAP4 POP POP POP POP JUMP JUMPDEST PUSH0 PUSH1 0x20 DUP3 ADD SWAP1 POP PUSH2 0x11F3 PUSH0 DUP4 ADD DUP5 PUSH2 0x119C JUMP JUMPDEST SWAP3 SWAP2 POP POP JUMP JUMPDEST PUSH32 0x4E487B7100000000000000000000000000000000000000000000000000000000 PUSH0 MSTORE PUSH1 0x11 PUSH1 0x4 MSTORE PUSH1 0x24 PUSH0 REVERT JUMPDEST PUSH0 PUSH2 0x1230 DUP3 PUSH2 0xEF3 JUMP JUMPDEST SWAP2 POP PUSH2 0x123B DUP4 PUSH2 0xEF3 JUMP JUMPDEST SWAP3 POP DUP3 DUP3 ADD SWAP1 POP DUP1 DUP3 GT ISZERO PUSH2 0x1253 JUMPI PUSH2 0x1252 PUSH2 0x11F9 JUMP JUMPDEST JUMPDEST SWAP3 SWAP2 POP POP JUMP INVALID LOG2 PUSH5 0x6970667358 0x22 SLT KECCAK256 RETURN 0xC1 0xBF OR PUSH32 0x7AB7E582245BE355327959FC984B22E4DE56E45A4905C7393A250764736F6C63 NUMBER STOP ADDMOD 0x1E STOP CALLER "
		},
		"gasEstimates": {
			"creation": {
				"codeDepositCost": "950200",
				"executionCost": "infinite",
				"totalCost": "infinite"
			},
			"external": {
				"addAdmin(address)": "29323",
				"allowance(address,address)": "infinite",
				"approve(address,uint256)": "infinite",
				"balanceOf(address)": "2873",
				"decimals()": "449",
				"mint(uint256)": "infinite",
				"name()": "infinite",
				"removeAdmin(address)": "27062",
				"symbol()": "infinite",
				"token_admin(address)": "2921",
				"totalSupply()": "2499",
				"transfer(address,uint256)": "infinite",
				"transferFrom(address,address,uint256)": "infinite"
			}
		},
		"methodIdentifiers": {
			"addAdmin(address)": "70480275",
			"allowance(address,address)": "dd62ed3e",
			"approve(address,uint256)": "095ea7b3",
			"balanceOf(address)": "70a08231",
			"decimals()": "313ce567",
			"mint(uint256)": "a0712d68",
			"name()": "06fdde03",
			"removeAdmin(address)": "1785f53c",
			"symbol()": "95d89b41",
			"token_admin(address)": "ed783cbf",
			"totalSupply()": "18160ddd",
			"transfer(address,uint256)": "a9059cbb",
			"transferFrom(address,address,uint256)": "23b872dd"
		}
	},
	"abi": [
		{
			"inputs": [],
			"stateMutability": "nonpayable",
			"type": "constructor"
		},
		{
			"inputs": [
				{
					"internalType": "address",
					"name": "spender",
					"type": "address"
				},
				{
					"internalType": "uint256",
					"name": "allowance",
					"type": "uint256"
				},
				{
					"internalType": "uint256",
					"name": "needed",
					"type": "uint256"
				}
			],
			"name": "ERC20InsufficientAllowance",
			"type": "error"
		},
		{
			"inputs": [
				{
					"internalType": "address",
					"name": "sender",
					"type": "address"
				},
				{
					"internalType": "uint256",
					"name": "balance",
					"type": "uint256"
				},
				{
					"internalType": "uint256",
					"name": "needed",
					"type": "uint256"
				}
			],
			"name": "ERC20InsufficientBalance",
			"type": "error"
		},
		{
			"inputs": [
				{
					"internalType": "address",
					"name": "approver",
					"type": "address"
				}
			],
			"name": "ERC20InvalidApprover",
			"type": "error"
		},
		{
			"inputs": [
				{
					"internalType": "address",
					"name": "receiver",
					"type": "address"
				}
			],
			"name": "ERC20InvalidReceiver",
			"type": "error"
		},
		{
			"inputs": [
				{
					"internalType": "address",
					"name": "sender",
					"type": "address"
				}
			],
			"name": "ERC20InvalidSender",
			"type": "error"
		},
		{
			"inputs": [
				{
					"internalType": "address",
					"name": "spender",
					"type": "address"
				}
			],
			"name": "ERC20InvalidSpender",
			"type": "error"
		},
		{
			"anonymous": false,
			"inputs": [
				{
					"indexed": true,
					"internalType": "address",
					"name": "owner",
					"type": "address"
				},
				{
					"indexed": true,
					"internalType": "address",
					"name": "spender",
					"type": "address"
				},
				{
					"indexed": false,
					"internalType": "uint256",
					"name": "value",
					"type": "uint256"
				}
			],
			"name": "Approval",
			"type": "event"
		},
		{
			"anonymous": false,
			"inputs": [
				{
					"indexed": true,
					"internalType": "address",
					"name": "from",
					"type": "address"
				},
				{
					"indexed": true,
					"internalType": "address",
					"name": "to",
					"type": "address"
				},
				{
					"indexed": false,
					"internalType": "uint256",
					"name": "value",
					"type": "uint256"
				}
			],
			"name": "Transfer",
			"type": "event"
		},
		{
			"inputs": [
				{
					"internalType": "address",
					"name": "_adminAddress",
					"type": "address"
				}
			],
			"name": "addAdmin",
			"outputs": [],
			"stateMutability": "nonpayable",
			"type": "function"
		},
		{
			"inputs": [
				{
					"internalType": "address",
					"name": "owner",
					"type": "address"
				},
				{
					"internalType": "address",
					"name": "spender",
					"type": "address"
				}
			],
			"name": "allowance",
			"outputs": [
				{
					"internalType": "uint256",
					"name": "",
					"type": "uint256"
				}
			],
			"stateMutability": "view",
			"type": "function"
		},
		{
			"inputs": [
				{
					"internalType": "address",
					"name": "spender",
					"type": "address"
				},
				{
					"internalType": "uint256",
					"name": "value",
					"type": "uint256"
				}
			],
			"name": "approve",
			"outputs": [
				{
					"internalType": "bool",
					"name": "",
					"type": "bool"
				}
			],
			"stateMutability": "nonpayable",
			"type": "function"
		},
		{
			"inputs": [
				{
					"internalType": "address",
					"name": "account",
					"type": "address"
				}
			],
			"name": "balanceOf",
			"outputs": [
				{
					"internalType": "uint256",
					"name": "",
					"type": "uint256"
				}
			],
			"stateMutability": "view",
			"type": "function"
		},
		{
			"inputs": [],
			"name": "decimals",
			"outputs": [
				{
					"internalType": "uint8",
					"name": "",
					"type": "uint8"
				}
			],
			"stateMutability": "view",
			"type": "function"
		},
		{
			"inputs": [
				{
					"internalType": "uint256",
					"name": "_amount",
					"type": "uint256"
				}
			],
			"name": "mint",
			"outputs": [],
			"stateMutability": "payable",
			"type": "function"
		},
		{
			"inputs": [],
			"name": "name",
			"outputs": [
				{
					"internalType": "string",
					"name": "",
					"type": "string"
				}
			],
			"stateMutability": "view",
			"type": "function"
		},
		{
			"inputs": [
				{
					"internalType": "address",
					"name": "_adminAddress",
					"type": "address"
				}
			],
			"name": "removeAdmin",
			"outputs": [],
			"stateMutability": "nonpayable",
			"type": "function"
		},
		{
			"inputs": [],
			"name": "symbol",
			"outputs": [
				{
					"internalType": "string",
					"name": "",
					"type": "string"
				}
			],
			"stateMutability": "view",
			"type": "function"
		},
		{
			"inputs": [
				{
					"internalType": "address",
					"name": "",
					"type": "address"
				}
			],
			"name": "token_admin",
			"outputs": [
				{
					"internalType": "bool",
					"name": "",
					"type": "bool"
				}
			],
			"stateMutability": "view",
			"type": "function"
		},
		{
			"inputs": [],
			"name": "totalSupply",
			"outputs": [
				{
					"internalType": "uint256",
					"name": "",
					"type": "uint256"
				}
			],
			"stateMutability": "view",
			"type": "function"
		},
		{
			"inputs": [
				{
					"internalType": "address",
					"name": "to",
					"type": "address"
				},
				{
					"internalType": "uint256",
					"name": "value",
					"type": "uint256"
				}
			],
			"name": "transfer",
			"outputs": [
				{
					"internalType": "bool",
					"name": "",
					"type": "bool"
				}
			],
			"stateMutability": "nonpayable",
			"type": "function"
		},
		{
			"inputs": [
				{
					"internalType": "address",
					"name": "from",
					"type": "address"
				},
				{
					"internalType": "address",
					"name": "to",
					"type": "address"
				},
				{
					"internalType": "uint256",
					"name": "value",
					"type": "uint256"
				}
			],
			"name": "transferFrom",
			"outputs": [
				{
					"internalType": "bool",
					"name": "",
					"type": "bool"
				}
			],
			"stateMutability": "nonpayable",
			"type": "function"
		}
	]
}